:020000040800F2
:100000000080002019370008951200089712000898
:1000100000000000000000000000000000000000E0
:10002000000000000000000000000000991200081D
:1000300000000000000000009B1200089D12000854
:1000400069370008000000006937000869370008B8
:100050006937000869370008693700086937000800
:100060000000000069370008693700086937000898
:100070006937000869370008693700080000000088
:1000800069370008693700086937000869370008D0
:1000900069370008693700086937000869370008C0
:1000A00069370008693700086937000869370008B0
:0C00B000693700086937000800000000F4
:1000BC00002243088B4274D303098B425FD3030A9B
:1000CC008B4244D3030B8B4228D3030C8B420DD3AE
:1000DC00FF22090212BA030C8B4202D3121209023C
:1000EC0065D0030B8B4219D300E0090AC30B8B427A
:1000FC0001D3CB03C01A5241830B8B4201D38B0328
:10010C00C01A5241430B8B4201D34B03C01A5241CC
:10011C00030B8B4201D30B03C01A5241C30A8B420F
:10012C0001D3CB02C01A5241830A8B4201D38B02FA
:10013C00C01A5241430A8B4201D34B02C01A52419E
:10014C00030A8B4201D30B02C01A5241CDD2C30910
:10015C008B4201D3CB01C01A524183098B4201D38C
:10016C008B01C01A524143098B4201D34B01C01A77
:10017C00524103098B4201D30B01C01A5241C308EF
:10018C008B4201D3CB00C01A524183088B4201D35E
:10019C008B00C01A524143088B4201D34B00C01A4A
:1001AC005241411A00D20146524110467047FFE7B6
:1001BC0001B5002000F006F802BDC0460029F7D0BA
:1001CC0076E770477047C0461C2101231B049842F8
:1001DC0001D3000C10391B0A984201D3000A0839CC
:1001EC001B09984201D30009043902A2105C401883
:1001FC007047C04604030202010101010000000027
:10020C000000000010B5064C2378002B07D1054BDD
:10021C00002B02D0044800E000BF0123237010BD66
:10022C005C2A002000000000D03C0008044B10B5F4
:10023C00002B03D00349044800E000BF10BDC046AA
:10024C0000000000602A0020D03C00080873002841
:10025C000AD170474868C25CD243C25401339BB286
:10026C004A899A42F6D8F4E70023F9E74873022842
:10027C0028D010D800281CD001282FD10B78013B96
:10028C008B734B78013BCB73FF230B7400224A74A6
:10029C008A74CB7415E0032820D100238B734A7821
:1002AC00013ACA730B7401224A74FE328A74CB74FD
:1002BC0007E000238B73CB7301220A744B748B748D
:1002CC00CA7470470B78013B8B730023CB730B7490
:1002DC00FF224A74FE3A8A74CB74F2E700238B73C4
:1002EC00CB7301220A744B748B74CA74E9E710B592
:1002FC000300017B002900D0FF215868002804D09E
:10030C005A8903F0FCFA002010BD0120FCE7030021
:10031C00C0085B0700D0013070474378007A58431F
:10032C00704710B50400080021706270FFF7EFFFF2
:10033C0020722000FFF7F1FF608103F011FA60607A
:10034C000023A373E37323746374A374E374200016
:10035C00FFF7CDFF21000020FFF778FF21000020E0
:10036C00FFF784FF002010BD5143C008081880B26D
:10037C007047F0B5DE4657464E464546E0B585B06B
:10038C0001AC0190029103921D000EAB1F780F9EE1
:10039C00E3781B0224791C43053CA4B23378AB42AE
:1003AC005AD372789046BA4258D301AA1278A72A27
:1003BC0007D0012005B0F0BCBB46B246A946A0460A
:1003CC00F0BD01AA92789246BA18424548DC01AABF
:1003DC0052789146AA189A4244DC73899B46337A28
:1003EC0000931A0039002800FFF7BEFF5B46181A6D
:1003FC00844239DCA34510D04B465B0711D14B46E8
:10040C00DC084346D91BC9B20139C9B2009A28008D
:10041C00FFF7AAFF0700002518E0039B736000207C
:10042C00C8E74B46DC080134EBE7337A6B43FB1A25
:10043C009BB27068C018039962432B006343D21AB5
:10044C008918220003F048FA0135EDB253465A1EC2
:10045C009542EADB0020ADE70420ABE70420A9E7D6
:10046C000220A7E70220A5E70320A3E742084000EB
:10047C000E4B184000B20E4B1A40024392B2930836
:10048C0092000C490A4012B20B490B4013439BB229
:10049C001A091B0109490B401BB209490A401343B5
:1004AC009BB2180A1B02184380B27047AAAAFFFF1E
:1004BC0055550000CCCCFFFF33330000F0F0FFFFAC
:1004CC000F0F0000F0B5C64600B506000F00384B04
:1004DC001C78200003F044F90500002305E05A00C5
:1004EC00AA18002111800133DBB29C42F7D87B7B28
:1004FC00022B3ED0032B58D0012B1AD035002800EC
:10050C0080BCB846F0BD631EDB1B5B00985B294BBF
:10051C001A7810239B1A18417B009846A84480B285
:10052C00FFF7A4FF434618800137FFB2BC42EAD85C
:10053C00E5E70027FAE7671E3B1A5B00995B80230F
:10054C001B0213410B409340BF1A7F00E95B8C46A2
:10055C00211A1B041B0C0B4161460B43EB5301325C
:10056C00D2B29442E7D80130C0B28442C7D900223B
:10057C00F7E70020F9E7631E5B1A5B00985B8023AA
:10058C001B021341034093405700E85B1B041B0CF8
:10059C000B410343EB530132D2B29442EBD80131FD
:1005AC00C9B28C42ABD90022F7E70021F9E7C0466B
:1005BC00792A0020782A0020F0B5D6464F464646C8
:1005CC00C0B5089C012B30D0022B18D0002B0BD0BF
:1005DC00494B07211970494B02391970D000801A08
:1005EC004000474BC0180AE0434B07211970434B9E
:1005FC0002391970D000801A4000414BC0180023FA
:10060C001978227891426DD25D7863789D4200D33F
:10061C006EE0394E367875199D426BDC374B1B7882
:10062C005B1893420DDD02205DE0334B0E211970F7
:10063C00324B04391970D000801A8000314BC0182D
:10064C00DDE72100FFF73EFF824600231F7861782B
:10065C005B78C91AC9B2227A0139C9B23800FFF7DE
:10066C0083FE814607263E40002101E00131C9B2DC
:10067C00214B1A788A4233D9237A4B434846C31A02
:10068C009BB2013A521A52005046125A324190B261
:10069C0084466068C75C65462D0A2F43C754606862
:1006AC008046581C45462F5CD2B23A432A54002E41
:1006BC00DCD0114A1278521A134884466244520014
:1006CC006068844602339846030040461F5C5346DC
:1006DC009A5C08239B1B9A403A4363461A54C5E71D
:1006EC00002000E00420E0BCBA46B146A846F0BDAC
:1006FC000420F8E70220F6E7792A0020782A002067
:10070C00001C002000000020FFFFFF7FF0B5D64644
:10071C004F464646C0B58AB01422002105A803F006
:10072C00EEF83E4B5A69802109030A435A615A6913
:10073C000A400192019A5A698021C9030A435A61FD
:10074C005A690A400292029A5A69802189020A4324
:10075C005A615A690A400392039A5A698021C90264
:10076C000A435A615B690B400493049BC026360212
:10077C002B4B984600223100180001F055F8294BFC
:10078C009A46294F00221900380001F04DF88923B0
:10079C001B0299469025ED0500221900280001F056
:1007AC0043F880239B01059300240694079405A924
:1007BC00404600F075FF05960126069607940894AE
:1007CC0005A9404600F06CFF184B0593069407945E
:1007DC0005A9380000F064FF53460593069607946C
:1007EC00089405A9380000F05BFF4B46059306966C
:1007FC000794089405A9280000F052FF80235B01A0
:10080C0005930694079405A9280000F049FF0AB047
:10081C00E0BCBA46B146A846F0BDC0460010024046
:10082C00000800480850000000040048040E0000B6
:10083C0072B6FEE710B51648164B036081235B00B9
:10084C004360002383600122C260036143618361C2
:10085C00C361036201F03EF9002812D10C4800215B
:10086C0001F058FA00280ED10948002101F07EFA57
:10087C0000280AD1084A116880235B030B431360DC
:10088C0010BDFFF7D5FFFFF7D3FFFFF7D1FFC04631
:10089C00E42C0020005400400000014010B50B482F
:1008AC000B4B0360E1235B02436000238360C36056
:1008BC0003610C2242618361C3610362436202F0F3
:1008CC00EFFE002800D110BDFFF7B2FF042B002073
:1008DC000038014010B50B480B4B0360E1235B0261
:1008EC00436000238360C36003610C224261836117
:1008FC00C3610362436202F0D3FE002800D110BD35
:10090C00FFF796FF7C2A00200044004000B585B01C
:10091C000C22002101A802F0F2FF3048304B03609A
:10092C00002343608360C3600122026104214161A2
:10093C00037643768376C376C221FF31C1610362AD
:10094C009E39FF394354826200F004FD002837D1F0
:10095C000023019380235B01029380235B050393A7
:10096C001E4801A900F0B8FD00282BD101230193EA
:10097C001A4801A900F0B0FD002825D104230193E9
:10098C00164801A900F0A8FD00281FD106230193E9
:10099C00124801A900F0A0FD002819D108230193E9
:1009AC000E4801A900F098FD002813D109230193EA
:1009BC000A4801A900F090FD00280DD105B000BD3A
:1009CC00FFF736FFFFF734FFFFF732FFFFF730FF7B
:1009DC00FFF72EFFFFF72CFFFFF72AFF382D002023
:1009EC000024014010B51148114B036082235B00B9
:1009FC00436000238360F0221201C26003614361F3
:100A0C00802292008261F13AFF3AC2610362436232
:100A1C008362093AC26203630833436301F006FF41
:100A2C00002800D110BDFFF703FFC046802C00202A
:100A3C000030014010B51148114B036082235B005C
:100A4C00436080231B028360C0239B00C360002390
:100A5C0003614361802292008261C361036243623D
:100A6C008362FA3AFF3AC26203630833436301F0CC
:100A7C00DDFE002800D110BDFFF7DAFE1C2C002093
:100A8C000038004000B58BB00822002108A802F005
:100A9C0036FF1C22002101A802F031FF1748184B29
:100AAC000360002343608360164AC2600361836164
:100ABC0002F082FA00281AD10023089309930F48F8
:100ACC0008A902F05FFB002813D1602301930023D7
:100ADC000293039305930948042201A902F0DAFA60
:100AEC00002808D1054800F033FB0BB000BDFFF720
:100AFC009FFEFFF79DFEFFF79BFEC046D42B002008
:100B0C0000040040FFFF000000B591B01C22002142
:100B1C0009A802F0F4FE2022002101A802F0EFFE49
:100B2C002048214B03600023436083601F4AC2604E
:100B3C0003614361836102F013FA002829D119483B
:100B4C0002F03AFA002826D16023099300230A9375
:100B5C000B930C930D930E930F931248002209A93B
:100B6C0002F098FA002818D1002301930293039302
:100B7C00049305938022920106920893094801A9D7
:100B8C0002F032FB00280AD1064800F0E1FA11B05D
:100B9C0000BDFFF74DFEFFF74BFEFFF749FEFFF7D9
:100BAC0047FEC0468C2B002000440140FFFF000094
:100BBC0010B594B03022002108A802F0A0FE102439
:100BCC001022002104A802F09AFE1022002168468F
:100BDC0002F095FE12230893113B0B930D930C948A
:100BEC000E9408A801F0ECF8002817D10723049301
:100BFC000023059306930793002104A801F064FBDE
:100C0C0000280DD1212300930023029303936846FF
:100C1C0001F00AFC002805D114B010BDFFF708FE46
:100C2C00FFF706FEFFF704FEF0B53C4CA544FFAC05
:100C3C003834A7232370283B6370403BA3703C3BA4
:100C4C00E370F23323713649FC22920011A802F0B2
:100C5C0097FE11ABA36000F049FBFFF7A9FFFFF76C
:100C6C0055FDFFF7E7FDFFF719FEFFF733FEFFF722
:100C7C004DFEFFF7B7FEFFF7DDFEFFF703FFFFF7B3
:100C8C0043FF0CAE402280213000FFF74AFB254980
:100C9C00782000F0A5F8244D80229027FF052B002A
:100CAC001201390008A800F045F880222B005200F0
:100CBC00390004A800F03EF81C4B1A6802929A887E
:100CCC0002AB9A800196012300930023206861688F
:100CDC00A268FFF74EFB300000F09CF8144800F0BF
:100CEC0027FB04980599069A079B00F031F88021A0
:100CFC0090200902C00500F09DFD0CAC009401236E
:100D0C004B2200210020FFF757FC200000F082F856
:100D1C00FA20400000F00CFBE3E7C046BCFBFFFFF1
:100D2C00E83C0008E42C0020802C0020F440000853
:100D3C00DC05000010B50400080011002060A28042
:100D4C00A360012200F070FD0123237310BD00008D
:100D5C0030B587B000900191029203936B461B7BD8
:100D6C00002B02D1134807B030BD04006B469D88A0
:100D7C000022290000F058FD02983223012205A917
:100D8C0001F006FF01222900200000F04DFD6B460A
:100D9C001B7D6A46507D000218435B0707D4C010C8
:100DAC0002F044FFFA21890502F002FEDBE702485B
:100DBC00D9E7C046003C1CC6003C1C4610B582B0AE
:100DCC0002000B000449097804480068322400949E
:100DDC0000F0E6FE02B010BD7C2D0020782D002026
:100DEC0030B589B0084B1870084B196001A8084B36
:100DFC00020032CB32C232CB32C21B8813801A2192
:100E0C00FFF7DCFF09B030BD7C2D0020782D0020D1
:100E1C00D8400008F0B5DE4657464E464546E0B58C
:100E2C0085B000AF0400438998460833DB08DB002B
:100E3C006A46D31A9D46E94600233B7221227A72F8
:100E4C00BB720278013AFA7222223A737B734378AE
:100E5C00DB08013BBB7307210823F818FFF7AEFF33
:100E6C0040234A46137000237B6001339C4636E0D6
:100E7C0063689A467B68DB01257A5543AB4683440D
:100E8C005B445546EB5C9A4680230B4155462B4000
:100E9C008B409B4607239B1A9A46FF235D462B40AB
:100EAC0055462B411E43F6B20132D2B2072ADFD986
:100EBC004B4662469E540131C9B201239A46D44432
:100ECC00072902D800220026F0E70130C0B20F2813
:100EDC0001D80021F4E77D680135ABB27B607B68FB
:100EEC00072B01D80020F2E74146013189B2484670
:100EFC00FFF764FFBD4605B0F0BCBB46B246A94641
:100F0C00A046F0BD82B00A4B996901221143996148
:100F1C0099690A400092009ADA69802149050A43CE
:100F2C00DA61DB690B400193019B02B07047C0464C
:100F3C000010024010B588B004001422002103A850
:100F4C0002F0DDFC2268194B9A4201D008B010BDAA
:100F5C00174B9A69802189000A439A619A690A4061
:100F6C000092009A5A69802189020A435A615A698F
:100F7C000A400192019A5A698021C9020A435A61B6
:100F8C005B690B400293029B532303930324049449
:100F9C00902003A9C00500F083FB03940494002364
:100FAC00059303A9034800F07BFBCFE70024014025
:100FBC00001002400004004810B588B00400142250
:100FCC00002103A802F09BFC2268124B9A4201D02C
:100FDC0008B010BD104C63698022D20213436361C8
:100FEC00636913400193019BC0230393AE3B0493AD
:100FFC000F3B0693023B079303A9084800F050FBF4
:10100C00E369802292031343E361E3691340029383
:10101C00029BDDE700540040001002400004004831
:10102C0030B58BB004001422002105A802F067FC37
:10103C0023682D4A934204D02C4A934234D00BB0EF
:10104C0030BD2B4B9A69802149010A439A619A69F8
:10105C000A400092009A5A69802189020A435A6117
:10106C005A690A400192019A5A698021C9020A43BD
:10107C005A615B690B400293029BA02305930225E6
:10108C00069503240894902005A9C00500F008FBE0
:10109C00102305930695002307930894099305A93B
:1010AC00144800F0FDFACAE7114BDA698021C90136
:1010BC000A43DA61DA690A400392039A5A69802179
:1010CC00C9020A435A615B690B400493049BA02339
:1010DC001B020593022306930133089305A90548C7
:1010EC0000F0DEFAABE7C0460030014000380040AB
:1010FC00001002400004004882B00268074B9A427C
:10110C0001D002B07047064AD16902231943D1615C
:10111C00D26913400193019BF3E7C04600040040E1
:10112C000010024082B00268074B9A4201D002B014
:10113C007047064B9A69802189020A439A619B6920
:10114C000B400193019BF2E7004401400010024068
:10115C0010B588B004001422002103A802F0CFFBC4
:10116C002368194A934204D0184A934216D008B007
:10117C0010BD174B5A698021C9020A435A615B6939
:10118C000B400193019B202303931E3B0493013BD3
:10119C00079303A90F4800F083FAE8E70C4B5A6950
:1011AC008021C9020A435A615B690B400293029B7E
:1011BC0080235B000393FE3B0493079303A905482C
:1011CC0000F06EFAD3E7C046000400400044014032
:1011DC00001002400004004810B58AB0040014222C
:1011EC00002105A802F08BFB2368244A934204D00B
:1011FC00234A934223D00AB010BD224B9A69802116
:10120C00C9010A439A619A690A400192019A5A6982
:10121C00802189020A435A615B690B400293029B4D
:10122C00C023DB0005930223069301330893023B92
:10123C000993902005A9C00500F032FADBE7114BA9
:10124C00D969802292021143D961D9691140039165
:10125C0003995969114359615B6913400493049BC9
:10126C000C2305930A3B069301330893023B099325
:10127C00902005A9C00500F013FABCE70038014026
:10128C000044004000100240FEE7FEE77047704744
:10129C0010B500F03BF810BD7047000010B504000D
:1012AC000F4B1978FA208000FEF702FF01000D4B5E
:1012BC001868FEF7FDFE00F0EFF900280DD1032CA5
:1012CC0001D901200AE0013000222100404200F047
:1012DC00DFF9054B1C60002000E0012010BDC0466A
:1012EC00042A0020002A0020082A002010B5064AF3
:1012FC00136810210B4313600320FFF7CFFFFFF798
:10130C0001FE002010BDC04600200240034A1168B7
:10131C00034B1B785B1813607047C046802D002070
:10132C00042A0020014B18687047C046802D00200D
:10133C0070B50400FFF7F6FF0500631C02D0044BE8
:10134C001B78E418FFF7EEFF401BA042FAD370BDE8
:10135C00042A002070B5041E00D1B4E0836B002B6E
:10136C0000D180E0A36BDB0600D5A6E023689A6869
:10137C00042108001040114200D09EE0A26B53499A
:10138C000A400631FF310A43A263996803220A40DE
:10139C00012A6ED0DA6818218A43A1680A43DA6000
:1013AC00226813699B009B0861680B4313612268D8
:1013BC00D36847490B40D360237E9B03627ED203E4
:1013CC001343A17E4A031343A26A012A58D08022F8
:1013DC0052011343E26813432269022A52D0034399
:1013EC002422A25C52001343E27E012A4CD0E26913
:1013FC00C221FF318A4202D0216A0A431343216879
:10140C00CA681A43CA60E26A802149058A420DD033
:10141C00012A0BD0022A09D0032A07D0042A05D0AE
:10142C00052A03D0062A01D0072A0AD1206841696F
:10143C0007229143416120684169E56A2A400A43C9
:10144C0042612268D26823490A409A422BD0A36B8E
:10145C0012229343023A1343A363E36B0F3A1343F1
:10146C00E36301202EE0C36334228354FFF762FD53
:10147C0078E71A68D2079AD4DA68120497D489E705
:10148C000200A6E70420AAE7002903D18022520219
:10149C001343ACE7A26B20210A43A263E26B1F3912
:1014AC000A43E263A3E70023E363A36B03229343A2
:1014BC00023A1343A363002004E0A36B10221343EE
:1014CC00A363012070BD0120FCE7C046FDFEFFFFB9
:1014DC001902FEFFE7FF3F8330B583B00400002301
:1014EC0001933433C35C012B00D176E03423012209
:1014FC00C254026893685B0765D44868384B9842BD
:10150C0048D0936A0D680120A84003439362E36AB4
:10151C0080225205934213D0013B062B10D98868C8
:10152C002268556907232B40984209D0506907233C
:10153C0098435061206842698D682B401343436186
:10154C000B681A00103A012A01D9002040E0254A04
:10155C001268102B09D08023DB031343214A13603C
:10156C000B68102B04D0002032E080231B04F4E71E
:10157C001D4B18681D49FEF79BFD83001B185B0073
:10158C00019302E0019B013B0193019B002BF9D1DC
:10159C0000201DE0936A0D680120A84083439362EC
:1015AC000B681A00103A012A01D9002010E00D4AEC
:1015BC001268102B05D00E4B13400A4A1360002002
:1015CC0006E00C4BF8E7836B202213438363012066
:1015DC0034230022E25403B030BD0220FBE7C046A6
:1015EC000110000008270140002A002040420F0093
:1015FC00FFFFBFFFFFFF7FFF70B5002811DB8308E3
:10160C00134DC0339B005C5903221040C000FC32C8
:10161C0016008640B44389010A40824022435A5145
:10162C0070BD0F230340083B9B0806339B00094AFF
:10163C00944663445C6803221040C000FC321500E1
:10164C008540AC4389010A40824022435A60E7E757
:10165C0000E100E000ED00E0013880235B049842DB
:10166C000FD2094A50600948036A1B021B0AC021A9
:10167C0009060B43036200239360073313600020B9
:10168C0070470120FCE7C04610E000E000ED00E0F0
:10169C0010B5FFF7B1FF10BD10B5FFF7DDFF10BDA2
:1016AC00F0B583B0002356E086685F000324BC408D
:1016BC00A643CC68BC4034438460446894434E6871
:1016CC003609012232409A402243426053E0DE0840
:1016DC000836B600375805321A4092000F24944051
:1016EC00A7430C69944022003A43325056E003263B
:1016FC0000E00026A64034003C4302329200444EE7
:10170C009451444A9768EA433E00AE434C68E40265
:10171C0001D53E002E433F4CA660E7683E001640C4
:10172C004C68A40201D53E002E433A4CE660676833
:10173C003E0016404C68A40301D53E002E43354CA8
:10174C006660266832404C68E40301D52A003243B7
:10175C00304C226001330C682200DA4056D0012252
:10176C009A40250015401442F4D04E6803243440AE
:10177C00013C012C98D94C6803222240032A08D042
:10178C00C4685E000322B24094438A68B24022438C
:10179C00C2604C6803222240022A98D004685E0082
:1017AC0003221700B740BC434F683A40B240224373
:1017BC0002604C68C02292021442CBD0164CA6692F
:1017CC0001221643A661A46922400192019A9A084B
:1017DC00941CA4000E4EA75903241C40A4000F26F1
:1017EC00A640B7439026F605B04282D00B4EB042CD
:1017FC0008D00B4EB04207D00A4EB04200D176E76B
:10180C00052677E7012675E7022673E703B0F0BDDE
:10181C000000014000040140001002400004004898
:10182C0000080048000C0048002A01D08161704774
:10183C008162FCE7426913000B401B0491430B438C
:10184C0083617047026893699B0701D500239362FB
:10185C0003689A69D20703D49A6901210A439A61F1
:10186C007047000010B58905890D12041143194306
:10187C00029B194349004908046862685B0D80208B
:10188C00C0000340034803439A4313000B436360B7
:10189C0010BDC046FF63FF03F0B5C64600B504009B
:1018AC000D00170001688B69102216001E401A42A9
:1018BC0000D175E01023CB610023984600262068E8
:1018CC0083699B0631D4002E2FD16B1CF7D0FFF708
:1018DC0029FDC01BA84201D8002DF0D121684B680E
:1018EC008022D20113404222A25CD2B28869000449
:1018FC0003D5002B01D1202A0ED123689B699B06AE
:10190C00DDD4FFF70FFDC01B1928F6D92023424662
:10191C001A4390460126D2E74A688023DB01134321
:10192C004B60FFF7FFFC0700E7E7002E01D12023F7
:10193C00C3610426434633431E0001252268936984
:10194C00D90504D501210E43FF31D16101255A057A
:10195C0006D50822164322688021C900D1610125D1
:10196C009B051FD502231E43236880229200DA6157
:10197C0001252000FFF766FF226853680B490B40D6
:10198C005360636C3343636441232022E25400238D
:10199C002232A354023AA354280080BCB846F0BDAE
:1019AC000025CBE7002DF7D0E3E7C04600E800FEAA
:1019BC0070B504000D00160023689B699B0720D4AA
:1019CC00320029002000FFF767FF00281BD16B1C99
:1019DC00F2D0FFF7A7FC801BA84201D8002DEBD159
:1019EC0023689B699B07E7D4636C202213436364D1
:1019FC004123E25400232232A354023AA35401207F
:101A0C0000E0002070BD0120FCE7F0B5CE4600B52B
:101A1C0082B007000D00160099463B689C692C406B
:101A2C00641B63425C410196B44221D14B460133A5
:101A3C00F3D0FFF777FC089BC01A484502D84B46F9
:101A4C00002BEAD13B689B692B405B1B5A425341EC
:101A5C00019A9342E1D17B6C202213437B64412396
:101A6C00FA5400232232BB54023ABB54012000E04A
:101A7C00002002B080BCB946F0BD70B504000D006A
:101A8C00160003E023689B699B0612D523689B69AB
:101A9C009B061BD4320029002000FFF7FDFE002816
:101AAC0016D1FFF73FFC801BA842EBD8002DEDD1DF
:101ABC00E8E7636C2022134363644123E254002360
:101ACC002232A354023AA354012000E0002070BD3E
:101ADC000120FCE710B5041E59D04123C35C002B38
:101AEC0043D041232422E2542268136801218B4302
:101AFC0013606368226827490B401361226893685E
:101B0C0025490B409360E368012B34D0A16822680F
:101B1C0084231B020B439360E368022B32D02268B0
:101B2C0051681E4B0B4353602268D3681A490B4013
:101B3C00D360236962691343A269120221681343BB
:101B4C00CB60E369216A22680B4313602268136837
:101B5C0001210B4313600023636441221F31A15404
:101B6C0023630132A354002010BD40330022C25421
:101B7C00FFF722FAB5E7A168226880231B020B430A
:101B8C009360C9E72368802212015A60C7E70120DD
:101B9C00EAE7C046FFFFFFF0FF7FFFFF0080000277
:101BAC00F0B585B004000F00029203930A9D412307
:101BBC00C35C202B00D09BE02033C35C012B00D1F5
:101BCC0099E040230122C254FFF7ACFB06008021B0
:101BDC0000901923012209022000FFF716FF0028AC
:101BEC0000D08AE041232122E2540133113AE2541D
:101BFC0000236364029A6262039A62856363638D55
:101C0C009BB2FF2B0BD9FF2323857F3B3F4A0092CE
:101C1C005B04FF2239002000FFF724FE18E0628DE0
:101C2C0092B222858023D2B2384900919B043900AC
:101C3C002000FFF717FE0BE0628D92B22285802305
:101C4C00D2B2002100919B0439002000FFF70AFE5C
:101C5C00638D9BB2002B34D0320029002000FFF79B
:101C6C00A7FE00284BD1626A236812789A62636AD5
:101C7C0001336362638D013B9BB26385238D013B12
:101C8C009BB22385628D92B2002AE1D0002BDFD16A
:101C9C0000962B00002280212000FFF7B6FE0028C2
:101CAC002FD1638D9BB2FF2BC6D9FF2323857F3B9E
:101CBC00002200925B04FF3239002000FFF7D2FDB6
:101CCC00C6E7320029002000FFF7D7FE00281AD102
:101CDC0023682022DA6121684B680D4D2B404B6044
:101CEC004123E25400232232A354023AA35400E0CD
:101CFC00022005B0F0BD0220FBE70120F9E701202E
:101D0C00F7E70120F5E70120F3E7C046002000804B
:101D1C0000E800FEF0B54123C35C202B20D120331A
:101D2C00C35C012B1ED040240122025541252423E3
:101D3C0043550668336893433360066833680A4F2B
:101D4C003B403360066833680B43336001680B68B3
:101D5C0013430B6020234355002303550020F0BD93
:101D6C000220FCE70220FAE7FFEFFFFFF0B541236A
:101D7C00C35C202B1ED12033C35C012B1CD0402410
:101D8C0001220255412524234355066833689343A9
:101D9C00336006683368094F3B40090219433160D0
:101DAC0001680B6813430B60202343550023035534
:101DBC000020F0BD0220FCE70220FAE7FFF0FFFF55
:101DCC0070B582B0041E00D138E20368DB072BD556
:101DDC00B34B5A680C231340042B1DD0B04B5A68DC
:101DEC000C231340082B0ED06368012B41D0002B21
:101DFC0056D1AB4B1A68AB490A401A601A68AA490B
:101E0C000A401A603BE0A64B5B68C02252021340AA
:101E1C00802252029342E7D1A14B1B689B0303D54E
:101E2C006368002B00D10CE223689B0777D59C4B91
:101E3C005B680C221A4262D0994B5A680C231340EF
:101E4C00082B53D0E368002B00D18AE0944A136826
:101E5C0001210B431360FFF765FA0500904B1B68DB
:101E6C009B0775D4FFF75EFA401B0228F6D90320B6
:101E7C00E5E18B4A116880235B020B4313606368B6
:101E8C00002B25D0FFF74EFA0500854B1B689B03F2
:101E9C00CAD4FFF747FA401B6428F6D90320CEE1D9
:101EAC00052B09D07E4B1A687E490A401A601A68C5
:101EBC007D490A401A60E2E7794B19688022D20208
:101ECC000A431A601968802252020A431A60D6E744
:101EDC00FFF728FA0500724B1B689B03A4D5FFF78C
:101EEC0021FA401B6428F6D90320A8E16C4B5B68EF
:101EFC00C02252021340802212029342A2D1684B9C
:101F0C001B689B0703D5E368012B00D09BE1644958
:101F1C000B68F82293432269D20013430B602368A9
:101F2C001B0744D5E369002B2ED05D4A536A01216F
:101F3C000B435362FFF7F6F90500594B5B6A9B079D
:101F4C0035D4FFF7EFF9401B0228F6D9032076E1D0
:101F5C0053490B68F82293432269D20013430B6058
:101F6C00DDE74F4A136801218B431360FFF7DAF961
:101F7C0005004B4B1B689B07D1D5FFF7D3F9401BD2
:101F8C000228F6D903205AE1454A536A01218B43B2
:101F9C005362FFF7C7F90500414B5B6A9B0706D5F7
:101FAC00FFF7C0F9401B0228F6D9032047E123684C
:101FBC005B0700D480E03A4BDB69DB001DD4384B67
:101FCC00DA69802149050A43DA61DB690B40019328
:101FDC00019B0125354B1B68DB0510D5A368012B34
:101FEC0021D0002B36D12E4B1A6A01218A431A625A
:101FFC001A6A03318A431A621AE00025EAE72B4A6F
:10200C00116880235B000B431360FFF78BF906000C
:10201C00264B1B68DB05E1D4FFF784F9801B642891
:10202C00F6D903200BE11E4A136A01210B431362FC
:10203C00A368002B24D0FFF775F90600184B1B6A18
:10204C009B0737D4FFF76EF9801B194B9842F5D9D3
:10205C000320F4E0052B09D0114B1A6A01218A43A5
:10206C001A621A6A03318A431A62E1E70C4B1A6A44
:10207C0004210A431A621A6A03390A431A62D7E71F
:10208C00FFF750F90600064B1B6A9B0712D5FFF7AA
:10209C0049F9801B064B9842F5D90320CFE0C04686
:1020AC0000100240FFFFFEFFFFFFFBFF007000402F
:1020BC0088130000012D33D02368DB0610D563692B
:1020CC00012B33D0053351D1654A536B04218B431B
:1020DC005363536BF4318B43A169C9000B435363B6
:1020EC00236A002B00D1B0E05D4A51680C220A40F3
:1020FC00082A00D18AE0022B4FD0594A136859495B
:10210C000B401360FFF70EF90400554B1B689B0145
:10211C007AD5FFF707F9001B0228F6D903208EE0C9
:10212C004F4AD36950490B40D361C5E74C4B5A6BAE
:10213C0004210A435A635A6B03390A435A63FFF763
:10214C00F1F80500464B5B6B9B0706D4FFF7EAF8EA
:10215C00401B0228F6D9032071E041494B6BF82251
:10216C009343A269D20013434B63B9E73C4B5A6BC0
:10217C0004210A435A635A6B03398A435A63FFF7A3
:10218C00D1F80500364B5B6B9B07A9D5FFF7CAF856
:10219C00401B0228F6D9032051E0314A136831491B
:1021AC000B401360FFF7BEF805002D4B1B689B011D
:1021BC0006D5FFF7B7F8401B0228F6D903203EE0FE
:1021CC00274BDA6A0F218A43E16A0A43DA625A68BA
:1021DC0026490A40A16A606A01430A435A60196899
:1021EC00802252040A431A60FFF79CF804001C4B2F
:1021FC001B689B0106D4FFF795F8001B0228F6D943
:10220C0003201CE000201AE0002018E0012B1ED057
:10221C00134B5A68D86AC0235B021340616A8B4225
:10222C0017D10F230340E16A8B4214D1F0239B0397
:10223C001A40A36A9A4210D1002000E0012002B09B
:10224C0070BD0120FBE70120F9E70020F7E7012032
:10225C00F5E70120F3E70120F1E70120EFE7C046A5
:10226C0000100240FFFFFFFEFFFFFFEFFF7FC2FFEA
:10227C0010B5114B5A680C231340082B01D00F4892
:10228C0010BD910C073319400D48445C0A49C96ACA
:10229C000B400C49C95CC0235B021A4080235B02D3
:1022AC009A4204D00548FDF703FF6043E8E7034872
:1022BC00FDF7FEFE6043E3E70010024000127A00D7
:1022CC00244100081441000870B504000D000028DA
:1022DC0000D17EE0434B1A68012313408B420AD293
:1022EC0040490B68012293432B430B600B681A4047
:1022FC00AA4200D06FE023689A070ED55B0705D57C
:10230C00394A5168E023DB000B435360364A53686B
:10231C00F0218B43A1680B4353602368DB072DD559
:10232C006368012B1ED0022B22D02F4A1268920711
:10233C0053D52D494A680320824313434B60FEF763
:10234C00F1FF0600284B5B680C221A4063689B0067
:10235C009A4213D0FEF7E6FF801B244B9842F1D92A
:10236C00032035E0204A12689203E2D401202FE0CA
:10237C001D4A12689201DCD4012029E0194B1A681D
:10238C0001231340AB4209D916490B680122934330
:10239C002B430B600B681A40AA4220D123685B07C1
:1023AC0006D5114A536812490B40E1680B43536040
:1023BC00FFF75EFF0C4B5A6812090F2313400D4AAE
:1023CC00D35CD8400C4B18600320FEF767FF00204D
:1023DC0070BD0120FCE70120FAE70120F8E701209D
:1023EC00F6E7C046002002400010024088130000AF
:1023FC00FFF8FFFF04410008002A0020014B186879
:10240C007047C046002A002010B5FFF7F7FF044BB9
:10241C005A68120A07231340024AD35CD84010BDF5
:10242C0000100240FC40000870B582B00400036844
:10243C00DB0339D53E4BDB69DB004BD43C4BDA6913
:10244C00802149050A43DA61DB690B400193019B4A
:10245C000125384B1B68DB053ED5354B1A6AC0236A
:10246C009B00110019401A4215D06368C0229200DB
:10247C0013408B420FD02E4B1A6A2F4911401E6A03
:10248C008020400230431862186A2C4E304018628B
:10249C001962D20734D4264A136A27490B40616863
:1024AC000B431362012D3AD02368DB0706D5204A73
:1024BC00136B03218B43A1680B43136323689B06A7
:1024CC0032D51B4A136B10218B43E1680B4313630A
:1024DC0000202AE00025BCE7164A116880235B0027
:1024EC000B431360FEF71EFF0600124B1B68DB0547
:1024FC00B3D4FEF717FF801B6428F6D9032014E031
:10250C00FEF710FF06000A4B1B6A9B07C3D4FEF7AD
:10251C0009FF801B0A4B9842F5D9032005E0D369CB
:10252C0008490B40D361BFE7002002B070BDC04624
:10253C000010024000700040FFFCFFFFFFFFFEFF99
:10254C0088130000FFFFFFEFF0B5D6464F46464616
:10255C00C0B582B006000D0090461F00FEF7E2FEEB
:10256C000A9B181A8146B944FEF7DCFE82462C4BB6
:10257C001B685B011B0D4A465343019333689C68EF
:10258C002C40641B63425C41444542D07B1CF5D01B
:10259C00FEF7C8FE5346C01A484508D2019A002AD5
:1025AC0000D04A46019B013B01939146E6E7326815
:1025BC005368E0218B435360726882235B009A421C
:1025CC000CD0B26A80239B019A4216D05D23012263
:1025DC00F254013B0022F25403201BE0B36880222A
:1025EC001202934203D08022D2009342E9D1326886
:1025FC00136840218B431360E3E732681368094981
:10260C000B4013603268116880239B010B431360ED
:10261C00DCE7002002B0E0BCBA46B146A846F0BDEB
:10262C00002A0020FFDFFFFFF0B5DE4657464E467E
:10263C004546E0B583B007000D00160098466B4682
:10264C000022DA70FEF76EFE0C9B181A404481468D
:10265C00FEF768FE82463B689B46344B1B689A002B
:10266C00D218D3009B1A1B0D4A465343019302E028
:10267C004346013311D13B689C682C40B4424DD089
:10268C00C023DB009D42F3D1002EF1D15B461B7BB6
:10269C00DBB26A46D370D378EAE7FEF743FE5346C3
:1026AC00C01A484508D2019A002A00D04A46019B1C
:1026BC00013B01939146DEE73A685368E0218B4376
:1026CC0053607A6882235B009A420CD0BA6A8023EA
:1026DC009B019A4216D05D230122FA54013B002241
:1026EC00FA5403201BE0BB6880221202934203D0F1
:1026FC008022D2009342E9D13A68136840218B437F
:10270C001360E3E73A68136809490B4013603A68B1
:10271C00116880239B010B431360DCE7002003B09E
:10272C00F0BCBB46B246A946A046F0BD002A00202C
:10273C00FFDFFFFF70B582B004000D001600C02152
:10274C0000922B0000224901FFF76EFF002818D1E0
:10275C0000962B00002280212000FFF7F5FE0028B8
:10276C0016D1C02100962B000022C9002000FFF7D3
:10277C005BFF00280AD0236E20221343236603201C
:10278C0004E0236E202213432366032002B070BDA5
:10279C00236E2022134323660320F7E770B582B023
:1027AC0004000D001600426882235B009A420FD091
:1027BC0000962B00002280212000FFF7C5FE002888
:1027CC0015D1626882235B009A4216D002B070BDAC
:1027DC00836880221202934203D08022D20093425B
:1027EC00E6D12268136840218B431360E0E7236E27
:1027FC002022134323660320E8E7A36880221202F9
:10280C00934203D08022D2009342DFD1C0210096A4
:10281C002B000022C9002000FFF706FF0028D5D0AE
:10282C00236E2022134323660320CFE770B5041ECA
:10283C0000D178E0436A002B07D142680533FF339F
:10284C009A4205D00023C36102E000230361436177
:10285C000023A3625D33E35C002B5AD05D2302227C
:10286C00E2542268136840218B431360E368E02232
:10287C00D200934254D90022F02109018B4205D099
:10288C00E021C9008B4201D00023A362636882213E
:10289C0049000B40A1688420000201400B432069D1
:1028AC00022101400B436069012108400343A069E8
:1028BC008025AD0028400343E569382028400343B8
:1028CC00256A802028400343A06A8025AD0128405A
:1028DC00256803432B60608B04230340656A10203A
:1028EC0028400343656B082028400343E068F0252B
:1028FC002D01284003432068134343602268D369A9
:10290C000A480340D361002323665D33E154002061
:10291C0070BD5C330022E2542000FEF781FB9DE782
:10292C0080225201A8E70120F2E7C046FFF7FFFF23
:10293C00F0B583B00400009101921E00089D5C2349
:10294C00C35C012B00D11EE15C230122C254FEF7B3
:10295C00E9FC07005D23E35CD9B26268012B0BD064
:10296C0082235B009A4200D0FBE0A368002B00D0CE
:10297C00FDE0042900D0FCE0009B002B00D1FAE024
:10298C00019B002B00D1F8E0002E00D1F7E05D2375
:10299C00E35C042B02D05D230522E2540023236662
:1029AC00019A22644622A652023AA652009AA263C7
:1029BC00E687A687E3642365E268E023DB009A429E
:1029CC0023D92268536871490B40536023681A68F5
:1029DC00520603D41A6840210A431A60E268E023C5
:1029EC00DB009A4258D96368002B01D0012E0AD122
:1029FC00A26B23681288DA60A36B0233A363E38FA4
:102A0C00013B9BB2E38701262DE0226851688023AD
:102A1C005B010B435360D9E7A36B1B88D360A36B9B
:102A2C000233A363E38F013B9BB2E387002622684A
:102A3C009368DB0710D54623E35A9BB2002B0BD0CF
:102A4C00D268236C1A80236C023323644622A35A67
:102A5C00013B9BB2A3520126FEF764FCC01BA842AB
:102A6C0001D36B1C13D1E38F9BB2002B04D14633E3
:102A7C00E35A9BB2002B63D0226893689B07D6D590
:102A8C00E38F9BB2002BD2D0012ED0D1C4E75D23B3
:102A9C000122E254032065E06368002B01D0012E73
:102AAC000AD1A26B236812781A73A36B0133A36348
:102ABC00E38F013B9BB2E38701261DE022689368FC
:102ACC00DB0710D54623E35A9BB2002B0BD0236CAB
:102ADC00127B1A70236C013323644622A35A013BE8
:102AEC009BB2A3520126FEF71DFCC01BA84201D3CA
:102AFC006B1C20D1002D1ED0E38F9BB2002B04D178
:102B0C004633E35A9BB2002B1AD0226893689B077A
:102B1C00D4D5E38F9BB2002BD0D0012ECED1A36B9A
:102B2C001B781373A36B0133A363E38F013B9BB23D
:102B3C00E3870026C2E75D230122E254032011E063
:102B4C003A0029002000FFF7F5FD002802D02023D1
:102B5C0023660120236E002B13D15D330122E25436
:102B6C0000E002205C230022E25403B0F0BD0220FE
:102B7C00F8E70220F6E70120F4E70120F2E7012054
:102B8C00F0E70120EEE70220EFE7C046FFEFFFFF82
:102B9C00F0B5CE4600B584B00400039116001D00BC
:102BAC005D23C35CDFB2012B00D0BAE04268043372
:102BBC00FF339A423DD05C23E35C012B00D1B9E09A
:102BCC005C230122E254FEF7ADFB814603990029F8
:102BDC0000D1A7E0002E00D1A4E05D230422E25432
:102BEC000023236621644032A6520232A652A3630C
:102BFC00A387E387E3642365E268E023DB009A4262
:102C0C0024D9226853684C490B405360A268802336
:102C1C001B029A4221D0226813685B0603D4136806
:102C2C0040210B431360E268E023DB009A4229D970
:102C3C004CE08368002BBED15D330422C254009556
:102C4C0033000A00FFF774FE07006EE0226851683B
:102C5C0080235B010B435360D8E722681368402143
:102C6C008B4313602268136834490B401360D2E71E
:102C7C00FEF758FB4B46C01AA84201D36B1C16D169
:102C8C00002D14D04623E35A9BB2002B38D0226877
:102C9C009368DB07ECD5236C127B1A70236C013321
:102CAC0023644622A35A013B9BB2A352EAE75D235D
:102CBC000122E254032735E0FEF734FB4B46C01AE1
:102CCC00A84201D36B1C16D1002D14D04623E25A16
:102CDC0092B2002A14D022689368DB07ECD5D26834
:102CEC00236C1A80236C023323644622A35A013BC3
:102CFC009BB2A352EAE75D230122E254032711E0C1
:102D0C004A4629002000FFF749FD002801D0202366
:102D1C002366236E002B05D15D330122E25400277C
:102D2C0000E002275C230022E254380004B080BC8F
:102D3C00B946F0BD0227F8E7FFEFFFFFFFBFFFFF2B
:102D4C0030B5036A012293430362056A42688369C2
:102D5C007324A3430C681C4302239D438B682B43B1
:102D6C00154DA84208D0154DA84205D0144DA842C7
:102D7C0002D0144DA84206D10825AB431D00CB68E8
:102D8C002B430425AB430C4DA84208D00B4DA84255
:102D9C0005D00B4DA84202D00A4DA84205D10A4DD0
:102DAC002A404D6915438A692A43426084614A6806
:102DBC004263036230BDC046002C0140004001401C
:102DCC000044014000480140FFFCFFFF30B5036A9E
:102DDC00184A13400362046A4268C3697325AB4303
:102DEC000D681D43144B1C408B681B022343134C72
:102DFC00A04209D0124CA0420DD0124CA0420AD0D5
:102E0C00114CA0420FD106E0104C1C40CB681B02A9
:102E1C0023430F4C23400F4C22404C692401144394
:102E2C008A69120122434260C5614A68C263036227
:102E3C0030BDC046FFFEFFFFFFFDFFFF002C014031
:102E4C00004001400044014000480140FFF7FFFFF3
:102E5C00FFFBFFFFFFCFFFFF30B5036A134A1340A0
:102E6C000362046A4368C269114D2A400D682D0241
:102E7C001543104A14408A68120322430E4CA04298
:102E8C0008D00E4CA04205D00D4CA04202D00D4CE7
:102E9C00A04204D10C4C1C404B699B012343436062
:102EAC00C5614B680364026230BDC046FFEFFFFF93
:102EBC00FF8CFFFFFFDFFFFF002C014000400140B3
:102ECC000044014000480140FFBFFFFF03681D4A5A
:102EDC00904202D01C4A904203D1702293434A681C
:102EEC001343184A90420ED0174A90420BD0174AFF
:102EFC00904208D0164A904205D0164A904202D011
:102F0C00154A904203D1154A1A40CB6813438022CC
:102F1C0093434A69134303608B68C3620B688362F3
:102F2C00084B984208D00A4B984205D0094B98425E
:102F3C0002D0094B984201D10B6903630123436111
:102F4C007047C046002C01400004004000200040A7
:102F5C00004001400044014000480140FFFCFFFFDD
:102F6C0070B5041E26D03D23C35C002B1CD03D2520
:102F7C0002236355210001C9FFF7A8FF0123462254
:102F8C00A354083AA3540132A3540132A35401327E
:102F9C00A3540132A3540132A3540132A35401327D
:102FAC00A3546355002070BD3C330022C254FEF77D
:102FBC00B9F8DCE70120F6E770B5041E26D03D23F6
:102FCC00C35C002B1CD03D2502236355210001C995
:102FDC00FFF77CFF01234622A354083AA354013285
:102FEC00A3540132A3540132A3540132A35401322D
:102FFC00A3540132A3540132A3546355002070BD75
:10300C003C330022C254FEF777F8DCE70120F6E7E8
:10301C0070B5036A102293430362026A44688369A1
:10302C00164D2B400D682D021D4320239A438B68AF
:10303C001B011343124A904209D0124A90420ED0FF
:10304C00114A90420BD0114A904210D107E08022D5
:10305C0093431E00CB681B013343403A93430C4A05
:10306C0014404A69920022438C69A40014434460C2
:10307C0085614A688263036270BDC046FF8CFFFFA6
:10308C00002C014000400140004401400048014038
:10309C00FFF3FFFF70B504000D003C23C35C012B54
:1030AC0000D16AE03C230121C154082A50D01CD81D
:1030BC00002A38D0042A16D100682900FFF7A8FF8F
:1030CC002268916980231B010B43936122689369E9
:1030DC002B490B40936121688B692A6912021343B7
:1030EC008B6100201BE0080019E00C2A16D1006847
:1030FC002900FFF7B1FE2268D16980231B010B4325
:10310C00D3612268D3691E490B40D3612168CB6916
:10311C002A6912021343CB61002000E001203C23FA
:10312C000022E25470BD00682900FFF709FE2268F6
:10313C00936908210B4393612268936904398B438B
:10314C0093612268936929690B4393610020E6E738
:10315C0000682900FFF73AFE2268D36908210B4367
:10316C00D3612268D36904398B43D3612268D36954
:10317C0029690B43D3610020D1E70220D2E7C04676
:10318C00FFFBFFFF30B53C23C35C012B24D03C2359
:10319C000122C25401330132C25403685C689D6839
:1031AC006E3294430A6822435A6003680B4A934276
:1031BC0005D00B4A934202D00A4A934204D1802292
:1031CC0095434A682A439A603D230122C254013B2D
:1031DC000022C254002030BD0220FCE7002C01402C
:1031EC00000400400040014010B53C23C35C012B9F
:1031FC0021D03C2201238354CB68104C23408C6893
:10320C0023430F4C23404C6823430E4C23400C6843
:10321C0023430D4C23400C6923430C4C23404C6935
:10322C0023430B4C2340C9690B4301684B640023B7
:10323C008354002010BD0220FCE7C046FFFCFFFFBA
:10324C00FFFBFFFFFFF7FFFFFFEFFFFFFFDFFFFFBE
:10325C00FFBFFFFF10B5EFF3108C012282F3108833
:10326C0001680B68124C23400B608CF31088EFF351
:10327C00108C82F3108801688B6893438B608CF3FD
:10328C001088036E012B06D080232022C25000230D
:10329C000366836610BDEFF3108183F31088026818
:1032AC0013683234FF34A343136081F31088EBE7C7
:1032BC00DFFEFFFF10B50400836802691343426907
:1032CC001343C269134301680A6857480240134309
:1032DC000B602268536855490B40E1680B435360FF
:1032EC00A369226A1A4321688B685148034013432F
:1032FC008B6023684F4A934210D04F4A934245D07B
:10330C004E4A934244D04E4A934243D04D4A934244
:10331C0042D04D4A93422FD010230BE04B4B1A6BEB
:10332C0003231340022B29D022D8002B28D0012BA9
:10333C0028D10333E0698022120290422ED0042B54
:10334C0000D16AE059D8002B61D0022B53D14048F0
:10335C0061684B081818FCF7ABFE0200103A3D4BA5
:10336C009A425FD823680004000CD86000204AE021
:10337C00032B09D1013BDDE70023DBE70823D9E769
:10338C000023D7E71023D5E71023D3E70023D1E799
:10339C000023CFE70023CDE70023CBE7042B27D076
:1033AC001CD8002B1ED0022B16D129484000616876
:1033BC004B08C018FCF77CFE0200103A254B9A42D1
:1033CC002ED882B20F239A434008083B0340134384
:1033DC002268D360002016E0012014E0082BE5D011
:1033EC00012010E0FFF710F80028DFD100200AE0E0
:1033FC00FEF73EFFF8E7012005E0082B02D1802004
:10340C000002A5E701200023A366E36610BDFEF7CA
:10341C00FBFF00289CD10020F5E7FEF729FFF8E719
:10342C000120F0E70120EEE7F369FFEFFFCFFFFF8C
:10343C00FFF4FFFF0038014000440040004800400A
:10344C00004C0040005000400014014000100240AD
:10345C0000127A00EFFF0000436ADB0706D5026812
:10346C0053682C490B40816A0B435360436A9B079A
:10347C0006D50268536828490B40C16A0B43536058
:10348C00436A5B0706D50268536824490B40016BFD
:10349C000B435360436A1B0706D5026853682049E7
:1034AC000B40416B0B435360436ADB0606D5026845
:1034BC0093681C490B40816B0B439360436A9B06DA
:1034CC0006D50268936818490B40C16B0B43936097
:1034DC00436A5B060BD50268536814490B40016CB8
:1034EC000B435360026C80235B039A420AD0436AFD
:1034FC001B0606D5026853680D490B40816C0B43C3
:10350C0053607047026853680A490B40416C0B4387
:10351C005360ECE7FFFFFDFFFFFFFEFFFFFFFBFF2C
:10352C00FF7FFFFFFFEFFFFFFFDFFFFFFFFFEFFF5F
:10353C00FFFFF7FFFFFF9FFFF8B5CE46474680B56C
:10354C0006000D0017009946089B98463368DC6905
:10355C002C40641B63425C41BC422FD14346013377
:10356C00F4D0FDF7DFFE4B46C01A40452BD843463E
:10357C00002B2AD033681A685207E7D5DA6912078C
:10358C0010D4DA691205E1D5802212011A623000DA
:10359C00FFF760FE84232022F2500C3B0022F254F1
:1035AC0003200CE008241C623000FFF753FE842338
:1035BC00F4500C3B0022F254012000E00020C0BC6F
:1035CC00B946B046F8BD0320F9E70320F7E7000041
:1035DC0030B583B0040084230022C250FDF7A2FE54
:1035EC00050023681B681B070FD423681B685B0747
:1035FC0029D42023E3678022A3500023236663662B
:10360C00083AA354002003B030BD8021224B009314
:10361C000300002289032000FFF78EFF0028E4D06E
:10362C00EFF31081012383F3108822681368802044
:10363C008343136081F310882023E36758330022FF
:10364C00E2547D38DFE78021134B00932B000022DE
:10365C00C9032000FFF770FF0028CAD0EFF31080D9
:10366C00012282F3108821680B680C4D2B400B60F3
:10367C0080F31088EFF3108082F3108821688B6838
:10368C0093438B6080F3108880231F32E250083BF9
:10369C000022E2540320B6E7FFFFFF01DFFEFFFF2D
:1036AC0010B5041E2ED0C36F002B21D02423E3674A
:1036BC002268136801218B4313602000FFF7FAFD89
:1036CC00012814D0636A002B18D1226853680E4964
:1036DC000B4053602268936808218B4393602268E7
:1036EC00136807390B4313602000FFF771FF10BDFF
:1036FC0078330022C254FDF76FFDD7E72000FFF7A7
:10370C00ABFEE2E70120F2E7FFF7FFFF0D4885462D
:10371C00FDF7C2FD0C480D490D4A002302E0D458B8
:10372C00C4500433C4188C42F9D30A4A0A4C0023FF
:10373C0001E013600432A242FBD300F0FBF8FDF76A
:10374C0073FAFEE700800020000000205C2A0020B5
:10375C003C4100085C2A0020D02E0020FEE700002F
:10376C0010B5034B0100186800F026F810BDC046D8
:10377C000C2A002070B50F4E0D0031680400002992
:10378C0002D100F0C5F830602900200000F0C0F82C
:10379C00431C03D101256D42280070BD0323C51CB9
:1037AC009D43A842F8D0291A200000F0B1F801304E
:1037BC00F2D1EFE7842D0020F7B50322CB1C934305
:1037CC00083305001F000C2B34D20C27B94233D818
:1037DC00280000F071F8374E33681C00002C2FD1F4
:1037EC0039002800FFF7C6FF0400431C5FD1346882
:1037FC000094009B002B4AD1002C52D02368280047
:10380C00E3180099019300F083F8019B834248D19F
:10381C0023682800FF1A3900FFF7ACFF013040D0B5
:10382C002368DB19236033685A68002A33D1009B64
:10383C00336019E0002BC9DA0C232B600020FEBD8D
:10384C002168C91B20D40B290AD9E2192760A3428D
:10385C0004D1326063681160536005E05A60F9E787
:10386C006268A3420ED13260280000F02DF82000CF
:10387C0007220B30231D9043C21A9842DFD01B1A2B
:10388C00A350DCE75A60EFE723006468A6E7009CCE
:10389C0063680093ADE71A005B68A342FBD1002379
:1038AC00DAE70C2328002B6000F00EF8C6E707605F
:1038BC00DAE7C046882D002010B5024800F05EF80B
:1038CC0010BDC046C82E002010B5024800F057F8B5
:1038DC0010BDC046C82E002010B5884206D8002363
:1038EC009A4208D0CC5CC4540133F9E78B18984247
:1038FC00F5D2013A00D210BD8B5C8354F9E703007A
:10390C008218934200D1704719700133F9E7000017
:10391C00002370B5064D040008002B6000F03AF847
:10392C00431C03D12B68002B00D0236070BDC04614
:10393C00C42E002070B500260C4C0D4D641BA41039
:10394C00A64209D1002600F0BDF90A4C0A4D641BB1
:10395C00A410A64205D170BDB300EB5898470136B0
:10396C00EEE7B300EB5898470136F2E73441000814
:10397C003441000838410008344100087047704752
:10398C00002310B59A4200D110BDCC5CC454013355
:10399C00F8E70000044A03001068002802D0C3189E
:1039AC00136070470148FAE7CC2E0020D02E00207F
:1039BC00F0B54F464646D64643025B0A4500C0B5B5
:1039CC0099460F1C2D0EC60F002D00D188E0FF2D3F
:1039DC0000D18DE08022DB00D2041A4300239146F3
:1039EC0098469A467F3D7C027B00640A1B0EFF0FB3
:1039FC00002B68D0FF2B21D08022E400D20414438A
:103A0C0042467F3B5B1900215D1C0A2A2EDC7E405E
:103A1C004246022A23DC013A012A00D9BDE00229E0
:103A2C006ED001292CD100200022C005F6071043CE
:103A3C003043E0BCBA46B146A846F0BD2B00FF337C
:103A4C00002C65D0032241461143320001358846D3
:103A5C007A40FF350A2900DDD8E0160003214046E4
:103A6C0001228240A620C000024220D05346022BE5
:103A7C0046D0032B00D1BBE051464C460129D2D095
:103A8C002B007F33002B70DD620704D00F22224005
:103A9C00042A00D00434220103D5634B1C402B00B4
:103AAC008033FE2B2CDCA201520AD8B2BDE7902049
:103ABC008000024227D1B938FF3810426DD03E0049
:103ACC00A1468A46D2E7002C41D1012342461A4333
:103ADC0090462B00424601215D1C0A2A97DDC5E762
:103AEC00002B26D104239846033B00259A467AE7FF
:103AFC00002B18D108239846063BFF259A4672E7FF
:103B0C00FF20002291E780220026FF20D2038CE7C1
:103B1C0041460222013511438846FF350A29A5DCAE
:103B2C0002217E4074E70C239846093BFF259A46F8
:103B3C0059E71800FCF748FB4A46431F76259A4084
:103B4C0000236D42914698469A462D1A4BE7200069
:103B5C00FCF73AFB4246431F9C402B1A763B002154
:103B6C005D1C0A2A00DC52E780E70122D31A1B2BCA
:103B7C0000DD58E79E352200AC40DA40631E9C41C4
:103B8C002243530704D00F231340042B00D00432DC
:103B9C00530137D50120002247E7210C4A46240463
:103BAC00240C2700100C1204120C444357434843B6
:103BBC0051433A0C09195218944203D980214902F5
:103BCC008C4660443F0411043F0CC9198C01671EDC
:103BDC00BC41120C890E12180C43920114431201B1
:103BEC000ED5012362081C40144349E73E00A14650
:103BFC0080224B46D2031A435202FF20520A14E78A
:103C0C001D003DE792010020520A0EE70F29EDD16D
:103C1C0080224B46D2031342EAD01442E8D13E0034
:103C2C00FF20224301E7C046FFFFFFF770B50028D5
:103C3C0013D0C317C5185D40C40F2800FCF7C4FA95
:103C4C009E2301001B1A962B0FDC082834D0083950
:103C5C008D406D026D0AD8B202E0002400200025D0
:103C6C00C0052843E407204370BD992B16DC421F86
:103C7C00052800D095402A00114802406E0709D053
:103C8C000F263540042D05D00432550102D59F2353
:103C9C0002405B1A9201550AD8B2E1E70522121ACA
:103CAC002800D040020008001B3085402800451E2B
:103CBC00A84102431500DEE76D0296206D0ACFE79E
:103CCC00FFFFFFFBF8B5C046F8BC08BC9E4670472A
:0C3CDC00F8B5C046F8BC08BC9E46704716
:103CE80000000000000000000000000000000000CC
:103CF8000000000000000000010410080006010098
:103D08000000000000000000010410080402010087
:103D180000080000000000000106100804038300EA
:103D28000018000000000000010210080600020050
:103D3800101830006C2000000102100803000E006B
:103D480018283038EE6000000182100C01C1F8001C
:103D58001C68786CAAE300000080000000010000E5
:103D680016484845ABA7800000C00000001D0000B1
:103D780013C8484729A480000063877BFFE7000039
:103D880010088C4629248000003000000002000042
:103D9800100884462824C00000100000000200001B
:103DA8001008844028244000001000000002000091
:103DB800100884402827F0000010000000020000CE
:103DC8001009FE40282440000010000000020000F6
:103DD80010090240282C40000010000000020000DA
:103DE80010090240282840000410000000060000C6
:103DF80010090340282800000418001FFFE40000F1
:103E08001000000000200000040FFFF0003E00003A
:103E1800000000000000310004080000000300005A
:103E28000000000000003111C4180000000100006B
:103E38000000000000003B11441000000001800059
:103E48000000000000002F11641000000000800036
:103E58000000000007C021132410000000008000AB
:103E6800000000001C40211224301F001F008000A9
:103E7800000000003040211220207F801F80800039
:103E88000000000020402113E0207FC03FC08000D8
:103E98000000000020C0211620207F403F40800005
:103EA800000000002080000424207E407E60800006
:103EB8000000003C6180000024203E601FC080009C
:103EC8000000006441000000002003E000008000C2
:103ED80000000044430000000020000000008000B3
:103EE800000000C442000000002000100000800014
:103EF80000000084420000000020001080008000C4
:103F08000000008442000000002000300000800013
:103F18000000008442000000002000200001800012
:103F2800000000844200000000207C207FFD00008B
:103F380000000084420000000021FFF07FFF000025
:103F4800000000C4C203F8000027FFF8FFFF0F803D
:103F580000000046820E0C00003FFFFCF81F0FC057
:103F68000000004282180601C01FFFFFF00F8CE01E
:103F7800000001E383300207E03C003FE007806077
:103F880000000361C1E0030E70B8001FE783C06042
:103F980000000271C0C3E0CC30FC0016FC83C06096
:103FA80000000250E006304C01E601C1C182E0E0A9
:103FB800000002786004184C03E200FE03047FE06E
:103FC8000000022C000C0FCE03C300600E0C3FC093
:103FD80000000336000819870FC1803838083F8071
:103FE8000000011F00001887FF80800FE018000004
:103FF8000000018000003083FF00C0000030000096
:10400800000000C0001FE081FC00600000600000AC
:1040180000000060000003800000380001E000009C
:10402800000000303000060000002F0003300000C0
:104038000000001810000C00000061E01E100000D5
:104048000000000C180018000000E03FF018000005
:10405800000000030C0030000007B007003C00001F
:10406800000000018600E000001D180780660000BF
:1040780000000000C38F800000F00E0FE1C30000B5
:104088000000000040040000038103C837018000DD
:1040980000000000700400000E000078FC00C00062
:1040A80000000000580400000800000180006000C3
:1040B800000000004FDC0000380000030000200072
:1040C8000000000040040000E00000030000300091
:1040D80000AED580A83FD300408D142000A1C8DAD7
:1040E8001281CFD9F1DB40A4A6AF00002020202008
:1040F800202000000000000001020304000000006E
:104108000000000001020304060708090102030475
:1041180005060708090A0B0C0D0E0F10020304050B
:0C412800060708090A0B0C0D0E0F101002
:044134003902000844
:044138001102000868
:10413C00C0FFC0FFC0FFC0FFC0FFC0FFC0FFC0FF7B
:10414C00C0FFC0FFC0FFC0FFC0FFC0FF0000001ECB
:10415C000021804040B340B34080408040A1409E4D
:10416C0080400021001E00000000001E003F807FE8
:10417C00C0CCC0CCC0FFC0FFC0DEC0E1807F003F20
:10418C00001E000000008061C0F3C0FFC0FFC0FF34
:10419C00C0FF807F807F003F003F001E000C0000AE
:1041AC0000000000000C001E003F807FC0FFC0FF1D
:1041BC00807F003F001E000C000000000000000C7F
:1041CC00001E001E001E806DC0FFC0FFC0FF806D72
:1041DC00000C001E003F00000000000C001E003F01
:1041EC00003F807F807FC0FFC0FFC0FF806D001E3E
:1041FC00003F0000000000000000001E003F807F18
:10420C00807F807F807F003F001E00000000000048
:10421C00C0FFC0FFC0FFC0E1C0C070807080708064
:10422C007080C0C0C0E1C0FFC0FFC0FF0000000034
:10423C000000001E00218040804080408040002112
:10424C00001E000000000000C0FFC0FFC0FFC0E166
:10425C00C0DE70BF70BF70BF70BFC0DEC0E1C0FFFA
:10426C00C0FFC0FF0000C003C0004001403E004240
:10427C0000810081008100810042403E000000006E
:10428C0000000000001C00220041004100410022FF
:10429C00001C00080008003E00080000000000049C
:1042AC00000600060005000580048004003C004464
:1042BC0000440044003800000000C000C00140036E
:1042CC004006800CC00B400C807C808C808B00885E
:1042DC000070000000000000000000080049003ED3
:1042EC00002280E30022003E00490008000000008C
:1042FC000000002000300030003C003E003F003F3A
:10430C00003E003C0038003000200000000000019E
:10431C0000030007000F001F003F003F001F000FAD
:10432C000007000300010000000000000008001C52
:10433C00002A0008000800080008002A001C0008D9
:10434C000000000000000000001200120012001219
:10435C0000120012001200120000001200000000F7
:10436C00000000000033003300330033003300330F
:10437C000033003300330033000000000000000065
:10438C0000080008004980888088808880808080B0
:10439C000041003E00000000000000008007000605
:1043AC000045808480808080808080800041003E39
:1043BC0000000000000000000008001C002A00089B
:1043CC0000080008002A001C0008003E0000000045
:1043DC00000000000008001C002A0008000800086B
:1043EC0000080008000800080000000000000000A1
:1043FC000008000800080008000800080008002A4F
:10440C00001C00080000000000000000000000007C
:10441C0000020001807F000100020000000000008B
:10442C00000000000000000000000000000100027D
:10443C00807F00020001000000000000000000006E
:10444C0000000040004000400040004000400040A0
:10445C000040004000400040807F00000000000051
:10446C000000000020010021807F002100120000CC
:10447C000000000000000000000000000000000030
:10448C00000CE001003F807FC0FFC0FF0000000077
:10449C00000000000000000000000000C0FFC0FF92
:1044AC00807F003FE001000C0000000000000000D5
:1044BC0000000000000000000000000000000000F0
:1044CC0000000000000000000000000000000000E0
:1044DC000008000800080008000800080008000890
:1044EC000000000800000000001200120012001270
:1044FC0000000000000000000000000000000000B0
:10450C000000000000000000000000120012807F7C
:10451C0000120012807F0012001200000000000048
:10452C00000000080008003F00480048003C000A5A
:10453C0000090009007E00080008000000000000CF
:10454C00007080880089008A007400080017802899
:10455C0080488088000700000000001C00440044D4
:10456C0000440044001C00380048408480820081D4
:10457C008042403C000800080008000800000000D1
:10458C00000000000000000000000000000000001F
:10459C000006000800100010002000200020002061
:1045AC000020002000100010000800060018000475
:1045BC0000020002000100010001000100010001E5
:1045CC0000020002000400180000002A001C003E3B
:1045DC00001C002A00000000000000000000000089
:1045EC0000000000000000000000000800080008A7
:1045FC00007F000800080008000000000000000018
:10460C00000000000000000000000000000000009E
:10461C00000000000000000400040008000000007E
:10462C000000000000000000007F000000000000FF
:10463C00000000000000000000000000000000006E
:10464C00000000000000000000000000000000005E
:10465C00000C000C0000800080000001000200042F
:10466C0000040008001000100020000400040000EA
:10467C000000003E004180808081808280848088A0
:10468C00809080A080C080800041003E0000000827
:10469C0000180028004800880008000800080008DE
:1046AC0000080008000880FF0000003E00418080E8
:1046BC00808080000001000200040008001000202F
:1046CC00004080FF0000003E004180808080800020
:1046DC000001000E00018000808080800041003EBF
:1046EC00000000020006000A0012002200420082B4
:1046FC0080FF00020002000200020002000080FFA6
:10470C000080008000800080007E0001800080001E
:10471C00808080800041003E0000003F804000808F
:10472C000080008000BE00C18080808080808080FE
:10473C000041003E000000FF80008000800000016E
:10474C000002000400080008000800080008000827
:10475C000000003E00418080808080800041003E4F
:10476C0000418080808080800041003E0000003E3F
:10477C00004180808080808080808041803E8000ED
:10478C00800080000081007E00000000000000001E
:10479C0000180018000000000000000000180018AD
:1047AC0000000000000000000000000000180018CD
:1047BC00000000000000001800180008000800109D
:1047CC00000000000002000400080010002000405F
:1047DC00002000100008000400020000000000008F
:1047EC00000000000000007F00000000007F0000BF
:1047FC00000000000000000000000000004000204D
:10480C000010000800040002000400080010002042
:10481C0000400000003E004180808080800000014C
:10482C000002000400080008000800000000000856
:10483C00003E00418080408040804080408E40920D
:10484C0040A240A24092808F0040003F003F804039
:10485C0040804080408040804080C0FF408040804D
:10486C00408040804080408000FF808040804080BD
:10487C004080808080FF80804080408040804080ED
:10488C00808000FF803F40400080008000800080DE
:10489C000080008000800080008000804040803FCD
:1048AC0000FE0081808040804080408040804080BD
:1048BC004080408040804080808000FFC07F00802E
:1048CC000080008000800080007C008000800080E0
:1048DC00008000800080C07FC07F0080008000804E
:1048EC0000800080007C00800080008000800080C0
:1048FC0000800080003F804040800080008000806D
:10490C000080C08F40804080408040808040003FCD
:10491C00408040804080408040804080807F40804C
:10492C00408040804080408040804080007F000874
:10493C00000800080008000800080008000800082B
:10494C00000800080008007FC0FF000200020002FF
:10495C0000020002000200020002008200820082BB
:10496C0000440038008100810081008200840088AE
:10497C0000F00088008400820081808040804080AC
:10498C00008000800080008000800080008000801B
:10499C0000800080008000800080C0FF4080C0C08C
:1049AC0040A140A140924092408C40804080408089
:1049BC0040804080408040804080408040C040A08B
:1049CC0040904088408440824081C080408040803C
:1049DC0040804080003F804040804080408040804C
:1049EC004080408040804080408040808040003F3C
:1049FC0000FF80804080408040804080808000FFAD
:104A0C00008000800080008000800080003F80409B
:104A1C004080408040804080408040804080408882
:104A2C008048003F0004C00300FF8080408040802D
:104A3C0040804080808000FF0088008400820081DC
:104A4C0080804080C03F004000800080008000409B
:104A5C00003800078000400040004000800000FF4C
:104A6C0080FF000800080008000800080008000883
:104A7C00000800080008000800080008408040807A
:104A8C00408040804080408040804080408040801A
:104A9C00408040808040003F40804080408040808B
:104AAC004080408040804080408080400021002138
:104ABC000012000C4080408040804080408040804C
:104ACC0040804080408040804080408C805200215B
:104ADC00408040804080804000210012000C000C7F
:104AEC000012002180404080408040808080808087
:104AFC00808080800041002200140008000800081B
:104B0C00000800080008007FC0FF40004000800043
:104B1C00000100020004000800100020004000808A
:104B2C000080C0FF003F002000200020002000205B
:104B3C000020002000200020002000200020003F4A
:104B4C00000000400040002000100010000800048D
:104B5C00000200020001800080000000003F000104
:104B6C000001000100010001000100010001000131
:104B7C00000100010001003F000C001200210000A8
:104B8C000000000000000000000000000000000019
:104B9C000000000000000000000000000000000009
:104BAC000000000000000000000000000000807FFA
:104BBC0000080008000800080000000000000000C9
:104BCC0000000000000000000000000000000000D9
:104BDC0000000000003E00418000803E804180804B
:104BEC00808080800041003E00800080008000803A
:104BFC0000BE00C18080808080808080808080802A
:104C0C000041003E0000000000000000003F00409A
:104C1C000080008000800080008000800040003F09
:104C2C008000800080008000803E804180808080F9
:104C3C0080808080808080800041003E00000000E9
:104C4C0000000000003E004180808080808000C118
:104C5C0000BE00808040003F0006000980108010DC
:104C6C000010007C0010001000100010001000104C
:104C7C000010007C0000000000000000803E80411D
:104C8C008080808080808041803E80000041003E9A
:104C9C000080008000800080009E00A180C0808089
:104CAC0080808080808080808080808000000000F8
:104CBC000000000000080000000000380008000898
:104CCC00000800080008003E000000000000000082
:104CDC0000020000003E00020002000200420042FE
:104CEC00002200180080008000800080008100827B
:104CFC0000840088009000F800840082008180808D
:104D0C00000000380008000800080008000800082F
:104D1C0000080008000800080008003E0000000021
:104D2C0000000000003600498088808880888080E0
:104D3C008080808080808080000000000000000067
:104D4C00009E00A180C080808080808080808080D8
:104D5C00808080800000000000000000003E0041C8
:104D6C008080808080808080808080800041003EB8
:104D7C00000000000000000000BE00C180808080A8
:104D8C00808000C100BE0080008000800000000018
:104D9C0000000000803E80418080808080808041C7
:104DAC00803E8000800080000000000000000000B9
:104DBC008027402840100010001000100010001038
:104DCC000010007C0000000000000000803F00404C
:104DDC00008000800078000F80008000000100FE41
:104DEC000000000000080018807F00080008000880
:104DFC000008000800080008000800070000000078
:104E0C000000000080808080808080808080808096
:104E1C00808080800041003E000000000000000007
:104E2C008080808080808080808080800041002213
:104E3C00001400080000000000000000808080804A
:104E4C0080808080808080888088808800550022C7
:104E5C0000000000000000008080808000410022E3
:104E6C00001C001C0022004180808080000000009B
:104E7C0000000000808080800041002200140008A7
:104E8C00000800080008007000000000000000008E
:104E9C0080FF800000010002000400180020004088
:104EAC00008080FF000E0010001000200020002069
:104EBC000040004000200020002000100010000ED8
:104ECC000008000800080008000800080008000896
:104EDC00000800080008000800080008001C000278
:104EEC0000020001000100018000800000010001AF
:104EFC00000100020002001C000000000000000085
:104F0C000000807080880087000000000000000016
:104F1C000000000000780080008000800080007895
:104F2C000020000000000000000000000000000055
:104F3C00005000000088008800880098006800007D
:104F4C000000000000000000000000000010002025
:104F5C000070008800F0008000700000000000006D
:104F6C00000000000000000000200050007000084D
:104F7C0000780088007000000000000000000000B5
:104F8C00000000000050000000700008007800884D
:104F9C000070000000000000000000000000000095
:104FAC0000400020007000080078008800700000AD
:104FBC0000000000000000000000000000200000C5
:104FCC0000700008007800880070000000000000ED
:104FDC0000000000000000000000000000780080CD
:104FEC00008000780020000000000000000000009D
:104FFC0000000000002000500070008800F00080CD
:10500C000070000000000000000000000000000024
:10501C00005000000070008800F00080007000005C
:10502C000000000000000000000000000040002014
:10503C000070008800F0008000700000000000008C
:10504C0000000000000000000050000000000060A4
:10505C000020002000700000000000000000000094
:10506C000000000000200050000000600020002024
:10507C0000700000000000000000000000000000B4
:10508C0000400020000000600020002000700000A4
:10509C0000000000000000000000000000500000B4
:1050AC000070008800F800880088000000000000F4
:1050BC0000000000000000000020000000700088CC
:1050CC0000F80088008800000000000000000000CC
:1050DC00000000000010002000F8008000F00080AC
:1050EC0000F80000000000000000000000000000BC
:1050FC000000000000D00028007000A00058000044
:10510C00000000000000000000000000007800A07B
:10511C0000A000F800A000A000B8000000000000F3
:10512C00000000000000000000200050007000880B
:10513C0000880088007000000000000000000000E3
:10514C0000000000005000000070008800880088FB
:10515C0000700000000000000000000000000000D3
:10516C00004000200070008800880088007000005B
:10517C0000000000000000000000000000200050B3
:10518C00008800880088009800680000000000007B
:10519C000000000000000000004000200088008893
:1051AC00008800980068000000000000000000006B
:1051BC00000000000050000000880050002000207B
:1051CC0000C0000000000000000000000000000013
:1051DC000050007000880088008800880070000073
:1051EC0000000000000000000000000000500088DB
:1051FC000088008800880088007000000000000013
:10520C00000000000000000000000000007000988A
:10521C0000A800C8007000000000000000000000A2
:10522C000000000000300040002000F00040008032
:10523C0000F800000000000000000000000000006A
:10524C0000700088009800A800C80088007000005A
:10525C0000000000000000000000000000500020D2
:10526C0000500000000000000000000000000000E2
:10527C00000000000000000000180020002000705A
:10528C000020002000C00000000000000000000012
:10529C00000000000010002000700008007800885A
:1052AC000070000000000000000000000000000082
:1052BC0000100020000000600020002000700000A2
:1052CC0000000000000000000000000000100020A2
:1052DC00007000880088008800700000000000004A
:1052EC000000000000000000001000200088008872
:1052FC00008800980068000000000000000000001A
:10530C00000000000028005000B000C80088008891
:10531C0000880000000000000000000000000000F9
:10532C0000280050008800C800A8009800880000E1
:10533C0000000000000000000000000000600010F1
:10534C0000300050002000000000000000000000B1
:10535C0000000000000000000020005000200000B1
:10536C000000000000000000000000000000000031
:10537C0000000000002000000020002000900090A1
:10538C0000600000000000000000000000000000B1
:10539C000000007000A800B800A800700000000019
:1053AC0000000000000000000000000000000000F1
:1053BC00000000F8000800000000000000000000E1
:1053CC000000000000000000000000480010002059
:1053DC0000480088000000000000000000000000F1
:1053EC000000000000000048001000200058009849
:1053FC0000000000000000000000000000000000A1
:10540C000000000000200000002000200020000010
:10541C000000000000000000000000000000002858
:10542C00005000A000500028000000000000000008
:10543C000000000000000000000000A00050002848
:10544C00005000A000000000000000000000000060
:10545C000000000000A8005000A8005000A8005058
:10546C0000A8000000000000000000000000000088
:10547C0000F80000000000F80000000000F8000038
:10548C0000000000000000000000000000F8000018
:10549C0000F8000000F8000000F800000000000018
:1054AC000000000000000000002000200020002070
:1054BC000020002000200000000000000000000080
:1054CC000000000000200020002000E00020002050
:1054DC0000200000000000000000000000000000A0
:1054EC00001000200070008800F800880088000080
:1054FC000000000000000000000000000020005030
:10550C000070008800F8008800880000000000008F
:10551C000000000000000000004000200070008827
:10552C0000F8008800880000000000000000000067
:10553C00000000000000007000A800C800A8007067
:10554C00000000000000000000000000000000004F
:10555C000050005000D0001000D00050005000004F
:10556C00000000000000000000000000005000508F
:10557C00005000500050005000500000000000008F
:10558C0000000000000000000000000000F000100F
:10559C0000D000500050000000000000000000008F
:1055AC00000000000050005000D0000100F000008E
:1055BC0000000000000000000000000000000000DF
:1055CC00000200780080008000800078002000003D
:1055DC00000000000000000000000000005000501F
:1055EC00002000700020007000200000000000006F
:1055FC00000000000000000000000000000000E0BF
:10560C00002000200020000000000000000000002E
:10561C0000000000002000200020003800000000E6
:10562C00000000000000000000000000000000006E
:10563C0000200020002000F8000000000000000006
:10564C00000000000000000000000000000000004E
:10565C00000000F8002000200020000000000000E6
:10566C000000000000000000002000200020003896
:10567C0000200020002000000000000000000000BE
:10568C000000000000000000000000F80000000016
:10569C0000000000000000000000000000000000FE
:1056AC0000200020002000F8002000200020000036
:1056BC000000000000000000000000000028005066
:1056CC0000700008007800880070000000000000E6
:1056DC00000000000000000000280050007000884E
:1056EC0000F80088008800000000000000000000A6
:1056FC0000000000005000500058004000780000EE
:10570C00000000000000000000000000000000008D
:10571C0000000000007800400058005000500000CD
:10572C0000000000000000000000000000500050CD
:10573C0000D8000000F8000000000000000000008D
:10574C0000000000000000000000000000F8000055
:10575C0000D80050005000000000000000000000C5
:10576C00000000000050005000580040005800504D
:10577C0000500000000000000000000000000000CD
:10578C000000000000F8000000F80000000000001D
:10579C00000000000000000000000000005000505D
:1057AC0000D8000000D8005000500000000000009D
:1057BC00000000000000000000F80050005000F84D
:1057CC0000000000000000000000000000000000CD
:1057DC000000000000500020007000880088008845
:1057EC00007000000000000000000000000000003D
:1057FC0000700048004800E80048004800700000B5
:10580C00000000000000000000000000002000501C
:10581C0000F8008000F0008000F80000000000009C
:10582C0000000000000000000050000000F80080A4
:10583C0000F0008000F800000000000000000000F4
:10584C00000000000040002000F8008000F0008004
:10585C0000F8000000000000000000000000000044
:10586C00000000000000006000200020007000001C
:10587C0000000000000000000000000000100020EC
:10588C0000F800200020002000F8000000000000BC
:10589C0000000000000000000020005000F8002074
:1058AC000020002000F800000000000000000000B4
:1058BC00000000000050000000F800200020002034
:1058CC0000F80000000000000000000000000000D4
:1058DC0000200020002000E000000000000000007C
:1058EC0000000000000000000000000000000000AC
:1058FC000000003800200020002000000000000004
:10590C00000000000000000000F800F800F800F8AB
:10591C0000F800F800F80000000000000000000093
:10592C0000000000000000000000000000F800F87B
:10593C0000F8000000000000000000000000000063
:10594C0000000020002000000020002000000000CB
:10595C00000000000000000000000000000000003B
:10596C0000F800F800F80000000000000000000043
:10597C00000000000000000000F800F800F800F83B
:10598C00000000000000000000000000000000000B
:10599C0000000000001000200078008800880088BB
:1059AC00007000000000000000000000000000007B
:1059BC0000E0009000E000900088008800F00000FB
:1059CC00000000000000000000000000002000505B
:1059DC00007800880088008800700000000000003B
:1059EC00000000000000000000400020007800884B
:1059FC00008800880070000000000000000000001B
:105A0C000000000000280050007800880088008802
:105A1C00007000000000000000000000000000000A
:105A2C000028005000780088008800880070000072
:105A3C00000000000000000000000000000000005A
:105A4C000088008800C800B0008000000000000042
:105A5C00000000000000000000C00050006800685A
:105A6C000050004000E000000000000000000000BA
:105A7C000000000000E00040007000480070004092
:105A8C0000E000000000000000000000000000002A
:105A9C00001000A8008800880088008800700000B2
:105AAC00000000000000000000000000002000507A
:105ABC00008800880088008800700000000000004A
