:020000040800F2
:100000000080002035240008DD0A0008DF0A00080F
:1000100000000000000000000000000000000000E0
:10002000000000000000000000000000E10A0008DD
:100030000000000000000000E30A0008E50A0008D4
:10004000852400080000000085240008852400089D
:1000500085240008852400088524000885240008DC
:10006000000000008524000885240008852400087D
:10007000852400088524000885240008000000006D
:1000800085240008852400088524000885240008AC
:10009000852400088524000885240008852400089C
:1000A000852400088524000885240008852400088C
:0C00B000852400088524000800000000E2
:1000BC00002243088B4274D303098B425FD3030A9B
:1000CC008B4244D3030B8B4228D3030C8B420DD3AE
:1000DC00FF22090212BA030C8B4202D3121209023C
:1000EC0065D0030B8B4219D300E0090AC30B8B427A
:1000FC0001D3CB03C01A5241830B8B4201D38B0328
:10010C00C01A5241430B8B4201D34B03C01A5241CC
:10011C00030B8B4201D30B03C01A5241C30A8B420F
:10012C0001D3CB02C01A5241830A8B4201D38B02FA
:10013C00C01A5241430A8B4201D34B02C01A52419E
:10014C00030A8B4201D30B02C01A5241CDD2C30910
:10015C008B4201D3CB01C01A524183098B4201D38C
:10016C008B01C01A524143098B4201D34B01C01A77
:10017C00524103098B4201D30B01C01A5241C308EF
:10018C008B4201D3CB00C01A524183088B4201D35E
:10019C008B00C01A524143088B4201D34B00C01A4A
:1001AC005241411A00D20146524110467047FFE7B6
:1001BC0001B5002000F006F802BDC0460029F7D0BA
:1001CC0076E770477047C04610B5064C2378002B75
:1001DC0007D1054B002B02D0044800E000BF0123DF
:1001EC00237010BD0C00002000000000E02400086B
:1001FC00044B10B5002B03D00349044800E000BFAA
:10020C0010BDC0460000000010000020E0240008D3
:10021C00F0B5D6464F464646C0B58AB014220021EA
:10022C0005A802F02AF93E4B5A69802109030A43BA
:10023C005A615A690A400192019A5A698021C9038C
:10024C000A435A615A690A400292029A5A698021F9
:10025C0089020A435A615A690A400392039A5A69FD
:10026C008021C9020A435A615B690B400493049BC9
:10027C00C02636022B4B984600223100180000F0A5
:10028C00E5FE294B9A46294F00221900380000F050
:10029C00DDFE89231B0299469025ED0500221900ED
:1002AC00280000F0D3FE80239B01059300240694C4
:1002BC00079405A9404600F005FE05960126069612
:1002CC000794089405A9404600F0FCFD184B0593D3
:1002DC000694079405A9380000F0F4FD53460593E5
:1002EC0006960794089405A9380000F0EBFD4B46E0
:1002FC00059306960794089405A9280000F0E2FDE2
:10030C0080235B0105930694079405A9280000F04F
:10031C00D9FD0AB0E0BCBA46B146A846F0BDC0460D
:10032C00001002400008004808500000000400487B
:10033C00040E000072B6FEE710B51248124B0360B3
:10034C00124B4360002383600122C260036143614E
:10035C008361C361036200F07FFE00280CD1094861
:10036C00002100F0DFFE002808D10648002100F033
:10037C0005FF002804D110BDFFF7DCFFFFF7DAFF03
:10038C00FFF7D8FF90020020005400400E09002017
:10039C0010B50B480B4B0360E1235B024360002359
:1003AC008360C36003610C2242618361C361036299
:1003BC00436202F003F8002800D110BDFFF7BAFF2A
:1003CC00B00000200038014010B50B480B4B036007
:1003DC00E1235B02436000238360C36003610C2252
:1003EC0042618361C3610362436201F0E7FF00284D
:1003FC0000D110BDFFF79EFF2800002000440040F4
:10040C0000B585B00C22002101A802F036F8304866
:10041C00304B0360002343608360C36001220261A0
:10042C0004214161037643768376C376C221FF3182
:10043C00C16103629E39FF394354826200F09CFB18
:10044C00002837D10023019380235B010293802382
:10045C005B0503931E4801A900F050FC00282BD12A
:10046C00012301931A4801A900F048FC002825D16A
:10047C0004230193164801A900F040FC00281FD169
:10048C0006230193124801A900F038FC002819D169
:10049C00082301930E4801A900F030FC002813D169
:1004AC00092301930A4801A900F028FC00280DD16A
:1004BC0005B000BDFFF73EFFFFF73CFFFFF73AFF2B
:1004CC00FFF738FFFFF736FFFFF734FFFFF732FF78
:1004DC00E40200200024014010B51148114B0360C8
:1004EC0082235B00436000238360F0221201C26010
:1004FC0003614361802292008261F13AFF3AC2614A
:10050C00036243628362093AC26203630833436342
:10051C0001F022FA002800D110BDFFF70BFFC046F6
:10052C002C0200200030014010B51148114B036023
:10053C0082235B00436080231B028360C0239B00EB
:10054C00C360002303614361802292008261C36116
:10055C00036243628362FA3AFF3AC262036308336E
:10056C00436301F0F9F9002800D110BDFFF7E2FE5A
:10057C00C80100200038004000B58BB008220021D3
:10058C0008A801F07AFF1C22002101A801F075FFD8
:10059C001748184B0360002343608360164AC260FF
:1005AC000361836101F096FB00281AD100230893A4
:1005BC0009930F4808A901F073FC002813D160239C
:1005CC00019300230293039305930948042201A984
:1005DC0001F0EEFB002808D1054800F0DDF90BB066
:1005EC0000BDFFF7A7FEFFF7A5FEFFF7A3FEC04671
:1005FC008001002000040040FFFF000000B591B016
:10060C001C22002109A801F038FF2022002101A89A
:10061C0001F033FF2048214B0360002343608360CB
:10062C001F4AC26003614361836101F027FB00280C
:10063C0029D1194801F04EFB002826D160230993DB
:10064C0000230A930B930C930D930E930F93124864
:10065C00002209A901F0ACFB002818D1002301935A
:10066C0002930393049305938022920106920893BC
:10067C00094801A901F046FC00280AD1064800F0FF
:10068C008BF911B000BDFFF755FEFFF753FEFFF7D6
:10069C0051FEFFF74FFEC0463801002000440140D8
:1006AC00FFFF000010B594B03022002108A801F023
:1006BC00E4FE10241022002104A801F0DEFE10221A
:1006CC000021684601F0D9FE12230893113B0B93CD
:1006DC000D930C940E9408A800F07AFD002817D105
:1006EC00072304930023059306930793002104A882
:1006FC0000F0F2FF00280DD1212300930023029378
:10070C000393684601F098F8002805D114B010BD89
:10071C00FFF710FEFFF70EFEFFF70CFE10B500F012
:10072C0009FAFFF7BFFFFFF773FDFFF705FEFFF7B1
:10073C002FFEFFF749FEFFF763FEFFF7CDFEFFF735
:10074C00F3FEFFF719FFFFF759FFFEE782B00A4BE4
:10075C00996901221143996199690A400092009AA2
:10076C00DA69802149050A43DA61DB690B400193A0
:10077C00019B02B07047C0460010024010B588B013
:10078C0004001422002103A801F077FE2268194B03
:10079C009A4201D008B010BD174B9A69802189008C
:1007AC000A439A619A690A400092009A5A69802118
:1007BC0089020A435A615A690A400192019A5A699C
:1007CC008021C9020A435A615B690B400293029B68
:1007DC005323039303240494902003A9C00500F031
:1007EC0071FB039404940023059303A9034800F0C0
:1007FC0069FBCFE7002401400010024000040048D0
:10080C0010B588B004001422002103A801F035FEB5
:10081C002268124B9A4201D008B010BD104C63698B
:10082C008022D20213436361636913400193019BDD
:10083C00C0230393AE3B04930F3B0693023B0793F9
:10084C0003A9084800F03EFBE3698022920313439E
:10085C00E361E36913400293029BDDE7005400401F
:10086C00001002400004004830B58BB00400142284
:10087C00002105A801F001FE23682D4A934204D003
:10088C002C4A934234D00BB030BD2B4B9A6980214B
:10089C0049010A439A619A690A400092009A5A697E
:1008AC00802189020A435A615A690A400192019ACD
:1008BC005A698021C9020A435A615B690B40029351
:1008CC00029BA023059302250695032408949020EF
:1008DC0005A9C00500F0F6FA102305930695002330
:1008EC0007930894099305A9144800F0EBFACAE79A
:1008FC00114BDA698021C9010A43DA61DA690A40CD
:10090C000392039A5A698021C9020A435A615B69AE
:10091C000B400493049BA0231B0205930223069314
:10092C000133089305A9054800F0CCFAABE7C046A3
:10093C000030014000380040001002400004004824
:10094C0082B00268074B9A4201D002B07047064A47
:10095C00D16902231943D161D26913400193019BE0
:10096C00F3E7C046000400400010024082B0026869
:10097C00074B9A4201D002B07047064B9A6980210E
:10098C0089020A439A619B690B400193019BF2E730
:10099C00004401400010024010B588B0040014223D
:1009AC00002103A801F069FD2368194A934204D081
:1009BC00184A934216D008B010BD174B5A698021C3
:1009CC00C9020A435A615B690B400193019B2023C6
:1009DC0003931E3B0493013B079303A90F4800F0BC
:1009EC0071FAE8E70C4B5A698021C9020A435A6133
:1009FC005B690B400293029B80235B000393FE3BDD
:100A0C000493079303A9054800F05CFAD3E7C046AA
:100A1C000004004000440140001002400004004863
:100A2C0010B58AB004001422002105A801F025FDA0
:100A3C002368244A934204D0234A934223D00AB019
:100A4C0010BD224B9A698021C9010A439A619A69A7
:100A5C000A400192019A5A69802189020A435A611B
:100A6C005B690B400293029BC023DB0005930223BE
:100A7C00069301330893023B0993902005A9C00506
:100A8C0000F020FADBE7114BD96980229202114366
:100A9C00D961D9691140039103995969114359617D
:100AAC005B6913400493049B0C2305930A3B069348
:100ABC0001330893023B0993902005A9C00500F06F
:100ACC0001FABCE70038014000440040001002402D
:100ADC00FEE7FEE77047704710B500F03BF810BD1D
:100AEC007047000010B504000F4B1978FA208000F5
:100AFC00FFF7DEFA01000D4B1868FFF7D9FA00F08A
:100B0C00DDF900280DD1032C01D901200AE00130B8
:100B1C0000222100404200F0CDF9054B1C60002062
:100B2C0000E0012010BDC0460400002000000020A1
:100B3C000800002010B5064A136810210B431360FF
:100B4C000320FFF7CFFFFFF701FE002010BDC046CA
:100B5C0000200240034A1168034B1B785B1813609A
:100B6C007047C0462403002004000020014B186885
:100B7C007047C0462403002070B5041E00D1B4E0B9
:100B8C00836B002B00D180E0A36BDB0600D5A6E0C5
:100B9C0023689A68042108001040114200D09EE09E
:100BAC00A26B53490A400631FF310A43A26399688C
:100BBC0003220A40012A6ED0DA6818218A43A16800
:100BCC000A43DA60226813699B009B0861680B4337
:100BDC0013612268D36847490B40D360237E9B0383
:100BEC00627ED2031343A17E4A031343A26A012AF5
:100BFC0058D0802252011343E26813432269022A1F
:100C0C0052D003432422A25C52001343E27E012AF9
:100C1C004CD0E269C221FF318A4202D0216A0A43D8
:100C2C0013432168CA681A43CA60E26A80214905E5
:100C3C008A420DD0012A0BD0022A09D0032A07D0F0
:100C4C00042A05D0052A03D0062A01D0072A0AD186
:100C5C002068416907229143416120684169E56A36
:100C6C002A400A4342612268D26823490A409A42C8
:100C7C002BD0A36B12229343023A1343A363E36B6F
:100C8C000F3A1343E36301202EE0C36334228354F1
:100C9C00FFF774FD78E71A68D2079AD4DA68120461
:100CAC0097D489E70200A6E70420AAE7002903D11C
:100CBC00802252021343ACE7A26B20210A43A263A9
:100CCC00E26B1F390A43E263A3E70023E363A36BE0
:100CDC0003229343023A1343A363002004E0A36B63
:100CEC0010221343A363012070BD0120FCE7C04612
:100CFC00FDFEFFFF1902FEFFE7FF3F8330B583B017
:100D0C000400002301933433C35C012B00D176E043
:100D1C0034230122C254026893685B0765D4486887
:100D2C00384B984248D0936A0D680120A840034381
:100D3C009362E36A80225205934213D0013B062B47
:100D4C0010D988682268556907232B40984209D02E
:100D5C005069072398435061206842698D682B4085
:100D6C00134343610B681A00103A012A01D9002081
:100D7C0040E0254A1268102B09D08023DB03134373
:100D8C00214A13600B68102B04D0002032E0802322
:100D9C001B04F4E71D4B18681D49FFF789F9830004
:100DAC001B185B00019302E0019B013B0193019B2B
:100DBC00002BF9D100201DE0936A0D680120A8409A
:100DCC00834393620B681A00103A012A01D9002060
:100DDC0010E00D4A1268102B05D00E4B13400A4A36
:100DEC001360002006E00C4BF8E7836B20221343C2
:100DFC008363012034230022E25403B030BD02206F
:100E0C00FBE7C0460110000008270140000000204D
:100E1C0040420F00FFFFBFFFFFFF7FFF70B50028B0
:100E2C0011DB8308134DC0339B005C590322104027
:100E3C00C000FC3216008640B44389010A4082404F
:100E4C0022435A5170BD0F230340083B9B080633C5
:100E5C009B00094A944663445C6803221040C0001E
:100E6C00FC3215008540AC4389010A408240224384
:100E7C005A60E7E700E100E000ED00E00138802374
:100E8C005B0498420FD2094A50600948036A1B025E
:100E9C001B0AC02109060B4303620023936007332E
:100EAC001360002070470120FCE7C04610E000E012
:100EBC0000ED00E010B5FFF7B1FF10BD10B5FFF766
:100ECC00DDFF10BDF0B583B0002356E086685F00EF
:100EDC000324BC40A643CC68BC40344384604468C3
:100EEC0094434E683609012232409A4022434260B4
:100EFC0053E0DE080836B600375805321A40920027
:100F0C000F249440A7430C69944022003A4332507A
:100F1C0056E0032600E00026A64034003C43023293
:100F2C009200444E9451444A9768EA433E00AE43C3
:100F3C004C68E40201D53E002E433F4CA660E768A6
:100F4C003E0016404C68A40201D53E002E433A4C9C
:100F5C00E66067683E0016404C68A40301D53E006D
:100F6C002E43354C6660266832404C68E40301D54C
:100F7C002A003243304C226001330C682200DA40E4
:100F8C0056D001229A40250015401442F4D04E68E8
:100F9C0003243440013C012C98D94C680322224094
:100FAC00032A08D0C4685E000322B24094438A68C6
:100FBC00B2402243C2604C6803222240022A98D0DD
:100FCC0004685E0003221700B740BC434F683A40E8
:100FDC00B240224302604C68C02292021442CBD031
:100FEC00164CA66901221643A661A46922400192FF
:100FFC00019A9A08941CA4000E4EA75903241C4075
:10100C00A4000F26A640B7439026F605B04282D026
:10101C000B4EB04208D00B4EB04207D00A4EB04235
:10102C0000D176E7052677E7012675E7022673E7F8
:10103C0003B0F0BD0000014000040140001002406C
:10104C000004004800080048000C0048002A01D0A9
:10105C00816170478162FCE710B5041E59D04123B1
:10106C00C35C002B43D041232422E2542268136832
:10107C0001218B4313606368226827490B4013617D
:10108C002268936825490B409360E368012B34D0A8
:10109C00A168226884231B020B439360E368022B34
:1010AC0032D0226851681E4B0B4353602268D368C0
:1010BC001A490B40D360236962691343A269120277
:1010CC0021681343CB60E369216A22680B431360E8
:1010DC002268136801210B431360002363644122CF
:1010EC001F31A15423630132A354002010BD40339F
:1010FC000022C254FFF784FBB5E7A1682268802365
:10110C001B020B439360C9E72368802212015A60CB
:10111C00C7E70120EAE7C046FFFFFFF0FF7FFFFFB4
:10112C0000800002F0B54123C35C202B20D120337A
:10113C00C35C012B1ED040240122025541252423DF
:10114C0043550668336893433360066833680A4F27
:10115C003B403360066833680B43336001680B68AF
:10116C0013430B6020234355002303550020F0BD8F
:10117C000220FCE70220FAE7FFEFFFFFF0B5412366
:10118C00C35C202B1ED12033C35C012B1CD040240C
:10119C0001220255412524234355066833689343A5
:1011AC00336006683368094F3B40090219433160CC
:1011BC0001680B6813430B60202343550023035530
:1011CC000020F0BD0220FCE70220FAE7FFF0FFFF51
:1011DC0070B582B0041E00D138E20368DB072BD552
:1011EC00B34B5A680C231340042B1DD0B04B5A68D8
:1011FC000C231340082B0ED06368012B41D0002B1D
:10120C0056D1AB4B1A68AB490A401A601A68AA4906
:10121C000A401A603BE0A64B5B68C02252021340A6
:10122C00802252029342E7D1A14B1B689B0303D54A
:10123C006368002B00D10CE223689B0777D59C4B8D
:10124C005B680C221A4262D0994B5A680C231340EB
:10125C00082B53D0E368002B00D18AE0944A136822
:10126C0001210B431360FFF781FC0500904B1B68B9
:10127C009B0775D4FFF77AFC401B0228F6D9032094
:10128C00E5E18B4A116880235B020B4313606368B2
:10129C00002B25D0FFF76AFC0500854B1B689B03D0
:1012AC00CAD4FFF763FC401B6428F6D90320CEE1B7
:1012BC00052B09D07E4B1A687E490A401A601A68C1
:1012CC007D490A401A60E2E7794B19688022D20204
:1012DC000A431A601968802252020A431A60D6E740
:1012EC00FFF744FC0500724B1B689B03A4D5FFF76A
:1012FC003DFC401B6428F6D90320A8E16C4B5B68CD
:10130C00C02252021340802212029342A2D1684B97
:10131C001B689B0703D5E368012B00D09BE1644954
:10132C000B68F82293432269D20013430B602368A5
:10133C001B0744D5E369002B2ED05D4A536A01216B
:10134C000B435362FFF712FC0500594B5B6A9B077A
:10135C0035D4FFF70BFC401B0228F6D9032076E1AD
:10136C0053490B68F82293432269D20013430B6054
:10137C00DDE74F4A136801218B431360FFF7F6FB3F
:10138C0005004B4B1B689B07D1D5FFF7EFFB401BB0
:10139C000228F6D903205AE1454A536A01218B43AE
:1013AC005362FFF7E3FB0500414B5B6A9B0706D5D5
:1013BC00FFF7DCFB401B0228F6D9032047E123682A
:1013CC005B0700D480E03A4BDB69DB001DD4384B63
:1013DC00DA69802149050A43DA61DB690B40019324
:1013EC00019B0125354B1B68DB0510D5A368012B30
:1013FC0021D0002B36D12E4B1A6A01218A431A6256
:10140C001A6A03318A431A621AE00025EAE72B4A6A
:10141C00116880235B000B431360FFF7A7FB0600EA
:10142C00264B1B68DB05E1D4FFF7A0FB801B64286F
:10143C00F6D903200BE11E4A136A01210B431362F8
:10144C00A368002B24D0FFF791FB0600184B1B6AF6
:10145C009B0737D4FFF78AFB801B194B9842F5D9B1
:10146C000320F4E0052B09D0114B1A6A01218A43A1
:10147C001A621A6A03318A431A62E1E70C4B1A6A40
:10148C0004210A431A621A6A03390A431A62D7E71B
:10149C00FFF76CFB0600064B1B6A9B0712D5FFF788
:1014AC0065FB801B064B9842F5D90320CFE0C04664
:1014BC0000100240FFFFFEFFFFFFFBFF007000402B
:1014CC0088130000012D33D02368DB0610D5636927
:1014DC00012B33D0053351D1654A536B04218B4317
:1014EC005363536BF4318B43A169C9000B435363B2
:1014FC00236A002B00D1B0E05D4A51680C220A40EF
:10150C00082A00D18AE0022B4FD0594A1368594956
:10151C000B401360FFF72AFB0400554B1B689B0123
:10152C007AD5FFF723FB001B0228F6D903208EE0A7
:10153C004F4AD36950490B40D361C5E74C4B5A6BAA
:10154C0004210A435A635A6B03390A435A63FFF75F
:10155C000DFB0500464B5B6B9B0706D4FFF706FBA8
:10156C00401B0228F6D9032071E041494B6BF8224D
:10157C009343A269D20013434B63B9E73C4B5A6BBC
:10158C0004210A435A635A6B03398A435A63FFF79F
:10159C00EDFA0500364B5B6B9B07A9D5FFF7E6FA16
:1015AC00401B0228F6D9032051E0314A1368314917
:1015BC000B401360FFF7DAFA05002D4B1B689B01FB
:1015CC0006D5FFF7D3FA401B0228F6D903203EE0DC
:1015DC00274BDA6A0F218A43E16A0A43DA625A68B6
:1015EC0026490A40A16A606A01430A435A60196895
:1015FC00802252040A431A60FFF7B8FA04001C4B0D
:10160C001B689B0106D4FFF7B1FA001B0228F6D920
:10161C0003201CE000201AE0002018E0012B1ED053
:10162C00134B5A68D86AC0235B021340616A8B4221
:10163C0017D10F230340E16A8B4214D1F0239B0393
:10164C001A40A36A9A4210D1002000E0012002B097
:10165C0070BD0120FBE70120F9E70020F7E701202E
:10166C00F5E70120F3E70120F1E70120EFE7C046A1
:10167C0000100240FFFFFFFEFFFFFFEFFF7FC2FFE6
:10168C0010B5114B5A680C231340082B01D00F488E
:10169C0010BD910C073319400D48445C0A49C96AC6
:1016AC000B400C49C95CC0235B021A4080235B02CF
:1016BC009A4204D00548FEF7FBFC6043E8E7034878
:1016CC00FEF7F6FC6043E3E70010024000127A00DC
:1016DC00202500081025000870B504000D00002816
:1016EC0000D17EE0434B1A68012313408B420AD28F
:1016FC0040490B68012293432B430B600B681A4043
:10170C00AA4200D06FE023689A070ED55B0705D577
:10171C00394A5168E023DB000B435360364A536867
:10172C00F0218B43A1680B4353602368DB072DD555
:10173C006368012B1ED0022B22D02F4A126892070D
:10174C0053D52D494A680320824313434B60FFF75E
:10175C000DFA0600284B5B680C221A4063689B004C
:10176C009A4213D0FFF702FA801B244B9842F1D90E
:10177C00032035E0204A12689203E2D401202FE0C6
:10178C001D4A12689201DCD4012029E0194B1A6819
:10179C0001231340AB4209D916490B68012293432C
:1017AC002B430B600B681A40AA4220D123685B07BD
:1017BC0006D5114A536812490B40E1680B4353603C
:1017CC00FFF75EFF0C4B5A6812090F2313400D4AAA
:1017DC00D35CD8400C4B18600320FFF783F9002032
:1017EC0070BD0120FCE70120FAE70120F8E7012099
:1017FC00F6E7C046002002400010024088130000AB
:10180C00FFF8FFFF0025000800000020014B1868BE
:10181C007047C0460000002010B5FFF7F7FF044BDF
:10182C005A68120A07231340024AD35CD84010BDF1
:10183C0000100240F824000870B582B00400036860
:10184C00DB0339D53E4BDB69DB004BD43C4BDA690F
:10185C00802149050A43DA61DB690B400193019B46
:10186C000125384B1B68DB053ED5354B1A6AC02366
:10187C009B00110019401A4215D06368C0229200D7
:10188C0013408B420FD02E4B1A6A2F4911401E6AFF
:10189C008020400230431862186A2C4E3040186287
:1018AC001962D20734D4264A136A27490B4061685F
:1018BC000B431362012D3AD02368DB0706D5204A6F
:1018CC00136B03218B43A1680B43136323689B06A3
:1018DC0032D51B4A136B10218B43E1680B43136306
:1018EC0000202AE00025BCE7164A116880235B0023
:1018FC000B431360FFF73AF90600124B1B68DB052C
:10190C00B3D4FFF733F9801B6428F6D9032014E015
:10191C00FFF72CF906000A4B1B6A9B07C3D4FFF791
:10192C0025F9801B0A4B9842F5D9032005E0D369B1
:10193C0008490B40D361BFE7002002B070BDC04620
:10194C000010024000700040FFFCFFFFFFFFFEFF95
:10195C0088130000FFFFFFEF70B5041E00D178E084
:10196C00436A002B07D142680533FF339A4205D0F6
:10197C000023C36102E00023036143610023A362DF
:10198C005D33E35C002B5AD05D230222E2542268C3
:10199C00136840218B431360E368E022D20093422A
:1019AC0054D90022F02109018B4205D0E021C90055
:1019BC008B4201D00023A3626368822149000B4053
:1019CC00A1688420000201400B43206902210140E0
:1019DC000B436069012108400343A0698025AD00D9
:1019EC0028400343E569382028400343256A8020BA
:1019FC0028400343A06A8025AD0128402568034395
:101A0C002B60608B04230340656A1020284003433D
:101A1C00656B082028400343E068F0252D01284021
:101A2C0003432068134343602268D3690A48034088
:101A3C00D361002323665D33E154002070BD5C3319
:101A4C000022E2542000FEF70FFF9DE78022520196
:101A5C00A8E70120F2E7C046FFF7FFFF30B5036AA5
:101A6C00012293430362056A426883697324A3438A
:101A7C000C681C4302239D438B682B43154DA842D5
:101A8C0008D0154DA84205D0144DA84202D0144DD3
:101A9C00A84206D10825AB431D00CB682B43042577
:101AAC00AB430C4DA84208D00B4DA84205D00B4DB2
:101ABC00A84202D00A4DA84205D10A4D2A404D69D0
:101ACC0015438A692A43426084614A68426303620F
:101ADC0030BDC046002C0140004001400044014094
:101AEC0000480140FFFCFFFF30B5036A184A134061
:101AFC000362046A4268C3697325AB430D681D43D6
:101B0C00144B1C408B681B022343134CA04209D07E
:101B1C00124CA0420DD0124CA0420AD0114CA04243
:101B2C000FD106E0104C1C40CB681B0223430F4C1A
:101B3C0023400F4C22404C69240114438A69120142
:101B4C0022434260C5614A68C263036230BDC0462D
:101B5C00FFFEFFFFFFFDFFFF002C01400040014096
:101B6C000044014000480140FFF7FFFFFFFBFFFF6F
:101B7C00FFCFFFFF30B5036A134A13400362046AB8
:101B8C004368C269114D2A400D682D021543104A55
:101B9C0014408A68120322430E4CA04208D00E4C0B
:101BAC00A04205D00D4CA04202D00D4CA04204D155
:101BBC000C4C1C404B699B0123434360C5614B6833
:101BCC000364026230BDC046FFEFFFFFFF8CFFFFD6
:101BDC00FFDFFFFF002C01400040014000440140AA
:101BEC0000480140FFBFFFFF03681D4A904202D02E
:101BFC001C4A904203D1702293434A681343184AFB
:101C0C0090420ED0174A90420BD0174A904208D0FF
:101C1C00164A904205D0164A904202D0154A90427C
:101C2C0003D1154A1A40CB681343802293434A6967
:101C3C00134303608B68C3620B688362084B984242
:101C4C0008D00A4B984205D0094B984202D0094B58
:101C5C00984201D10B690363012343617047C0466D
:101C6C00002C0140000400400020004000400140D6
:101C7C000044014000480140FFFCFFFF70B5041E0A
:101C8C0026D03D23C35C002B1CD03D25022363557D
:101C9C00210001C9FFF7A8FF01234622A354083AEB
:101CAC00A3540132A3540132A3540132A354013280
:101CBC00A3540132A3540132A3540132A3546355EB
:101CCC00002070BD3C330022C254FEF74FFEDCE70F
:101CDC000120F6E770B5041E26D03D23C35C002B13
:101CEC001CD03D2502236355210001C9FFF77CFF61
:101CFC0001234622A354083AA3540132A3540132BF
:101D0C00A3540132A3540132A3540132A35401321F
:101D1C00A3540132A3546355002070BD3C33002200
:101D2C00C254FEF70DFEDCE70120F6E770B5036A3E
:101D3C00102293430362026A44688369164D2B4058
:101D4C000D682D021D4320239A438B681B011343FE
:101D5C00124A904209D0124A90420ED0114A904237
:101D6C000BD0114A904210D107E0802293431E0001
:101D7C00CB681B013343403A93430C4A14404A69E5
:101D8C00920022438C69A4001443446085614A6824
:101D9C008263036270BDC046FF8CFFFF002C0140C4
:101DAC00004001400044014000480140FFF3FFFFA8
:101DBC0070B504000D003C23C35C012B00D16AE01C
:101DCC003C230121C154082A50D01CD8002A38D0F9
:101DDC00042A16D100682900FFF7A8FF2268916930
:101DEC0080231B010B439361226893692B490B40A1
:101DFC00936121688B692A69120213438B6100205D
:101E0C001BE0080019E00C2A16D100682900FFF726
:101E1C00B1FE2268D16980231B010B43D361226878
:101E2C00D3691E490B40D3612168CB692A69120220
:101E3C001343CB61002000E001203C230022E2543C
:101E4C0070BD00682900FFF709FE2268936908211C
:101E5C000B4393612268936904398B439361226825
:101E6C00936929690B4393610020E6E70068290018
:101E7C00FFF73AFE2268D36908210B43D36122682D
:101E8C00D36904398B43D3612268D36929690B4325
:101E9C00D3610020D1E70220D2E7C046FFFBFFFF51
:101EAC0030B53C23C35C012B24D03C230122C2540B
:101EBC0001330132C25403685C689D686E329443EE
:101ECC000A6822435A6003680B4A934205D00B4AB6
:101EDC00934202D00A4A934204D1802295434A6825
:101EEC002A439A603D230122C254013B0022C25472
:101EFC00002030BD0220FCE7002C01400004004013
:101F0C000040014010B53C23C35C012B21D03C2286
:101F1C0001238354CB68104C23408C6823430F4C13
:101F2C0023404C6823430E4C23400C6823430D4C38
:101F3C0023400C6923430C4C23404C6923430B4C2A
:101F4C002340C9690B4301684B6400238354002070
:101F5C0010BD0220FCE7C046FFFCFFFFFFFBFFFFAC
:101F6C00FFF7FFFFFFEFFFFFFFDFFFFFFFBFFFFFED
:101F7C0010B5EFF3108C012282F3108801680B6806
:101F8C00124C23400B608CF31088EFF3108C82F30F
:101F9C00108801688B6893438B608CF31088036EF8
:101FAC00012B06D080232022C250002303668366B7
:101FBC0010BDEFF3108183F310880268136832347C
:101FCC00FF34A343136081F31088EBE7DFFEFFFFC0
:101FDC0010B5040083680269134342691343C26954
:101FEC00134301680A685748024013430B60226888
:101FFC00536855490B40E1680B435360A369226A4F
:10200C001A4321688B685148034013438B60236843
:10201C004F4A934210D04F4A934245D04E4A934276
:10202C0044D04E4A934243D04D4A934242D04D4AFB
:10203C0093422FD010230BE04B4B1A6B032313400E
:10204C00022B29D022D8002B28D0012B28D10333E6
:10205C00E0698022120290422ED0042B00D16AE05B
:10206C0059D8002B61D0022B53D1404861684B08E2
:10207C001818FEF71DF80200103A3D4B9A425FD833
:10208C0023680004000CD86000204AE0032B09D11F
:10209C00013BDDE70023DBE70823D9E70023D7E783
:1020AC001023D5E71023D3E70023D1E70023CFE794
:1020BC000023CDE70023CBE7042B27D01CD8002B23
:1020CC001ED0022B16D12948400061684B08C0185D
:1020DC00FDF7EEFF0200103A254B9A422ED882B241
:1020EC000F239A434008083B034013432268D360F4
:1020FC00002016E0012014E0082BE5D0012010E0B0
:10210C00FFF78AFB0028DFD100200AE0FFF7B8FABE
:10211C00F8E7012005E0082B02D180200002A5E79A
:10212C0001200023A366E36610BDFFF775FB0028B2
:10213C009CD10020F5E7FFF7A3FAF8E70120F0E7C0
:10214C000120EEE7F369FFEFFFCFFFFFFFF4FFFF86
:10215C00003801400044004000480040004C004062
:10216C0000500040001401400010024000127A00A0
:10217C00EFFF0000436ADB0706D5026853682C4961
:10218C000B40816A0B435360436A9B0706D5026878
:10219C00536828490B40C16A0B435360436A5B0781
:1021AC0006D50268536824490B40016B0B435360FE
:1021BC00436A1B0706D50268536820490B40416BE4
:1021CC000B435360436ADB0606D5026893681C49CF
:1021DC000B40816B0B439360436A9B0606D50268E8
:1021EC00936818490B40C16B0B439360436A5B06C1
:1021FC000BD50268536814490B40016C0B435360B8
:10220C00026C80235B039A420AD0436A1B0606D5F4
:10221C00026853680D490B40816C0B435360704747
:10222C00026853680A490B40416C0B435360ECE75E
:10223C00FFFFFDFFFFFFFEFFFFFFFBFFFF7FFFFF29
:10224C00FFEFFFFFFFDFFFFFFFFFEFFFFFFFF7FFDA
:10225C00FFFF9FFFF8B5CE46474680B506000D0040
:10226C0017009946089B98463368DC692C40641B20
:10227C0063425C41BC422FD143460133F4D0FEF79C
:10228C0075FC4B46C01A40452BD84346002B2AD030
:10229C0033681A685207E7D5DA69120710D4DA697D
:1022AC001205E1D5802212011A623000FFF760FEA0
:1022BC0084232022F2500C3B0022F25403200CE029
:1022CC0008241C623000FFF753FE8423F4500C3BAF
:1022DC000022F254012000E00020C0BCB946B046F8
:1022EC00F8BD0320F9E70320F7E7000030B583B011
:1022FC00040084230022C250FEF738FC050023683A
:10230C001B681B070FD423681B685B0729D4202389
:10231C00E3678022A350002323666366083AA35424
:10232C00002003B030BD8021224B0093030000221B
:10233C0089032000FFF78EFF0028E4D0EFF3108113
:10234C00012383F310882268136880208343136071
:10235C0081F310882023E36758330022E2547D3840
:10236C00DFE78021134B00932B000022C9032000D0
:10237C00FFF770FF0028CAD0EFF31080012282F320
:10238C00108821680B680C4D2B400B6080F3108873
:10239C00EFF3108082F3108821688B6893438B6075
:1023AC0080F3108880231F32E250083B0022E25455
:1023BC000320B6E7FFFFFF01DFFEFFFF10B5041E91
:1023CC002ED0C36F002B21D02423E367226813681F
:1023DC0001218B4313602000FFF7FAFD012814D074
:1023EC00636A002B18D1226853680E490B40536066
:1023FC002268936808218B4393602268136807391D
:10240C000B4313602000FFF771FF10BD78330022DF
:10241C00C254FEF705FBD7E72000FFF7ABFEE2E75F
:10242C000120F2E7FFF7FFFF0D488546FEF758FB4A
:10243C000C480D490D4A002302E0D458C450043313
:10244C00C4188C42F9D30A4A0A4C002301E01360E9
:10245C000432A242FBD300F019F8FEF75FF9FEE755
:10246C0000800020000000200C000020382500080F
:10247C000C00002028030020FEE703008218934282
:10248C0000D1704719700133F9E7000070B50026D0
:10249C000C4C0D4D641BA410A64209D1002600F073
:1024AC0019F80A4C0A4D641BA410A64205D170BD44
:1024BC00B300EB5898470136EEE7B300EB5898475A
:1024CC000136F2E7302500083025000834250008D5
:1024DC0030250008F8B5C046F8BC08BC9E467047CD
:0C24EC00F8B5C046F8BC08BC9E4670471E
:1024F80000000000010203040000000000000000CA
:102508000102030406070809010203040506070877
:10251800090A0B0C0D0E0F10020304050607080923
:082528000A0B0C0D0E0F101040
:04253000FD010008A1
:04253400D5010008C5
:0C25380000127A00010000000400000006
:040000050800243596
:00000001FF
