:4000000000800020110000000D0A00000D0A000008B5044B1A6803F53F5302331A6000F015FD00BFFA46004010B5054C237833B9044B13B10448AFF300800123237010BD37
:4000400038B9FF1F000000006C120000084B10B51BB108490848AFF300800848036803B910BD074B002BFBD0BDE81040184700BF000000003CB9FF1F6C120000C880FF1FB6
:400080000000000030B5ADF20C4DA7238DF8FC337F238DF8FD333F238DF8FE3303238DF8FF33F5238DF8003403AC4FF47C721749204600F0E9FFCDF8044462B600F094FDA4
:4000C0003C2000F041F8124C40228021204600F02BF92146002000F0BBF82146002000F0C7F80194002500952B460DF5816212E9070000F043F900942B46064A3221284657
:4001000000F03AFB204600F039F8FEE77012000068B9FF1F60160000F8B507460E460021084B187800F0DCFE0024FF2504E0385D00F032FF05460134B442F8DB00F010FFB1
:400140002846F8BD54B9FF1F30B589B0094B1870094D01AC28686968AA68EB680FC42869696903C42B8B23801A2101A8FFF7D4FF09B030BD54B9FF1F781600002DE9F043C3
:4001800083B000AF044643895E1C083323F00703ADEB030D6D464FF0000887F8008021237B7087F802800378013BFB7022233B7187F805804378DB08013BBB7107213846E1
:4001C000FFF7AAFF40238DF80030C4464FF0010833E0626894F8089001FB09E909EBCC1912F809908022024109EA02028240C1F10709D2B242FA09F21343DBB20131C9B2E0
:4002000001E000210B460729E3D905F808300130C0B208F1010800E000200728F1D90EF1010E5FFA8EFE01E04FF0000EBEF10F0FF2D90CF1010C1FFA8CFCBCF1070FF3D9B9
:40024000B1B22846FFF768FF0C37BD46BDE8F083087338B970474868C25CD243C25401339BB200E000234A899342F4D3704700BF4873032831D8DFE800F002170B2400235C
:400280008B73CB7301220A744B748B74CA7470470B78013B8B730023CB730B74FF224A7401228A74CB7470470B78013B8B734B78013BCB73FF230B7400224A748A74CB7463
:4002C000704700238B734A78013ACA730B7401224A74FF228A74CB74704700238B73CB7301220A744B748B74CA74704710B5037B0BB9002100E0FF2144682CB142892046E2
:4003000000F0E8FE002010BD012010BDC30810F0070F00D001331846704700BF4278007A02FB00F0704700BF38B50446017042700846FFF7EBFF20722046FFF7EFFF608177
:4003400000F092FE60600025A573E57325746574A574E5742046FFF7C9FF21462846FFF777FF21462846FFF783FF284638BD00BF02FB01F202EBD00080B270472DE9F04F05
:4003800085B004AC04E907009DF838600F9D9DF807409DF8082042EA04242A789A4251D3053CA4B26F78B7424ED39DF80410A7294CD19DF8068006EB0801B94248DC9DF805
:4003C000059003EB0901914244DC0093B5F80AB095F808A0524631461846FFF7C9FFC0EB0B00844238DC5C4503D1039B6B60002033E019F0070F02D14FEAD90903E04FEA59
:40040000D90909F10109B91B01395246C9B20098FFF7AEFF064600240EE02B7A03FB14639BB26868171B4A46039909FB0711184400F035FE0134E4B208F1FF329442ECDB5A
:4004400000200AE0042008E0042006E0012004E0022002E0022000E0032005B0BDE8F08FF8B506460C461546022000F0FDFDAF7B95F9112095F9103003FB06F302FB0433C1
:400480003B440370EA7B95F9137095F9123003FB06F307FB043414444470F8BD430045F2555202EA500023F4AA4323F05503184380B2820043F2333303EA900322F44C5268
:4004C00022F0330213439BB21A0140F60F7000EA131322F4706003439BB2180A40EA032080B27047F8B505460E463B4B187800F0BBFD0446002304E0002224F81320013361
:40050000DBB2354A12789342F6D3737B022B39D0032B58D0012B5CD111E0013B9B1B35F813302D4A5078C0F1100043FA00F080B2FFF7B4FF24F816000136F6B200E0002642
:40054000254B1B789E42E8D344E0461EF31B35F813304FF400420A4113408B40721AC01B9BB2034134F81200034324F812300131C9B200E00021184B18788142E5D30137BB
:40058000FFB200E00027144B1B789F42F2D321E0013B5B1A35F813004FF400431341034093409BB20B4134F81200034324F812300132D2B200E00022074B1B789A42E7D35A
:4005C0000131C9B200E00021034B1B789942F2D300E02C462046F8BD55B9FF1F2DE9F041069C012B0ED013B1022B20D015E05F4B07251D7005255D70C2EBC20253005C4EA2
:400600001E4414E0594B0E251D700A255D70C2EBC2029300574E1E4409E0544B07251D7005255D70C2EBC2025300514E1E44637B032B29D8DFE803F00207151E2246FFF79B
:400640000FFF054624E0494A5378184401381378194401392246C9B2C0B2FFF701FF054616E0424B1B7819442246C9B2FFF7F8FE05460DE03D4B1B78184401382246C0B26E
:40068000FFF7EEFE054603E02246FFF7E9FE05462B78227893425CD26978607881425AD2324F3F783944814257DC304949780B44934254DC21463046FFF714FF06462F78A0
:4006C00063786978591A0139227AC9B23846FFF74FFE07F00707002135E0237A03FB11039BB2013A521A36F812203A41D4F804C0C2F307281CF803E048EA0E0E0CF803E060
:40070000D4F8048003F1010CD2B218F80CE042EA0E0208F80C20A7B1144A1278521A02F10042013AD4F804E0023316F81220C7F1080C02FA0CF21EF803C04CEA02020EF860
:4007400003200131C9B2094B1A789142C5D3002406E0042404E0042402E0022400E00224284600F089FC2046BDE8F08155B9FF1FCC80FF1FCC8EFF1F2DE9F04F83B0DDF842
:4007800030A012BB4FF001082CE02A5D0D2A18D00A2A06D1154B1B78FF1AFFB2013FFFB210E0CDF800A04B4639463046FFF716FF8046B8B90D4B5B781E44F6B20136F6B2B8
:4007C00000E05E460134E4B207E083460F4699461546064600244FF00108284600F03CFD8442D2D3404603B0BDE8F08F55B9FF1FFEE700BFF0B40022174611E050F82760A1
:40080000F3B226F0FF0608E001EB420511F812406D78A5550132013BDBB2002BF4D101370F2FEBD9F0BC7047064B1B78DBB203F00701054A11701B09013213704422034B50
:400840001A707047CF0100496E5800407658004038B5A822244B1A80182202331A70022203F27E231A7008224FF040231A70032203F500731A701D4B1B78DBB21C4A13702C
:400880001A221C4B1A8042F25122023B1A80002419250CE0184B1B7803F0010343EA440404F003044FF4F07000F0A2FB013D0DB1032CEFD115B90320FFF79AFF0F4B4FF49A
:4008C00080721A8007221A7000220D490A704820023108701A700222033B1A70094A137843F00103137038BD8040004008010049A146004022420040254200400440004069
:4009000006400040A243004008B50A46002100F0E1FB08BD08B500F0B7FB08BD38B572B661222E4B1A70FFF793FF2D4A137843F00403137000240CE02A4D630019194A00E1
:4009400011462A44084691882858FFF7DDFF0134E4B2092CF0D900240BE02249A3001819420088188022016CC06BFFF7D3FF0134E4B2002CF1D01C494FF09040FFF73AFFA3
:400980001A4A137843F0020313701032137843F002031370164C237843F040032370A2F58632513A137843F0100313700A2211491148FFF7AFFF082210491148FFF7AAFFD3
:4009C000104A137843F008031370FFF72DFF0E2221460D48FFF79EFF38BD00BF00480040E8460040941600004000004803500140A043004064030048C05100407003004862
:400A00001251004022430040B043004008B500F0FFFA03680C2B00D1FEE7FEE708B5094B1A681044084BC31AB3F5A06F02DC054B186005E000F0ECFA0C2303604FF0FF3227
:400A4000104608BDCCB8FF1F98B9FF1F08B5104E104D16E029686B68AC68002204E051F8040B43F8040B0432A242F8D1E868002203E0002143F8041B04328242F9D1103500
:400A8000013E002EE6D100F0C9FAFFF7FBFAFEE7010000000017000008B5104A104B1A60104A136843F40073136000230AE0032B03D80D4A52F8231000E00C490C4A42F8EA
:400AC000231001332F2BF2D90A4B1A780A4B1A70074A0A4B1A60FFF721FF08BD0004FA050CED00E014ED00E0000000000D0A00000080FF1FBC760040C080FF1F08ED00E092
:400B000001BE704770B504460E46074B1D681F2802D90020FFF7F4FF04F01F04103455F8240045F8246070BD08ED00E038B504460D46072902D90020FFF7E2FF1F2C02D939
:400B40000020FFF7DDFF04F01F0000F1604000F564406D01EDB2057038BD00BF10B50222114B1A7081220E3B1A70082202331A700D2211331A70002401331C704FF400427C
:400B80000A4B1A6007210F20FFF7D0FF08490F20FFF7B8FF1022074B1A70074B1C70074B1C70074B1C7010BDD649004080E100E0110C00007CB9FF1F8DB9FF1F8CB9FF1FD1
:400BC00089B9FF1F08B500F01BFA064A137843F0040313701032137843F00403137000F013FA08BDA543004008B5074B1B7823B9FFF7B4FF0122044B1A70FFF7E3FF4FF489
:400C00000042024B1A6008BD5FB9FF1F00E100E038B5A54B1C78A54B1B7813F0400F00F03A81E4B214F0010F00F01D819F4B1B78453B052B00F21481DFE813F006008200C0
:400C4000120112010600DF0004F0DF0504F00A04082C42D1954B1B78DBB2452B35D1944B1B7813F0FF0F10D0924B1B681B78DBB2914A137004228C4B1A7001228F4B1A7083
:400C800046228A4B1A702C46EDE08D4B1B7813F0020F0DD08B4A137843F00A0313706022824B1A704FF40042874B1A602C46DAE0864A137843F0100313701022844B1A702A
:400CC0000422023B1A702C46CDE00022764B1A704A22764B1A702C46C5E00A2C2BD1794A137843F0A0031370754B1B7813F0020F14D06E4B1B7813F0080F01D0092300E046
:400D00000A23704A11780B4313706022674B1A704FF400426C4B1A602C46A4E06B4A137843F0100313701022694B1A700422023B1A702C4697E00020FFF7E2FE2C4692E0DF
:400D400014F0020F36D15D4B1A78D2B2584B1B78DBB29A4210D2594A1378DBB255490968CB5CDBB254490B7004214F4B197013780133DBB2137076E0514B1B7813F0020FD2
:400D80000CD0504A137843F00A0313706022474B1A704FF400424C4B1A6064E04B4A137843F0100313701022494B1A700422023B1A7058E0424B1B7813F0020F0CD0414AFE
:400DC000137843F09A0313706022384B1A704FF400423D4B1A6046E03C4A137843F01003137010223A4B1A700422023B1A70354A137843F09003137035E0364A1378DBB2D1
:400E0000354908682C490978C9B2C15413780133DBB213701278D2B2304B1B78DBB29A4203D21022204B1A701DE0254B1B7813F0020F0CD0234A137843F0090313706022C2
:400E40001A4B1A704FF400421F4B1A600BE01F4A137843F0100313700022134B1A7002E00020FFF74DFE14F0200F1CD00F4B1B7813F0080F01D0012300E00223114A117821
:400E80000B431370114A137803F0EF0313701022064B1A7038BD054B1B7813F0100F02D11022024B1A7038BDD74900407CB9FF1F88B9FF1F80B9FF1FD849004089B9FF1F11
:400EC0008AB9FF1F8DB9FF1F80E100E0D6490040D94900408CB9FF1F84B9FF1F8BB9FF1F1A4B1B78DBB2102B29D1194B1B7813F0080F26D14FF40042164B1A604000C0B237
:400F000029B140F001004922104B1A7002E045220E4B1A70104B1870012201331A700F4B1B7813F0010FFAD00C4B1B7803F00A030A2B08D11022054B1A700320704702209C
:400F40007047012070470020704700BF7CB9FF1FD949004080E100E0D8490040D74900400A4B1B7813F0040F0ED01023074A13700421023A1170064A1370064B1B7813F016
:400F8000210FFAD00020704702207047D94900407CB9FF1FD7490040114B1B7813F0040F1BD0104B18700422013B1A7046220E4B1A700E4B1B7813F0010FFAD00B4B1B78B6
:400FC00013F0020F04D16022074B1A70002070476022054B1A70032070470220704700BFD9490040D84900407CB9FF1FD74900400230800803D000BF01380046FCD1704740
:40100000EFF3108072B6704780F31088704700BF014B1868704700BF30B9FF1F0E4B70B51E460E4C0025E41AA410A54204D056F8253098470135F8E700F050FB084B094C4D
:401040001E46E41AA4100025A54204D056F8253098470135F8E770BDE8160000E8160000E8160000F0160000024B0146186800F085B800BF30B9FF1F024B0146186800F0AB
:4010800031B800BF30B9FF1F10B5431E0A44914204D011F8014B03F8014FF8E710BD884210B501EB020301D8421E0BE09842FBD28118D21AD34204D013F8014D01F8014DC1
:4010C000F8E710BD994204D011F8014B02F8014FF8E710BD03460244934202D003F8011BFAE7704738B50546002944D051F8043C0C1F002BB8BFE41800F0B6F81E4A13681D
:40110000114613B96360146030E0A3420DD92268A018834201BF18685B681218226063600C6023E0A24203D813465A68002AF9D118681918A1420BD1216801445818824252
:40114000196013D110685268014419605A600DE002D90C232B6009E021686018824201BF106852680918216062605C602846BDE8384000F07AB838BD64B9FF1F70B5CD1C3B
:4011800025F0030508350C2D38BF0C25002D064601DBA94202D90C23336046E000F064F8234B1C681A462146A1B10B685B1B0ED40B2B03D90B60CC18CD501EE08C420BBF3B
:4011C00063684B681360636018BF0C4615E00C464968E9E7174C23681BB9304600F02CF820602946304600F027F8431C18D0C41C24F00304A0420DD12560304600F035F870
:4012000004F10B00231D20F00700C31A0ED05A42E25070BD211A304600F00EF80130EBD10C233360304600F020F8002070BD00BF64B9FF1F60B9FF1F38B5064C00230546A2
:4012400008462360FFF7EAFB431C02D1236803B12B6038BD90B9FF1F034613F8012B002AFBD1181A0138704770477047000000000000000000000000000000000000000064
:40128000000000000000000000000000000000000000000000000000000000000000000000000000000000000000000000000000000000000000000000000000000000002E
:4012C0000000000000000000000000000000000000000000000000000000000000000000000000000000000000000000007E000000000000000000000000000001C30000AC
:401300000000000003FFFF00000001F803010000000000003FFE01F80000070E0601000000000000C001000E0000040384008000000000030000000300000400CC0080002D
:401340000000000E00000000C0000400680080000000001800000000400006003800400000000030000000002000020030004000000000600200200030000300070040001F
:40138000000000400200200010000100010040000000008002002000080001803D8040000000018003002000080000C06080400000000100018020000C000060409CC0001B
:4013C00000000100000030000400003C408F80000000010000000000040000384081C000000001000000000004000020608070000000010000000000040000203580180008
:401400000000010000000080040000201F000C00000001002000008004000020040004000000010020000180040000200600040000000100300003000400002007000C00D4
:401440000000010018000200040000300DC03800000000800E000C00040000100C7FE000000000C003C3F8000C0000101C00000000000060007E00000800000864000000F7
:4014800000000030000000000800000FC6000000000000180000000010000000020000000000000C0000000030000000020000000000000300000000600000000200000052
:4014C00000000001C0000000C00000000201C000000000007000000380000000021F0000000000001E00001E0000000FC2F000000000000003F001F0000000007F800000B4
:4015000000000000001FFF00000000000200000000000000000000000000000002000000000000000002008000000000020000000000000E0002008000000000060000006F
:4015400000000003C00203800000000004000000000000007C020C00000000000C0000000000000007FF3800000000001E000000000000000002E000000000001300000038
:4015800000000000000280000000000071800000000000000003000000000000C0C00000000000000001000000000001807000000000000000010000000000030018000027
:4015C00000000000000100000000000E000C00000000000000032000000000180004000000000000000E3800000000300000000000000000003807F0000000E0000000000C
:401600000000000000E00000000001800000000000000000000000000000000000000000000000000000000000000000000000000000000000000000000000000000000049
:40164000000000000000000000000000000000000000000000000000000000000000000043415A5A4F4D454E45200A0D43415A5A492054554F49000000AED580A83FD300E8
:40168000408D142000A1C8DA1281CFD9F1DB40A4A6AF0000C84900401900005100401000205100405000F05100401000000001400010001401400006801A014080010040C1
:4016C0000140000A004C01400002005001402000001A0140E402004880004300F8B500BFF8BC08BC9E4670474D000000990A0000F8B500BFF8BC08BC9E46704729000000FC
:4017000010170000C880FF1F70380000600000000000000000F800F800F800F800F800F800F80070008800D8008800A800880070007000F800A800F800D800F800700050BC
:4017400000F800F800F800700020000000000020007000F80070002000000070007000F800F8002000F800000020007000F800F800F8002000F80000000000700070007011
:4017800000000000000000F800880088008800F80000000000700088008800880070000000F80088007000700070008800F8000000380018006800A0004000000070008849
:4017C000008800700020007000200020003000280020006000E000400008001800280048005800D800C0000000A8007000D8007000A80000000000400060007000600040F1
:40180000000000000010003000700030001000000020007000200020007000200000005000500050005000500000005000D800D800D800D800D800D800D80000002000A8C8
:4018400000A800880070000000000038003000A8008800880070000000200070002000700020007000000020007000200020002000000000002000200020007000200000A8
:4018800000000000001000F800100000000000000000004000F800400000000000800080008000800080008000F800000000005000F8005000000000000000000020007078
:4018C00000F8000000000000000000F800700020000000000000000000000000000000000000002000200020002000200000002000500050005000000000000000000000B8
:40190000005000F8005000F8005000000020007000800070000800700020000000C800D000200058009800000020005000500020005000F80010002000200020000000006F
:401940000000000000100020004000400040002000100040002000100010001000200040000000200070002000500000000000000020002000F800200020000000000000DF
:401980000000000000200020004000000000000000F80000000000000000000000000000000000000020000000080010002000400080000000600090009000900090009067
:4019C0000060002000600020002000200020007000600090001000200040008000F000600090001000200010009000600020006000A000F000200020007000F00080008077
:401A0000006000100090006000600090008000E000900090006000E00010001000200040004000400060009000900060009000900060006000900090007000100090006046
:401A4000000000000020000000200000000000000000002000000020002000400000002000400080004000200000000000000070000000700000000000000020001000082E
:401A8000001000200000006000900090002000200000002000700088009800A800B00080007000700088008800F800880088008800F00088008800F00088008800F00078C6
:401AC00000800080008000800080007800E00090008800880088009000E000780080008000F000800080007800780080008000F000800080008000700088008000B80088F6
:401B000000880070008800880088007000880088008800F80020002000200020002000F800F800200020002000A000A000400090009000A000C000A000900088008000806D
:401B4000008000800080008000F8008800D800A800A80088008800880088008800C800A8009800880088007000880088008800880088007000F00088008800F00080008085
:401B80000080007000880088008800A80070001800F00088008800F000A00090008800780080008000700008000800F000F80020002000200020002000200088008800888D
:401BC0000088008800880070008800880088008800880050002000880088008800A800A800A8005000880088005000200050008800880088008800500020002000200070D5
:401C000000F80008001000200040008000F8007000400040004000400040007000000080004000200010000800000070001000100010001000100070002000500000000004
:401C400000000000000000000000000000000000000000F8002000100000000000000000000000000000007000080078008800700080008000B000C800880088007000005C
:401C80000000007800800080008000780008000800680098008800880070000000000070008800F000800070001800200070002000200020007000000070008800880078DC
:401CC000000800700080008000B000C80088008800880000002000000060002000200070000000100000007000100090006000800080009000A000C000A00090006000200C
:401D00000020002000200020007000000000005000A800A800A800A80000000000B000C800880088008800000000007000880088008800700000000000700088008800F0CB
:401D400000800000000000700088008800780008000000000068003000200020007000000000007800800070000800F00000004000F0004000400040003000000000008893
:401D800000880088009800680000000000880088008800500020000000000088008800A800A80050000000000088005000200050008800000000008800500020002000C0B3
:401DC0000000000000F800100020004000F800100020002000400020002000100020002000200020002000200020004000200020001000200020004000000000004000A8CB
:401E000000100000000000780080008000800080007800200050000000880088008800980068001000200070008800F00080007000200050007000080078008800700050EA
:401E4000000000700008007800880070004000200070000800780088007000200000007000080078008800700000000000780080008000780020002000500070008800F0C2
:401E800000800070005000000070008800F000800070004000200070008800F000800070005000000000006000200020007000200050000000600020002000700040002092
:401EC00000000060002000200070005000000070008800F800880088002000000070008800F8008800880010002000F8008000F0008000F80000000000D00028007000A04A
:401F00000058007800A000A000F800A000A000B800200050007000880088008800700050000000700088008800880070004000200070008800880088007000200050008821
:401F40000088008800980068004000200088008800880098006800500000008800500020002000C00050007000880088008800880070005000880088008800880088007079
:401F8000000000000070009800A800C8007000300040002000F00040008000F800700088009800A800C8008800700050002000500000000000000000001800200020007081
:401FC0000020002000C000100020007000080078008800700010002000000060002000200070001000200070008800880088007000100020008800880088009800680028F1
:40200000005000B000C800880088008800280050008800C800A800980088006000100030005000200000000000200050002000000000000000000020000000200020009020
:40204000009000600000007000A800B800A80070000000000000000000F80008000000000000004800100020004800880000000000480010002000580098000000000000D8
:402080000020000000200020002000000028005000A0005000280000000000A000500028005000A0000000A8005000A8005000A8005000A800F80000000000F80000000088
:4020C00000F800F8000000F8000000F8000000F8002000200020002000200020002000200020002000E0002000200020001000200070008800F80088008800200050007078
:40210000008800F800880088004000200070008800F8008800880000007000A800C800A8007000000050005000D0001000D000500050005000500050005000500050005097
:402140000000000000F0001000D0005000500050005000D0000100F0000000000002007800800080008000780020005000500020007000200070002000000000000000E03C
:40218000002000200020002000200020003800000000000000200020002000F800000000000000000000000000F8002000200020002000200020003800200020002000007F
:4021C0000000000000F800000000000000200020002000F80020002000200028005000700008007800880070002800500070008800F80088008800500050005800400078A7
:402200000000000000000000007800400058005000500050005000D8000000F8000000000000000000F8000000D800500050005000500058004000580050005000000000DE
:4022400000F8000000F8000000000050005000D8000000D80050005000F80050005000F8000000000000005000200070008800880088007000700048004800E8004800488E
:4022800000700020005000F8008000F0008000F80050000000F8008000F0008000F80040002000F8008000F0008000F800000000000000600020002000700010002000F8B6
:4022C00000200020002000F80020005000F800200020002000F80050000000F800200020002000F800200020002000E000000000000000000000000000380020002000204E
:4023000000F800F800F800F800F800F800F8000000000000000000F800F800F800000020002000000020002000000000000000F800F800F80000000000F800F800F800F8A5
:40234000000000000000001000200078008800880088007000E0009000E000900088008800F0002000500078008800880088007000400020007800880088008800700028D5
:402380000050007800880088008800700028005000780088008800880070000000000088008800C800B0008000C00050006800680050004000E000E00040007000480070B5
:4023C000004000E0001000A8008800880088008800700020005000880088008800880070004000A80088008800880088007000100020008800500020002000C000100020C5
:402400000088005000200020007000F8000000000000000000000000001000200000000000000000000800000000000000700000000000000020002000F8002000200000FC
:4024400000F8000000000000000000F8000000F80000004800D000200058009800000078009800980078001800180078007800A0009000880048002800F0000000200000D4
:4024800000F8000000200000000000000000000000300030006000200050002000000000000000000050000000000000000000000000000000300030000000000000000004
:4024C00000200060002000200070000000000060001000200010003000000000006000100030004000700000000000F800F800F800F80000000000000000000000000000AC
:402500000000000000000000000000000000000000000000C0FFC0FFC0FFC0FFC0FFC0FFC0FFC0FFC0FFC0FFC0FFC0FFC0FFC0FF0000001E0021804040B340B340804080C4
:4025400040A1409E80400021001E00000000001E003F807FC0CCC0CCC0FFC0FFC0DEC0E1807F003F001E000000008061C0F3C0FFC0FFC0FFC0FF807F807F003F003F001EE6
:40258000000C000000000000000C001E003F807FC0FFC0FF807F003F001E000C000000000000000C001E001E001E806DC0FFC0FFC0FF806D000C001E003F00000000000CCF
:4025C000001E003F003F807F807FC0FFC0FFC0FF806D001E003F0000000000000000001E003F807F807F807F807F003F001E000000000000C0FFC0FFC0FFC0E1C0C07080B6
:40260000708070807080C0C0C0E1C0FFC0FFC0FF000000000000001E002180408040804080400021001E000000000000C0FFC0FFC0FFC0E1C0DE70BF70BF70BF70BFC0DE18
:40264000C0E1C0FFC0FFC0FF0000C003C0004001403E004200810081008100810042403E0000000000000000001C00220041004100410022001C00080008003E000800009F
:4026800000000004000600060005000580048004003C004400440044003800000000C000C00140034006800CC00B400C807C808C808B0088007000000000000000000008F8
:4026C0000049003E002280E30022003E00490008000000000000002000300030003C003E003F003F003E003C00380030002000000000000100030007000F001F003F003FEC
:40270000001F000F0007000300010000000000000008001C002A0008000800080008002A001C00080000000000000000001200120012001200120012001200120000001202
:40274000000000000000000000330033003300330033003300330033003300330000000000000000000800080049808880888088808080800041003E00000000000000006B
:40278000800700060045808480808080808080800041003E00000000000000000008001C002A000800080008002A001C0008003E00000000000000000008001C002A00087C
:4027C00000080008000800080008000800000000000000000008000800080008000800080008002A001C000800000000000000000000000000020001807F0001000200001E
:402800000000000000000000000000000000000000010002807F0002000100000000000000000000000000400040004000400040004000400040004000400040807F0000D4
:40284000000000000000000020010021807F00210012000000000000000000000000000000000000000CE001003F807FC0FFC0FF000000000000000000000000000000003B
:40288000C0FFC0FF807F003FE001000C000000000000000000000000000000000000000000000000000000000000000000000000000000000008000800080008000800083F
:4028C0000008000800000008000000000012001200120012000000000000000000000000000000000000000000000000000000120012807F00120012807F0012001200000E
:4029000000000000000000080008003F00480048003C000A00090009007E00080008000000000000007080880089008A007400080017802880488088000700000000001C19
:402940000044004400440044001C003800484084808200818042403C0008000800080008000000000000000000000000000000000000000000060008001000100020002098
:4029800000200020002000200010001000080006001800040002000200010001000100010001000100020002000400180000002A001C003E001C002A000000000000000059
:4029C0000000000000000000000000000000000800080008007F00080008000800000000000000000000000000000000000000000000000000000000000000040004000818
:402A0000000000000000000000000000007F0000000000000000000000000000000000000000000000000000000000000000000000000000000C000C0000800080000001FE
:402A400000020004000400080010001000200004000400000000003E004180808081808280848088809080A080C080800041003E0000000800180028004800880008000857
:402A80000008000800080008000880FF0000003E0041808080808000000100020004000800100020004080FF0000003E00418080808080000001000E0001800080808080E3
:402AC0000041003E000000020006000A001200220042008280FF00020002000200020002000080FF0080008000800080007E000180008000808080800041003E0000003F08
:402B0000804000800080008000BE00C180808080808080800041003E000000FF8000800080000001000200040008000800080008000800080000003E004180808080808022
:402B40000041003E00418080808080800041003E0000003E004180808080808080808041803E8000800080000081007E000000000000000000180018000000000000000069
:402B800000180018000000000000000000000000001800180000000000000018001800080008001000000000000200040008001000200040002000100008000400020000A9
:402BC00000000000000000000000007F00000000007F0000000000000000000000000000004000200010000800040002000400080010002000400000003E0041808080805E
:402C00008000000100020004000800080008000000000008003E00418080408040804080408E409240A240A24092808F0040003F003F804040804080408040804080C0FFEC
:402C400040804080408040804080408000FF8080408040804080808080FF80804080408040804080808000FF803F40400080008000800080008000800080008000800080D8
:402C80004040803F00FE00818080408040804080408040804080408040804080808000FFC07F00800080008000800080007C008000800080008000800080C07FC07F00805E
:402CC0000080008000800080007C0080008000800080008000800080003F804040800080008000800080C08F40804080408040808040003F4080408040804080408040804B
:402D0000807F4080408040804080408040804080007F000800080008000800080008000800080008000800080008007FC0FF000200020002000200020002000200020082A5
:402D4000008200820044003800810081008100820084008800F000880084008200818080408040800080008000800080008000800080008000800080008000800080C0FF04
:402D80004080C0C040A140A140924092408C40804080408040804080408040804080408040C040A040904088408440824081C0804080408040804080003F80404080408063
:402DC000408040804080408040804080408040808040003F00FF80804080408040804080808000FF008000800080008000800080003F804040804080408040804080408057
:402E0000408040888048003F0004C00300FF80804080408040804080808000FF008800840082008180804080C03F00400080008000800040003800078000400040004000F1
:402E4000800000FF80FF00080008000800080008000800080008000800080008000800084080408040804080408040804080408040804080408040808040003F408040806D
:402E800040804080408040804080408040808040002100210012000C40804080408040804080408040804080408040804080408C8052002140804080408080400021001280
:402EC000000C000C0012002180404080408040808080808080808080004100220014000800080008000800080008007FC0FF40004000800000010002000400080010002063
:402F0000004000800080C0FF003F002000200020002000200020002000200020002000200020003F00000040004000200010001000080004000200020001800080000000C3
:402F4000003F000100010001000100010001000100010001000100010001003F000C0012002100000000000000000000000000000000000000000000000000000000000088
:402F8000000000000000000000000000000000000000807F000800080008000800000000000000000000000000000000000000000000000000000000003E00418000803E35
:402FC00080418080808080800041003E008000800080008000BE00C18080808080808080808080800041003E0000000000000000003F004000800080008000800080008014
:403000000040003F8000800080008000803E80418080808080808080808080800041003E0000000000000000003E004180808080808000C100BE00808040003F0006000987
:40304000801080100010007C0010001000100010001000100010007C0000000000000000803E80418080808080808041803E80000041003E0080008000800080009E00A17C
:4030800080C080808080808080808080808080800000000000000000000800000000003800080008000800080008003E000000000000000000020000003E000200020002E4
:4030C000004200420022001800800080008000800081008200840088009000F800840082008180800000003800080008000800080008000800080008000800080008003E26
:40310000000000000000000000360049808880888088808080808080808080800000000000000000009E00A180C08080808080808080808080808080000000000000000079
:40314000003E00418080808080808080808080800041003E000000000000000000BE00C180808080808000C100BE0080008000800000000000000000803E80418080808054
:4031800080808041803E8000800080000000000000000000802740284010001000100010001000100010007C0000000000000000803F0040008000800078000F800080004F
:4031C000000100FE0000000000080018807F0008000800080008000800080008000800070000000000000000808080808080808080808080808080800041003E00000000EB
:403200000000000080808080808080808080808000410022001400080000000000000000808080808080808080808088808880880055002200000000000000008080808080
:4032400000410022001C001C002200418080808000000000000000008080808000410022001400080008000800080070000000000000000080FF800000010002000400182B
:4032800000200040008080FF000E001000100020002000200040004000200020002000100010000E00080008000800080008000800080008000800080008000800080008A3
:4032C000001C000200020001000100018000800000010001000100020002001C00000000000000000000807080880087000000000000000000000000007800800080008011
:40330000008000780020000000000000000000000000000000500000008800880088009800680000000000000000000000000000001000200070008800F000800070000085
:4033400000000000000000000000000000200050007000080078008800700000000000000000000000000000005000000070000800780088007000000000000000000000BD
:4033800000000000004000200070000800780088007000000000000000000000000000000020000000700008007800880070000000000000000000000000000000000000BD
:4033C000007800800080007800200000000000000000000000000000002000500070008800F0008000700000000000000000000000000000005000000070008800F00080BD
:4034000000700000000000000000000000000000004000200070008800F0008000700000000000000000000000000000005000000000006000200020007000000000000084
:40344000000000000000000000200050000000600020002000700000000000000000000000000000004000200000006000200020007000000000000000000000000000005C
:40348000005000000070008800F8008800880000000000000000000000000000002000000070008800F80088008800000000000000000000000000000010002000F80080F4
:4034C00000F0008000F800000000000000000000000000000000000000D00028007000A000580000000000000000000000000000007800A000A000F800A000A000B800005C
:4035000000000000000000000000000000200050007000880088008800700000000000000000000000000000005000000070008800880088007000000000000000000000DB
:40354000000000000040002000700088008800880070000000000000000000000000000000200050008800880088009800680000000000000000000000000000004000200B
:4035800000880088008800980068000000000000000000000000000000500000008800500020002000C000000000000000000000000000000050007000880088008800886B
:4035C0000070000000000000000000000000000000500088008800880088008800700000000000000000000000000000000000000070009800A800C800700000000000000B
:40360000000000000000000000300040002000F00040008000F8000000000000000000000000000000700088009800A800C80088007000000000000000000000000000005A
:403640000050002000500000000000000000000000000000000000000000000000180020002000700020002000C0000000000000000000000000000000100020007000081A
:4036800000780088007000000000000000000000000000000010002000000060002000200070000000000000000000000000000000100020007000880088008800700000B2
:4036C000000000000000000000000000001000200088008800880098006800000000000000000000000000000028005000B000C8008800880088000000000000000000007A
:403700000000000000280050008800C800A8009800880000000000000000000000000000006000100030005000200000000000000000000000000000000000000020005079
:40374000002000000000000000000000000000000000000000000000002000000020002000900090006000000000000000000000000000000000007000A800B800A8007061
:403780000000000000000000000000000000000000000000000000F800080000000000000000000000000000000000000000004800100020004800880000000000000000C1
:4037C00000000000000000000000004800100020005800980000000000000000000000000000000000000000002000000020002000200000000000000000000000000000E1
:4038000000000028005000A00050002800000000000000000000000000000000000000A000500028005000A00000000000000000000000000000000000A8005000A8005000
:4038400000A8005000A8000000000000000000000000000000F80000000000F80000000000F8000000000000000000000000000000F8000000F8000000F8000000F80000E0
:403880000000000000000000000000000020002000200020002000200020000000000000000000000000000000200020002000E00020002000200000000000000000000088
:4038C00000000000001000200070008800F8008800880000000000000000000000000000002000500070008800F800880088000000000000000000000000000000400020C8
:403900000070008800F80088008800000000000000000000000000000000007000A800C800A80070000000000000000000000000000000000050005000D0001000D00050EF
:4039400000500000000000000000000000000000005000500050005000500050005000000000000000000000000000000000000000F0001000D00050005000000000000057
:4039800000000000000000000050005000D0000100F00000000000000000000000000000000000000002007800800080008000780020000000000000000000000000000014
:4039C0000050005000200070002000700020000000000000000000000000000000000000000000E0002000200020000000000000000000000000000000200020002000380F
:403A0000000000000000000000000000000000000000000000200020002000F8000000000000000000000000000000000000000000000000000000F80020002000200000D6
:403A40000000000000000000000000000020002000200038002000200020000000000000000000000000000000000000000000F80000000000000000000000000000000056
:403A80000000000000200020002000F80020002000200000000000000000000000000000002800500070000800780088007000000000000000000000000000000028005076
:403AC0000070008800F800880088000000000000000000000000000000500050005800400078000000000000000000000000000000000000000000000078004000580050B6
:403B0000005000000000000000000000000000000050005000D8000000F80000000000000000000000000000000000000000000000F8000000D80050005000000000000055
:403B40000000000000000000005000500058004000580050005000000000000000000000000000000000000000F8000000F800000000000000000000000000000000000025
:403B80000050005000D8000000D800500050000000000000000000000000000000F80050005000F8000000000000000000000000000000000000000000500020007000881D
:403BC000008800880070000000000000000000000000000000700048004800E800480048007000000000000000000000000000000020005000F8008000F0008000F800000D
:403C00000000000000000000000000000050000000F8008000F0008000F800000000000000000000000000000040002000F8008000F0008000F80000000000000000000014
:403C400000000000000000000000006000200020007000000000000000000000000000000010002000F800200020002000F800000000000000000000000000000020005044
:403C800000F800200020002000F800000000000000000000000000000050000000F800200020002000F8000000000000000000000000000000200020002000E000000000D4
:403CC000000000000000000000000000000000000000000000000038002000200020000000000000000000000000000000F800F800F800F800F800F800F800000000000064
:403D00000000000000000000000000000000000000F800F800F80000000000000000000000000000000000200020000000200020000000000000000000000000000000001B
:403D40000000000000F800F800F800000000000000000000000000000000000000F800F800F800F8000000000000000000000000000000000000000000100020007800884B
:403D8000008800880070000000000000000000000000000000E0009000E000900088008800F0000000000000000000000000000000200050007800880088008800700000B3
:403DC00000000000000000000000000000400020007800880088008800700000000000000000000000000000002800500078008800880088007000000000000000000000EB
:403E00000000000000280050007800880088008800700000000000000000000000000000000000000088008800C800B00080000000000000000000000000000000C0005072
:403E4000006800680050004000E0000000000000000000000000000000E00040007000480070004000E00000000000000000000000000000001000A80088008800880088C2
:403E80000070000000000000000000000000000000200050008800880088008800700000000000000000000000000000004000A8008800880088008800700000000000001A
:403EC000000000000000000000100020008800500020002000C000000000000000000000000000000010002000880050002000200070000000000000000000000000000002
:403F000000F80000000000000000000000000000000000000000000000000000001000200000000000000000000800000000000000000000000000000000000000000070E1
:403F400000000000000000000000000000000000000000000020002000F800200020000000F80000000000000000000000000000000000000000000000F8000000F80000E1
:403F80000000000000000000000000000000004800D00020005800980000000000000000000000000000000000780098009800780018001800780000000000000000000011
:403FC00000000000007800A0009000880048002800F0000000000000000000000000000000000020000000F8000000200000000000000000000000000000000000000000F9
:4040000000000000003000300060000000000000000000000000000000200050002000000000000000000000000000000000000000000000005000000000000000000000E0
:4040400000000000000000000000000000000000000000300030000000000000000000000000000000000000000000000020006000200020007000000000000000000000B0
:4040800000000000000000000060001000200010003000000000000000000000000000000000000000600010003000400070000000000000000000000000000000000000E0
:4040C00000F800F800F800F80000000000000000000000000000000000000000000000000000000000000000000000000000000000000000000000000000000000000000E0
:40410000000000000000000000000000000000000000000000FF00FF00FF00FF00FF00FF00010070008800D8008800A800880070007000F800A800F800D800F800700050F4
:4041400000F800F800F800700020000000000020007000F80070002000000070007000F800F8002000F800000020007000F800F800F8002000F800000000007000700070E7
:4041800000000000000000F800880088008800F80000000000700088008800880070000000F80088007000700070008800F8000000380018006800A000400000007000881F
:4041C000008800700020007000200020003000280020006000E000400008001800280048005800D800C0000000A8007000D8007000A80000000000400060007000600040C7
:40420000000000000010003000700030001000000020007000200020007000200000005000500050005000500000005000D800D800D800D800D800D800D80000002000A89E
:4042400000A800880070000000000038003000A80088008800700000002000700020007000200070000000200070002000200020000000000020002000200070002000007E
:4042800000000000001000F800100000000000000000004000F800400000000000800080008000800080008000F800000000005000F800500000000000000000002000704E
:4042C00000F8000000000000000000F8007000200000000000000000000000000000000000000020002000200020002000000020005000500050000000000000000000008E
:40430000005000F8005000F8005000000020007000800070000800700020000000C800D000200058009800000020005000500020005000F800100020002000200000000045
:404340000000000000100020004000400040002000100040002000100010001000200040000000200070002000500000000000000020002000F800200020000000000000B5
:404380000000000000200020004000000000000000F8000000000000000000000000000000000000002000000008001000200040008000000060009000900090009000903D
:4043C0000060002000600020002000200020007000600090001000200040008000F000600090001000200010009000600020006000A000F000200020007000F0008000804D
:40440000006000100090006000600090008000E000900090006000E0001000100020004000400040006000900090006000900090006000600090009000700010009000601C
:404440000000000000200000002000000000000000000020000000200020004000000020004000800040002000000000000000700000007000000000000000200010000804
:40448000001000200000006000900090002000200000002000700088009800A800B00080007000700088008800F800880088008800F00088008800F00088008800F000789C
:4044C00000800080008000800080007800E00090008800880088009000E000780080008000F000800080007800780080008000F000800080008000700088008000B80088CC
:4045000000880070008800880088007000880088008800F80020002000200020002000F800F800200020002000A000A000400090009000A000C000A0009000880080008043
:40454000008000800080008000F8008800D800A800A80088008800880088008800C800A8009800880088007000880088008800880088007000F00088008800F0008000805B
:404580000080007000880088008800A80070001800F00088008800F000A00090008800780080008000700008000800F000F800200020002000200020002000880088008863
:4045C0000088008800880070008800880088008800880050002000880088008800A800A800A8005000880088005000200050008800880088008800500020002000200070AB
:4046000000F80008001000200040008000F80070004000400040004000400070000000800040002000100008000000700010001000100010001000700020005000000000DA
:4046400000000000000000000000000000000000000000F8002000100000000000000000000000000000007000080078008800700080008000B000C8008800880070000032
:404680000000007800800080008000780008000800680098008800880070000000000070008800F000800070001800200070002000200020007000000070008800880078B2
:4046C000000800700080008000B000C80088008800880000002000000060002000200070000000100000007000100090006000800080009000A000C000A0009000600020E2
:404700000020002000200020007000000000005000A800A800A800A80000000000B000C800880088008800000000007000880088008800700000000000700088008800F0A1
:4047400000800000000000700088008800780008000000000068003000200020007000000000007800800070000800F00000004000F0004000400040003000000000008869
:4047800000880088009800680000000000880088008800500020000000000088008800A800A80050000000000088005000200050008800000000008800500020002000C089
:4047C0000000000000F800100020004000F800100020002000400020002000100020002000200020002000200020004000200020001000200020004000000000004000A8A1
:4048000000100000000000780080008000800080007800200050000000880088008800980068001000200070008800F00080007000200050007000080078008800700050C0
:40484000000000700008007800880070004000200070000800780088007000200000007000080078008800700000000000780080008000780020002000500070008800F098
:4048800000800070005000000070008800F000800070004000200070008800F000800070005000000000006000200020007000200050000000600020002000700040002068
:4048C00000000060002000200070005000000070008800F800880088002000000070008800F8008800880010002000F8008000F0008000F80000000000D00028007000A020
:404900000058007800A000A000F800A000A000B8002000500070008800880088007000500000007000880088008800700040002000700088008800880070002000500088F7
:404940000088008800980068004000200088008800880098006800500000008800500020002000C0005000700088008800880088007000500088008800880088008800704F
:40498000000000000070009800A800C8007000300040002000F00040008000F800700088009800A800C8008800700050002000500000000000000000001800200020007057
:4049C0000020002000C000100020007000080078008800700010002000000060002000200070001000200070008800880088007000100020008800880088009800680028C7
:404A0000005000B000C800880088008800280050008800C800A8009800880060001000300050002000000000002000500020000000000000000000200000002000200090F6
:404A4000009000600000007000A800B800A80070000000000000000000F80008000000000000004800100020004800880000000000480010002000580098000000000000AE
:404A80000020000000200020002000000028005000A0005000280000000000A000500028005000A0000000A8005000A8005000A8005000A800F80000000000F8000000005E
:404AC00000F800F8000000F8000000F8000000F8002000200020002000200020002000200020002000E0002000200020001000200070008800F8008800880020005000704E
:404B0000008800F800880088004000200070008800F8008800880000007000A800C800A8007000000050005000D0001000D00050005000500050005000500050005000506D
:404B40000000000000F0001000D0005000500050005000D0000100F0000000000002007800800080008000780020005000500020007000200070002000000000000000E012
:404B8000002000200020002000200020003800000000000000200020002000F800000000000000000000000000F80020002000200020002000200038002000200020000055
:404BC0000000000000F800000000000000200020002000F80020002000200028005000700008007800880070002800500070008800F800880088005000500058004000787D
:404C00000000000000000000007800400058005000500050005000D8000000F8000000000000000000F8000000D800500050005000500058004000580050005000000000B4
:404C400000F8000000F8000000000050005000D8000000D80050005000F80050005000F8000000000000005000200070008800880088007000700048004800E80048004864
:404C800000700020005000F8008000F0008000F80050000000F8008000F0008000F80040002000F8008000F0008000F800000000000000600020002000700010002000F88C
:404CC00000200020002000F80020005000F800200020002000F80050000000F800200020002000F800200020002000E0000000000000000000000000003800200020002024
:404D000000F800F800F800F800F800F800F8000000000000000000F800F800F800000020002000000020002000000000000000F800F800F80000000000F800F800F800F87B
:404D4000000000000000001000200078008800880088007000E0009000E000900088008800F0002000500078008800880088007000400020007800880088008800700028AB
:404D80000050007800880088008800700028005000780088008800880070000000000088008800C800B0008000C00050006800680050004000E000E000400070004800708B
:404DC000004000E0001000A8008800880088008800700020005000880088008800880070004000A80088008800880088007000100020008800500020002000C0001000209B
:404E00000088005000200020007000F8000000000000000000000000001000200000000000000000000800000000000000700000000000000020002000F8002000200000D2
:404E400000F8000000000000000000F8000000F80000004800D000200058009800000078009800980078001800180078007800A0009000880048002800F0000000200000AA
:404E800000F80000002000000000000000000000003000300060002000500020000000000000000000500000000000000000000000000000003000300000000000000000DA
:404EC00000200060002000200070000000000060001000200010003000000000006000100030004000700000000000F800F800F800F8000000000000000000000000000082
:404F0000000000000000000000000000000000000000000098B9FF1F0000000000000000000000000000000000000000000000000000000000000000DA1600000000000012
:404F40000000000000000000000000000000000000000000000000000000000000000000000000000000000000000000000000000000000000000000D0B8FF1F000000008B
:404F800000000000000000000000000000000000000000000000000000000000000000000000000000000000000000000000000000000000000000000000000000000000F1
:404FC00000000000000000000000000000000000000000000000000000000000000000000000000000000000000000000000000000000000000000000000000000000000B1
:405000000000000000000000000000000000000000000000000000000000000000000000000000000000000000000000000000000000000000000000000000000000000070
:405040000000000000000000000000000000000000000000000000000000000000000000000000000000000000000000000000000000000000000000000000000000000030
:020000040003F7
:0200000480007A
:40000000025200400365004002150140021701404C18014039190140351A01405B1B01400242014001430140054801400F4901400B4C01400B4D01400550014001510140C8
:4000400060826180883889728A0FE001EA05E204E4010E02100416011E022601280830083202340436013E55541858045B045F01804F811F8290836084FF856089208AB375
:400080008C428D40900394F39502960C980199019C4C9D749EA39F0BA008A164A31BA404A503A80CA97FAE40AF13B08CB104B20FB303B570B67CB708B980BAAABF01C04514
:4000C000C102C5E0C6B0C7C0C82AC9FFCAFFCBFFCEF0CF44D00CD602D713D804D904DA04DB04DF01E6C0EA40EB02002401020302070209210A210C010D880E80108013640B
:4001000014041708180419121A211B801D411E041F0421102209230A29922B103124338038AA3902424043204A4152115A025D016540670869146A8070D4732480808901B7
:400140008A088D01C08FC2BFC46FCA0FCC0ECE0FD005D208D681D830E204E401800C818082718313870888DC8A228C098ED0930C952C960397439C109EACA220A414A571F2
:40018000A70EA810AA40AD71AF06B21FB330B4E0B50FB7C0B988BA20BB20BF04C002C704C9FFCA07CBFFCC40CD20CEF0CF05D008D608D804D904DA04DB04DD90DF01E040C5
:4001C000E1A8E240E3200004014202050502070909600A400B100C040E200F02111413011501161819801A401B111E201F202021212423402404254027292A042B102E4019
:400200002F2031243240370939143E083F0140014115472049104D014F0151885608582159805A045C805D085E125F0165046710810282108320871289088C208D409136A6
:40024000928496409740988199109A119C049D04A410A5A8A601A732B010B180B401B501B610B710C0DFC2AFC47ECA52CCCECEC6D02FD204D67FD840E001EA053E10CE20B9
:400280009610810182209610E220E480110217047220771083049A209B10A501AA10AB10C430DC80DE20E080EAA01080132016207B087D20808083088C02C40EDE03E40217
:4002C0001040740281108840A002A510AA20AB20C408DE04E2011001110112141C011D0103C00000130004000A1314002013C0000300140013000C00800220294001200A74
:400300000010080000001500E0000004E0000000000000000F200010E003100C00000200000040404306020001000E0C14FFFFFF62A0F0410C000000010000000404040445
:400340000000000100000000000040020010301000101012000000000000000000000000000000009F00409C8300830000000000000B0B0000000000000000000000000021
:40038000000000000000000000000000000000000000000000000000000000000000000000000000000000000000000000000000000000000000000000000000000000003D
:4003C00000000000000000000000000000000000000000000000000000000000000000000000000000000000000000000000000000000000000000000000000000000000FD
:4004000000000000000000000000000000000000000000000000000000000000000000000000000000000000000000000000000000000000000000000000000000000000BC
:40044000000000000000000000000000000000000000000000000000000000000000000000000000000000000000000000000000000000000000000000000000000000007C
:0200000490006A
:0400000000004005B7
:0200000490105A
:04000000BC90ACAF55
:0200000490303A
:02000000DB988B
:0200000490402A
:4000000000000000000000000000000000000000000000000000000000000000000000000000000000000000000000000000000000000000000000000000000000000000C0
:400040000000000000000000000000000000000000000000000000000000000000000000000000000000000000000000000000000000000000000000000000000000000080
:400080000000000000000000000000000000000000000000000000000000000000000000000000000000000000000000000000000000000000000000000000000000000040
:4000C0000000000000000000000000000000000000000000000000000000000000000000000000000000000000000000000000000000000000000000000000000000000000
:0200000490501A
:0C00000000012E16106900012E26EC01F4
:00000001FF