:020000040800F2
:100000000000052045300008E50B0008E70B00085C
:10001000E90B0008EB0B0008ED0B000800000000E6
:10002000000000000000000000000000EF0B0008CE
:10003000F10B000800000000F30B0008F50B0008AE
:10004000953000089530000895300008953000087C
:10005000953000089530000895300008953000086C
:10006000953000089530000895300008953000085C
:10007000953000089530000895300008953000084C
:10008000953000089530000895300008953000083C
:10009000953000089530000895300008953000082C
:1000A000953000089530000895300008953000081C
:1000B000953000089530000895300008953000080C
:1000C00095300008953000089530000895300008FC
:1000D00095300008953000089530000895300008EC
:1000E00095300008953000089530000895300008DC
:1000F00095300008953000089530000895300008CC
:1001000095300008953000089530000895300008BB
:1001100095300008953000089530000895300008AB
:10012000953000089530000895300008953000089B
:10013000953000089530000895300008953000088B
:10014000953000089530000895300008953000087B
:10015000953000089530000895300008953000086B
:10016000953000089530000895300008953000085B
:100170009530000895300008953000080000000018
:10018000953000089530000895300008953000083B
:10019000953000089530000895300008953000082B
:1001A000953000089530000895300008953000081B
:1001B000953000089530000895300008953000080B
:0801C00095300008953000089D
:1001C80053B94AB9002908BF00281CBF4FF0FF31B6
:1001D8004FF0FF3000F00CB8ADF1080C6DE904CE1B
:1001E80003F0AAF8DDF804E0DDE9022304B0704763
:1001F800704700BF10B5054C237833B9044B13B1D1
:100208000448AFF300800123237010BD9C01002037
:1002180000000000FC35000808B5034B1BB103497A
:100228000348AFF3008008BD00000000A0010020D3
:10023800FC350008087350B970474868C25CD2435F
:10024800C25401339BB24A899A42F6D870470023B8
:10025800F9E74873032831D8DFE800F002170B24C8
:1002680000238B73CB7301220A744B748B74CA748A
:1002780070470B78013B8B730023CB730B74FF2201
:100288004A7401228A74CB7470470B78013B8B73D4
:100298004B78013BCB73FF230B7400224A748A749A
:1002A800CB74704700238B734A78013ACA730B7476
:1002B80001224A74FF228A74CB74704700238B731F
:1002C800CB7301220A744B748B74CA74704708B5D7
:1002D8000346017B01B1FF21586820B15A8902F019
:1002E80095FF002008BD0120FCE70346C00813F075
:1002F800070F00D0013070474278007A02FB00F007
:10030800704738B50446084621706270FFF7EDFF64
:1003180020722046FFF7F0FF608102F0B9FE6060AE
:100328000025A573E57325746574A574E5742046E6
:10033800FFF7CDFF21462846FFF77CFF21462846D8
:10034800FFF787FF284638BDC00802FB010080B2CE
:10035800704770B506460D461446022002F098FE16
:10036800A17B94F911C094F9103013FB06F30CFB30
:1003780005330B44037094F80FC094F9131094F9E3
:10038800123013FB06F301FB05310CEB010343703C
:1003980070BD2DE9F04190461C461A46FFF7D9FF7B
:1003A800054661784378994235D922780678B24271
:1003B80038D9227B12EA080719D132EA080202D199
:1003C800B8F1000F13D0D4F80480C91AC9B20139A2
:1003D800227AC9B23046FFF7B7FF18F8003006F0A6
:1003E800070680223241134308F8003014E067689A
:1003F800C91AC9B20139227AC9B23046FFF7A4FF37
:100408003A5C06F0070680233341DB435BB21340B6
:100418003B54002700E00427284602F041FE3846F6
:10042800BDE8F0810427F7E7F0B58DB00024079404
:10043800089409940A940B94364B1A6B42F0040200
:100448001A631A6B02F004020192019A1A6B42F0C5
:1004580080021A631A6B02F080020292029A1A6BE7
:1004680042F001021A631A6B02F001020392039A26
:100478001A6B42F002021A631A6B02F0020204922B
:10048800049A1A6B42F008021A631A6B02F0080207
:100498000592059A1A6B42F040021A631B6B03F02F
:1004A80040030693069B1C4F224644F281013846BE
:1004B80000F093FF194D22464021284600F08DFF99
:1004C8004FF4005307934FF488130893099407A92E
:1004D800134800F079FE44F2810307930126089639
:1004E80009940A9407A9384600F06EFE4023079342
:1004F800089609940A9407A9284600F065FE802307
:1005080007930894099407A9284600F05DFE0DB0EA
:10051800F0BD00BF0038024000040240001802404D
:100528000008024072B6FEE710B51448144B036089
:10053800144B00221A7080215970E1219970DA70E9
:100548001A715A7143604FF4000383600E4BC36005
:100558000E4B036140F2F453436100F0D7FD58B9E4
:100568000B4C38220021204602F050FE2123236044
:100578004FF44003636110BDFFF7D4FFA4070020C8
:1005880000800240B80100205C000020FC00002030
:100598005408002008B51148114B0360114B436003
:1005A800002383600122C260036143618361C361E8
:1005B800036201F051F850B90021084801F068F9C8
:1005C80038B90021054801F091F920B908BDFFF7B5
:1005D800A9FFFFF7A7FFFFF7A5FF00BF50070020FF
:1005E800005400403917300008B50B480B4B036026
:1005F8004FF4E133436000238360C36003610C223E
:1006080042618361C3610362436202F01CFB00B96B
:1006180008BDFFF787FF00BFC8060020004800405C
:1006280008B50B484FF0A04303600623436002223D
:10063800C2600023036182610122C26103624362D6
:10064800C262036301F07EF900B908BDFFF76AFFD3
:10065800C001002000B595B03022002108A802F0A2
:10066800D5FD00230393049305930693079301F0A4
:100678001BFA204B1A6C42F080521A641B6C03F070
:1006880080530193019B1C4A136823F4404343F4AD
:1006980080431360136803F440430293029B0123D1
:1006A80008934FF4A023099302230E934FF480027A
:1006B8000F9204221092482211921293032313934B
:1006C80008A801F0F9F980B90F23039302210491D6
:1006D800002305934FF480520692079303A801F074
:1006E80073FC20B915B05DF804FBFFF71BFFFFF79B
:1006F80019FF00BF003802400070004000B587B005
:1007080000F0A8FAFFF7A6FFFFF78EFEFFF70CFF31
:10071800FFF740FFFFF768FFFFF782FF40228021C5
:1007280001A8FFF7EEFD01A90020FFF783FD01A94D
:100738000220FFF78EFD01A90120FFF77BFD01AB29
:10074800012200210846FFF724FE01AB00221146D2
:100758001046FFF71EFE0D493C2000F031F801A8B5
:1007680000F04CF804E001221146094800F035FE7B
:100778004FF40051074800F029FE0028F3D1002269
:100788000121034800F029FEF2E700BF50070020CE
:10079800000402400008024000B583B002460B4640
:1007A8000A21009104490978044800F0B3FFFF20AA
:1007B80003B05DF804FB00BF900800208C080020FF
:1007C80010B588B00A4B18700A4B19600DF1040C6B
:1007D800094C0FCCACE80F0094E80700ACE8030024
:1007E800ACF800201A2101A8FFF7D6FF08B010BD09
:1007F800900800208C080020143600082DE9F043EA
:1008080083B000AF0446468906F10803DB086A4650
:10081800A2EBC3039D466D464FF0000887F80080A1
:1008280021237B7087F802800378013BFB70222329
:100838003B7187F805804378DB08013BBB710721D2
:100848003846FFF7A9FF40238DF80030C4464FF023
:10085800010E31E0636894F8089009FB020909EB7E
:10086800CC1913F809304FF0800949FA01F903EA65
:1008780009038B40C2F10709DBB243FA09F348EADE
:1008880003035FFA83F80132D2B2072AE2D905F8E6
:100898000E800131C9B20EF1010E072902D80022DB
:1008A8009046F2E70130C0B20F2801D80021F4E7E2
:1008B8000CF1010C1FFA8CFCBCF1070F01D80020C9
:1008C800F2E7711C89B22846FFF766FF0C37BD4670
:1008D800BDE8F08382B00A4B1A6C42F080521A6469
:1008E8001A6C02F080520092009A5A6C42F48042CC
:1008F8005A645B6C03F480430193019B02B0704718
:1009080000380240F0B58DB000230793089309938F
:100918000A930B9302683A4B9A4201D00DB0F0BD8E
:10092800A3F590431A6B42F000721A631A6B02F037
:1009380000720092009A1A6B42F080621A631A6B76
:1009480002F080620192019A1A6B42F000621A6307
:100958001A6B02F000620292029A1A6B42F00402C9
:100968001A631A6B02F004020392039A1A6B42F09C
:1009780001021A631A6B02F001020492049A1A6BBC
:1009880042F002021A631A6B02F002020592059AFB
:100998001A6B42F040021A631B6B03F04003069384
:1009A800069B322307930226089603250A950B24F3
:1009B8000B9407A9134800F007FC862307930896B1
:1009C800002709970A950B9407A90F4800F0FCFB2C
:1009D8004FF400530793089609970A950B9407A9B3
:1009E8000A4800F0F1FB4FF4205307930896099743
:1009F8000A950B9407A9064800F0E6FB8EE700BFAE
:100A0800008002400008024000000240000402404A
:100A18000018024010B5A8B0044600212391249183
:100A2800259126912791842202A802F0EFFB2268E3
:100A3800184B9A4201D028B010BD4FF4804302935E
:100A480002A801F09DFB10BB134C236B43F002037B
:100A58002363236B03F002030093009B4FF440735E
:100A680023931223249300232593032326930423FB
:100A7800279323A9094800F0A7FB236C43F400132C
:100A88002364236C03F400130193019BD3E7FFF75E
:100A980049FDD9E7005400400038024000040240F4
:100AA80010B5A8B0044600212391249125912691E0
:100AB8002791842202A802F0A9FB2268184B9A42C7
:100AC80001D028B010BD4FF48073029302A801F042
:100AD80057FB10BB134B1A6C42F480221A641A6C31
:100AE80002F480220092009A1A6B42F008021A63FC
:100AF8001B6B03F008030193019B4FF4407323938E
:100B08000223249301232593032326930723279362
:100B180023A9054800F058FBD3E7FFF703FDD9E701
:100B28000048004000380240000C024070B5AAB0EE
:100B38000446002125912691279128912991842204
:100B480004A802F063FB2368B3F1A04F01D02AB0D8
:100B580070BD4FF40013049304A801F011FB0028A2
:100B680035D11C4C236B43F001032363236B03F043
:100B780001030193019B4FF4E85325930223269325
:100B880000252795032328930A232993124E25A984
:100B9800304600F019FB4FF40073259326952795EE
:100BA80025A9304600F010FB636B43F080036363B4
:100BB800636B03F080030293029B636C43F48043EE
:100BC8006364636C03F480430393039BBFE7FFF7FD
:100BD800A9FCC6E70038024000000240FEE7FEE735
:100BE800FEE7FEE7FEE770477047704708B500F07C
:100BF8003DF808BD034AD2F8883043F47003C2F8C0
:100C08008830704700ED00E010B504460E4B1A78A6
:100C18004FF47A73B3FBF2F30C4A1068B0FBF3F0AD
:100C280000F09EF868B90F2C01D901200AE00022D3
:100C380021464FF0FF3000F083F8054B1C60002080
:100C480000E0012010BD00BF0400002000000020CB
:100C58000800002008B5032000F060F80020FFF726
:100C6800D3FFFFF737FE002008BD0000034A1168D4
:100C7800034B1B780B441360704700BF9408002097
:100C880004000020014B1868704700BF940800203A
:100C980038B50446FFF7F6FF0546B4F1FF3F02D02A
:100CA800044B1B781C44FFF7EDFF401BA042FAD30E
:100CB80038BD00BF04000020002804DB0901C9B2C8
:100CC800044B1954704700F00F000901C9B2024BD8
:100CD8001954704700E400E014ED00E000B500F09E
:100CE8000700C0F1070CBCF1040F28BF4FF0040C3B
:100CF800031D062B0FD9C31E4FF0FF3E0EFA0CF052
:100D080021EA000199400EFA03FE22EA0E0241EAA6
:100D180002005DF804FB0023EEE700000649CB68FB
:100D280023F4E0631B041B0C000200F4E06003439F
:100D3800024A1A43CA60704700ED00E00000FA0555
:100D480010B50446054BD868C0F30220FFF7C6FF6C
:100D580001462046FFF7B0FF10BD00BF00ED00E0E0
:100D68000138B0F1807F0BD24FF0E0235861054A7B
:100D7800F02182F823100020986107221A61704739
:100D88000120704700ED00E05079137943EA002311
:100D980007480B50D07893781B0443EA00635078D7
:100DA80043EA002312781343024A8B50704700BF6E
:100DB800408002404480024030B4002208E0C46809
:100DC800DC6051F80C3043F4400341F80C30013238
:100DD800032A1FD8C16802EB82034FEAC30C01EB58
:100DE800C303002441F80C405C609C60DC60941DE7
:100DF80040F8243051F80C4044F4801441F80C4079
:100E0800022ADCD8541C04EB8404C56805EBC4042E
:100E1800DC60D6E700238362C268036803F5805369
:100E28001A6130BC704700B54FF0000E03E002694C
:100E3800DA600EF1010EBEF1030F29D801690EEB3D
:100E48008E034FEAC30C01EBC303002241F80C20C8
:100E58005A609A60DA601A625A624FF0004241F8AA
:100E68000C2044F2F4525A605A6822F000425A6048
:100E78000EF1120240F82230BEF1020FD7D80169F4
:100E88000EF1010202EB820201EBC201D960D0E748
:100E98000023C36503668366C366836502690368C6
:100EA80003F58053DA605DF804FB000070B5054671
:100EB8000C46026813683B491940237C002B60D11B
:100EC8004FF40003607C00285DD14FF48000034399
:100ED800A0680343E07F43EA004360690343A07FBF
:100EE800002852D14FF400500343207F43EA0033D7
:100EF800A0690343207943EA802394F8200000285E
:100F080045D14FF400700343E07B43EAC013606AA5
:100F1800034394F8280043EA00130B4313602B683B
:100F28001E680120FFF7B4FE2B681E6029688A69D5
:100F380022F0BE021204120CA36C1B0494F84C009D
:100F480038BB80200343206D034394F855000128E3
:100F580021D00020034394F8560001281DD000201A
:100F6800034394F85400012819D000200343134385
:100F78008B612B689C690120FFF78AFE2B689C61B6
:100F880070BD00239EE70020A1E70020ACE7002009
:100F9800B9E70020D6E70820DCE70420E0E70220D4
:100FA800E4E700BF0F8120FF70B505460C460268D4
:100FB80002F580539B692B491940237B002B4DD1A7
:100FC8004FF08063607B43EA4063607F002847D12D
:100FD8004FF480100343A07B43EA40536069034306
:100FE800207F43EAC013A07F43EA8013206A0343AB
:100FF80094F8240043EA80030B4302F5805293617E
:101008002B6803F580539E690120FFF741FE2B688A
:1010180003F580539E612279A36843EA4263A2697B
:1010280013432269134394F8252043EAC213A26AA2
:1010380043EA8203226813432A6843F4000302F553
:10104800805213602B6803F580531C680120FFF75A
:101058001FFE2B6803F580531C6070BD0023B1E7A9
:101068000020B7E7233FDEF870B5A4B00646012597
:101078008DF83C508DF83D5000240D948DF84B4070
:101088008DF84A508DF848408DF830508DF84C4016
:101098008DF83B4014948DF854401D948DF8784099
:1010A8001F948DF882408DF880404FF48043109350
:1010B8004FF4006311938DF881400BA9FFF7F6FEFA
:1010C8008DF80C508DF80D508DF81D508DF80E5080
:1010D80005948DF81C408DF81E4008948DF8245016
:1010E8008DF804504FF4803302934FF48003069335
:1010F8004FF4005304938DF825500A9400946946E0
:101108003046FFF751FF24B070BD0000002855D0CD
:1011180030B583B00446D0F88430002B32D0284B49
:101128005A6C42F480425A645B6C03F48043019326
:10113800019B244B5A6822F400025A605A68A1683D
:101148000A435A605B68236803F580531A6842F0C3
:1011580001021A60FFF796FD0546236803F58053E0
:101168001B6813F0010F13D0FFF78CFD401BB0F57F
:10117800FA7FF2D90423C4F88830E023C4F8843015
:10118800012019E02323C0F88430FFF7BBFBC6E732
:101198002046FFF769FF2046FFF70EFE2046FFF7BF
:1011A80042FE626800212046FFF7EEFD0020C4F8E9
:1011B80088001023C4F8843003B030BD0120704784
:1011C800003802400038014000230F2B00F2F48061
:1011D80070B582B066E085684FEA430E032404FACE
:1011E8000EF425EA0405CC6804FA0EF42C43846056
:1011F800446824EA02044A68C2F300129A4022436F
:1012080042605DE0DC08083450F8242003F007054C
:10121800AD004FF00F0E0EFA05FE22EA0E0E0A6917
:10122800AA4042EA0E0240F824205DE0092200E0CC
:10123800002202FA0EF22A430234604D45F82420B7
:101248005F4A94686FEA0C0224EA0C054E6816F4AB
:10125800801F01D04CEA0405594CA560E46802EAF5
:1012680004054E6816F4001F01D04CEA0405544CDE
:10127800E560646802EA04054E6816F4003F01D090
:101288004CEA04054E4C6560246822404D6815F40C
:10129800803F01D04CEA0402494C226001330F2BF5
:1012A80000F2888001229A400C6804EA020C32EAB3
:1012B8000404F3D14C6804F00304013C012C8AD9DE
:1012C8004A6802F00302032A09D0C4685D000322B9
:1012D800AA4024EA02048A68AA402243C2604A68F3
:1012E80002F00302022A8DD004684FEA430E03225B
:1012F80002FA0EF224EA02044A6802F0030202FA31
:101308000EF2224302604A6812F4403FC6D02D4ACA
:10131800546C44F480445464526C02F48042019248
:10132800019A9C08A51C254A52F8255003F0030E83
:101338004FEA8E0E0F2202FA0EF225EA0205224A21
:1013480090423FF475AF02F58062904222D002F5D8
:101358008062904220D002F5806290421ED002F551
:10136800806290421CD002F5806290421AD002F549
:101378008062904218D002F58062904216D002F541
:101388008062904214D002F5806290423FF44EAFE2
:101398000A224EE701224CE702224AE7032248E7E5
:1013A800042246E7052244E7062242E7072240E7EF
:1013B80008223EE702B070BD704700BF0038014008
:1013C800003C014000380240000002400369194215
:1013D80001D001207047002070470AB18161704731
:1013E80009048161704703689A6912F0020F01D0FD
:1013F80000229A6203689A6912F0010F03D19A6970
:1014080042F001029A61704710B4019CC1F30901CE
:1014180041EA02411943214321F00041026853681F
:10142800640D04F4806444F07F7444F4583444F444
:101438007F7444F0030423EA04030B4353605DF80C
:10144800044B70472DE9F041044603689E6916F085
:1014580010067ED00D4690461022DA6100263746E7
:101468002368986910F0200F32D18FBBB5F1FF3F88
:10147800F6D0FFF707FCA0EB0800A84201D8002D22
:10148800EED121684A6802F4804294F84230DBB217
:10149800886910F4004F04D0203B18BF012302B91B
:1014A80073B923689B6913F0200FD9D1FFF7EAFBC2
:1014B800A0EB08001928F4D946F020060127CFE749
:1014C8004B6843F480434B60FFF7DCFB8046E8E75A
:1014D8000FB92022DA6146F00406012522689369D3
:1014E80013F4807F05D046F001064FF48071D16176
:1014F800012513F4806F06D046F0080622684FF4E1
:101508008061D161012513F4007F24D046F00206E2
:1015180023684FF40072DA6101252046FFF763FF64
:101528002268536823F0FF7323F48B3323F4FF738B
:1015380023F001035360636C33436364202384F80E
:101548004130002384F8423084F840302846BDE812
:10155800F0810025C2E7002DF8D0DEE770B504461B
:101568000D46164623689B6913F0020F1DD13246BB
:1015780029462046FFF766FFC8B9B5F1FF3FF1D00D
:10158800FFF780FB801BA84201D8002DEAD1636CCD
:1015980043F020036364202384F84130002384F857
:1015A800423084F84030012000E0002070BD012066
:1015B800FCE72DE9F0410646884617461D46346883
:1015C800A46938EA04040CBF01240024BC4218D1E1
:1015D800B5F1FF3FF3D0FFF755FB069BC01AA842B1
:1015E80001D8002DEBD1736C43F0200373642023E2
:1015F80086F84130002386F8423086F840300120D2
:1016080000E00020BDE8F08170B505460C4616469E
:101618002B689B6913F0200F1AD1324621462846C1
:10162800FFF710FFB0B9FFF72DFB801BA04201D8D0
:10163800002CEDD16B6C43F020036B64202385F8FC
:101648004130002385F8423085F84030012070BDD4
:101658000020FCE70120FAE7002857D010B504461F
:1016680090F84130002B41D0242384F8413022687F
:10167800136823F0010313606368226823F0706322
:1016880013612268936823F400439360E368012B95
:1016980031D0A368226843F404439360E368022BC3
:1016A8002FD0226851681A4B0B4353602268D368C5
:1016B80023F40043D360236962691343A169226854
:1016C80043EA0123D360E369216A22680B4313606C
:1016D8002268136843F0010313600020606420232C
:1016E80084F84130206384F8420010BD80F840300F
:1016F800FFF790F9B8E7A368226843F400439360C2
:10170800CCE723684FF400625A60CAE701207047AB
:10171800008000022DE9F04782B00F460A9E90F83B
:101728004110C9B2202940F0A3800446904699464A
:1017380090F84030012B00F09F804FF0010A80F8AC
:1017480040A0FFF79FFA05460090192352464FF430
:1017580000412046FFF72DFF002840F08F8021230D
:1017680084F84130102384F8423000236364C4F8BD
:101778002480A4F82A906363638D9BB2FF2B0AD957
:10178800FF222285414B00934FF080733946204653
:10179800FFF73AFE18E0628D92B222853B4B009328
:1017A8004FF00073D2B239462046FFF72DFE0BE00A
:1017B800628D92B22285002300934FF00073D2B25B
:1017C80039462046FFF720FE638D9BB2002B33D0AD
:1017D8002A4631462046FFF7C1FE002850D1626AEA
:1017E800236812789A62636A01336362638D9BB2DD
:1017F800013B9BB26385238D013B9BB22385628DA0
:1018080092B2002AE0D0002BDED1009533460022A8
:1018180080212046FFF7CDFEA0BB638D9BB2FF2B36
:10182800C6D9FF222285002300934FF080733946E2
:101838002046FFF7E9FDC7E72A4631462046FFF76D
:10184800E3FE08BB23682022DA6121684B6823F095
:10185800FF7323F48B3323F4FF7323F001034B60EE
:1018680084F84120002384F8423084F8403000E0B6
:10187800022002B0BDE8F0870220FAE70120F8E76D
:101888000120F6E70120F4E70120F2E700200080BC
:10189800034690F84120D2B2202A23D190F8402064
:1018A800012A21D0012280F84020242280F84120FA
:1018B8000068026822F0010202601868026822F4D7
:1018C80080520260186802681143016019680A684A
:1018D80042F001020A60202283F84120002083F8A8
:1018E800400070470220704702207047034690F876
:1018F8004120D2B2202A21D190F84020012A1FD0BD
:10190800012280F84020242280F8412000680268E3
:1019180022F0010202601868026822F4706242EA4A
:101928000122026019680A6842F001020A60202256
:1019380083F84120002083F8400070470220704758
:101948000220704770B58AB0002800F097800546DD
:10195800046890F8BD343BB3032385F8BD34E36BCA
:1019680013F4807F01D100232B61286801F002FA6B
:101978002C4654F8106BEC460FCCACE80F000FCC9B
:10198800ACE80F0094E803008CE803002B1D0ECB95
:10199800304601F0B1F9044658B1022385F8BD3448
:1019A800012420460AB070BD80F8BC34FFF7BEF8A9
:1019B800D2E70021286801F00FFB234616E003EB6D
:1019C800C30205EB8202012182F83D1082F83C3007
:1019D800A2F84430002182F840109164D16403EBEE
:1019E800C30205EB820251650133DBB269688B42A1
:1019F800E5D316E004EBC40305EB8303002283F868
:101A08007D2283F87C4283F88022C3F88822C3F8B9
:101A18008C2204EBC40305EB8303C3F8942201343E
:101A2800E4B2A142E6D82C4654F8106BEC460FCC31
:101A3800ACE80F000FCCACE80F0094E803008CE88A
:101A480003002B1D0ECB304601F0F0F9044660B9B7
:101A5800002385F83830012385F8BD346B6A012BE3
:101A680008D0286801F0A6FA9BE7022385F8BD3460
:101A7800012496E7284600F003F8F2E7012490E7EE
:101A8800034602680121C0F80015002083F8F40419
:101A9800936943F000639361516D024B0B435365A7
:101AA800704700BF03000010024A136843F48073B4
:101AB8001360704700700040002800F0FF8170B587
:101AC80082B00446036813F0010F29D0954B9B6838
:101AD80003F00C03042B1AD0924B9B6803F00C0301
:101AE800082B0FD06368B3F5803F40D0002B54D14A
:101AF8008C4B1A6822F480321A601A6822F4802209
:101B08001A6039E0874B5B6813F4800FEAD0854B85
:101B18001B6813F4003F03D06368002B00F0D081EA
:101B2800236813F0020F74D07E4B9B6813F00C0FE0
:101B38005ED07C4B9B6803F00C03082B53D0E36802
:101B4800002B00F08980774A136843F00103136083
:101B5800FFF798F80546734B1B6813F0020F72D114
:101B6800FFF790F8401B0228F5D90320ADE16D4A34
:101B7800136843F48033136063682BB3FFF782F86C
:101B88000546684B1B6813F4003FC9D1FFF77AF884
:101B9800401B6428F5D9032097E1B3F5A02F09D09D
:101BA800604B1A6822F480321A601A6822F4802284
:101BB8001A60E1E75B4B1A6842F480221A601A68DF
:101BC80042F480321A60D7E7FFF75CF80546554BB8
:101BD8001B6813F4003FA3D0FFF754F8401B642898
:101BE800F5D9032071E14F4B5B6813F4800FA6D140
:101BF8004C4B1B6813F0020F03D0E368012B40F035
:101C08006181484A136823F0F803216943EAC10354
:101C18001360236813F0080F46D0636983B3414A01
:101C2800536F43F001035367FFF72CF805463D4B0C
:101C38005B6F13F0020F37D1FFF724F8401B02281F
:101C4800F5D9032041E1374A136823F0F8032169E5
:101C580043EAC1031360DCE7324A136823F0010347
:101C68001360FFF70FF805462E4B1B6813F0020FA1
:101C7800CFD0FFF707F8401B0228F5D9032024E14D
:101C8800284A536F23F001035367FEF7FBFF05460D
:101C9800244B5B6F13F0020F06D0FEF7F3FF401BD7
:101CA8000228F5D9032010E1236813F0040F7DD032
:101CB8001C4B1B6C13F0805F1ED11A4B1A6C42F040
:101CC80080521A641B6C03F080530193019B012519
:101CD800154B1B6813F4807F10D0A368012B25D007
:101CE800002B3BD10F4B1A6F22F001021A671A6FB3
:101CF80022F004021A671EE00025E9E70A4A136881
:101D080043F480731360FEF7BDFF0646064B1B685D
:101D180013F4807FE1D1FEF7B5FF801B6428F5D965
:101D28000320D2E000380240007000406E4A136F72
:101D380043F001031367A36833B3FEF7A3FF064616
:101D4800694B1B6F13F0020F2FD1FEF79BFF801B0F
:101D580041F288339842F3D90320B6E0052B09D025
:101D6800614B1A6F22F001021A671A6F22F00402FF
:101D78001A67E0E75C4B1A6F42F004021A671A6FA1
:101D880042F001021A67D6E7FEF77CFF0646564B7B
:101D98001B6F13F0020F08D0FEF774FF801B41F28F
:101DA80088339842F3D903208FE0FDB9A369002B4B
:101DB80000F08A804C4A926802F00C02082A58D037
:101DC800022B19D0484A136823F080731360FEF77A
:101DD80059FF0446444B1B6813F0007F47D0FEF7B9
:101DE80051FF001B0228F5D903206EE03E4A136C10
:101DF80023F080531364D9E73B4A136823F08073B8
:101E08001360FEF73FFF0546374B1B6813F0007F52
:101E180006D0FEF737FF401B0228F5D9032054E00F
:101E2800E369226A1343626A43EA8213A26A520888
:101E3800013A43EA0243E26A43EA026343F0005389
:101E4800294A5360136843F080731360FEF71AFF42
:101E58000446254B1B6813F0007F06D1FEF712FFDE
:101E6800001B0228F5D903202FE000202DE00020D8
:101E78002BE01D4A5268012B29D002F48003E16946
:101E88008B4226D102F03F03216A8B4223D1616A3B
:101E980047F6C0731340B3EB811F1ED102F44031E3
:101EA800A36A5B08013BB1EB034F18D102F07062E3
:101EB800E36AB2EB036F14D1002006E001207047FB
:101EC800012002E0012000E0002002B070BD0120E6
:101ED800FBE70120F9E70120F7E70120F5E70120FA
:101EE800F3E70120F1E700BF0038024008B5334BA3
:101EF8009B6803F00C03042B5BD0082B5BD12F4BA2
:101F08005A6802F03F025B6813F4800F2CD02B4B09
:101F18005868C0F388104FEA401CBCEB000C6EEB0D
:101F28000E0E4FEA8E1343EA9C634FEA8C11B1EB15
:101F38000C0163EB0E03DB0043EA5173C90011EB9C
:101F4800000C43F10003590200234FEA4C2041EAF8
:101F5800DC51FEF735F9194B5B68C3F301430133D4
:101F68005B00B0FBF3F027E0144B5868C0F388100F
:101F78004FEA401CBCEB000C6EEB0E0E4FEA8E13C2
:101F880043EA9C634FEA8C11B1EB0C0163EB0E033F
:101F9800DB0043EA5173C90011EB000C43F1000365
:101FA800990200234FEA8C2041EA9C51FEF708F978
:101FB800D1E7034800E0034808BD00BF00380240ED
:101FC80000127A000024F400002800F0A08070B508
:101FD8000D460446524B1B6803F00F038B420BD28D
:101FE8004F4A136823F00F030B431360136803F081
:101FF8000F038B4240F08D80236813F0020F17D037
:1020080013F0040F04D0474A936843F4E0539360F5
:10201800236813F0080F04D0424A936843F46043DE
:102028009360404A936823F0F003A1680B439360E0
:10203800236813F0010F31D06368012B20D0022BE5
:1020480025D0384A126812F0020F64D035498A68E0
:1020580022F0030213438B60FEF714FE0646314B51
:102068009B6803F00C036268B3EB820F16D0FEF78F
:1020780009FE801B41F288339842F0D9032045E0DD
:10208800284A126812F4003FE0D101203EE0254AB8
:10209800126812F0007FD9D1012037E0204B1B686D
:1020A80003F00F03AB420AD91D4A136823F00F034C
:1020B8002B431360136803F00F03AB422DD1236841
:1020C80013F0040F06D0174A936823F4E053E1682D
:1020D8000B439360236813F0080F07D0114A9368E5
:1020E80023F46043216943EAC1039360FFF7FEFECE
:1020F8000C4B9B68C3F303130B4AD35CD8400B4BC0
:1021080018600B4B1868FEF77FFD002070BD01209A
:1021180070470120FAE70120F8E70120F6E700BF41
:10212800003C024000380240383600080000002019
:1021380008000020014B1868704700BF000000200D
:1021480008B5FFF7F7FF044B9B68C3F38223034AE4
:10215800D35CD84008BD00BF0038024030360008C4
:1021680008B5FFF7E7FF044B9B68C3F34233034A04
:10217800D35CD84008BD00BF0038024030360008A4
:10218800F0B583B00446066816F001060DD0A74BDB
:102198009A6822F400029A609A68416B0A439A602E
:1021A800436B002B00F039810026256815F40025C3
:1021B80011D09E4AD2F88C3023F44013E16B0B43C4
:1021C800C2F88C30E36BB3F5801F00F02881002B38
:1021D80000F027810025236813F4801F0FD0934A4D
:1021E800D2F88C3023F44003216C0B43C2F88C30B6
:1021F800236CB3F5800F00F0168103B9012523681D
:1022080013F0807F00D0012613F0200F40F01081DA
:10221800236813F0100F0CD0844BD3F88C2022F0D5
:102228008072C3F88C20D3F88C20A16B0A43C3F8C2
:102238008C20236813F4804F08D07C4AD2F8903061
:1022480023F44033616E0B43C2F89030236813F4D3
:10225800004F08D0754AD2F8903023F44023A16E7D
:102268000B43C2F89030236813F4803F08D06F4ABC
:10227800D2F8903023F44013E16E0B43C2F890304B
:10228800236813F4003F08D0684AD2F8903023F44A
:102298004003216F0B43C2F89030236813F0400FBE
:1022A80008D0624AD2F8903023F00303616C0B43E4
:1022B800C2F89030236813F0800F08D05B4AD2F838
:1022C800903023F00C03A16C0B43C2F890302368C4
:1022D80013F4807F08D0554AD2F8903023F03003A9
:1022E800E16C0B43C2F89030236813F4007F08D0E8
:1022F8004E4AD2F8903023F0C003216D0B43C2F848
:102308009030236813F4806F08D0484AD2F8903090
:1023180023F44073616D0B43C2F89030236813F4C3
:10232800006F08D0414AD2F8903023F44063A16D81
:102338000B43C2F89030236813F4805F08D03B4AFF
:10234800D2F8903023F44053E16D0B43C2F890303B
:10235800236813F4005F08D0344AD2F8903023F48D
:102368004043216E0B43C2F89030236813F4800F6A
:1023780008D02E4AD2F8903023F08063A16F0B4327
:10238800C2F89030236813F4001F0DD0274AD2F802
:10239800903023F00063E16F0B43C2F89030E36F95
:1023A800B3F1006F00F0AA80236813F0080F00D083
:1023B800012513F4802F08D01C4AD2F8903023F05E
:1023C8004073616F0B43C2F89030236813F4000F19
:1023D80009D0164AD2F8903023F08053D4F88010F0
:1023E8000B43C2F8903026B9236813F0007F00F041
:1023F80005810E4A136823F080631360FEF742FCE0
:1024080006460A4B1B6813F0006F79D0FEF73AFCBA
:10241800801B6428F5D90320F3E00126C5E60126D0
:10242800D5E60125D7E60126E7E600BF00380240D9
:102438007F4B1A6C42F080521A641B6C03F0805375
:102448000193019B7B4A136843F480731360FEF782
:1024580019FC0746774B1B6813F4807F06D1FEF7FB
:1024680011FCC01B6428F5D90320CAE0704B1B6F10
:1024780013F4407315D0226B02F440729A4210D0C4
:102488006B4B1A6F22F44072196F41F4803119674F
:10249800196F21F4803119671A671B6F13F0010F48
:1024A80012D1236B03F44072B2F5407F1DD0604A0D
:1024B800936823F4F81393605D490B6F226BC2F3A2
:1024C8000B0213430B67A3E6FEF7DCFB0746584BEA
:1024D8001B6F13F0020FE4D1FEF7D4FBC01B41F2CF
:1024E80088339842F3D903208BE05148826822F45C
:1024F800F812514919400A438260DDE7012553E784
:10250800236813F0010F13D0636B8BB9484AD2F8D4
:102518008430D2F88410606803F4403343EA8013AF
:1025280001F070610B43A16843EA0173C2F884307B
:10253800236813F4002F03D0E26BB2F5801F06D096
:1025480013F4801F1ED0236CB3F5800F1AD1384ABC
:10255800D2F88430D2F88410606803F4403343EA38
:102568008013E06843EA006301F0E0410B43C2F8DE
:102578008430D2F88C3023F01F03616A01390B4391
:10258800C2F88C30236813F0807F11D0284AD2F823
:102598008400D2F88410666823691B0443EA861312
:1025A80000F07060034301F0E0410B43C2F884304F
:1025B800236813F0007F0DD0626823691B0443EA87
:1025C8008213E26843EA0263A26843EA0273184A84
:1025D800C2F88430164A136843F080631360FEF72C
:1025E80051FB0646124B1B6813F0006F06D1FEF72D
:1025F80049FB801B6428F5D9032002E0012D02D095
:10260800002003B0F0BD0A4A136823F0805313601A
:10261800FEF738FB0546064B1B6813F0005F0DD02C
:10262800FEF730FB401B6428F5D90320E9E700BF1B
:102638000038024000700040FFFCFF0F236813F4CD
:10264800002F01D0E26B22B113F4801F1DD0236C40
:10265800DBB9354AD2F88830D2F88810606903F4BB
:10266800403343EA8013A06943EA006301F0E04184
:102678000B43C2F88830D2F88C3023F4F853A16A9F
:10268800013943EA0123C2F88C30236813F4001F90
:1026980003D0E36FB3F1006F31D0236813F0080F54
:1026A80019D0214AD2F88810D2F88830606903F42A
:1026B800403343EA801301F070610B43E16943EA58
:1026C8000173C2F88830D2F88C3023F44033E16AC1
:1026D8000B43C2F88C30144A136843F080531360DC
:1026E800FEF7D0FA0446104B1B6813F0005F19D1AF
:1026F800FEF7C8FA001B6428F5D9032081E70A4AC7
:10270800D2F88800D2F888106569236A1B0443EA66
:10271800851300F07060034301F0E0410B43C2F8F9
:102728008830BAE700206CE70038024010B504464C
:1027380083680269134342691343C26913430168FA
:102748000868934A02401A430A602268536823F4CF
:102758004053E1680B435360A269236A1A43216816
:102768008B6823F4306313438B602368894A934250
:1027780019D0894A934229D0884A93423ED0884A40
:10278800934262D0874A934271D0874A934200F0BD
:102798008380864A934200F09480854A934200F0F1
:1027A800A58010233AE0834BD3F8903003F003035D
:1027B800032B09D8DFE803F00204AE0601232DE05D
:1027C80004232BE0082329E0102327E0794BD3F8D2
:1027D800903003F00C030C2B0ED8DFE803F0070D44
:1027E8000D0D090D0D0D9D0D0D0D0B00002315E0B0
:1027F800042313E0082311E010230FE06D4BD3F8F6
:10280800903003F03003202B00F0888019D8002B7B
:1028180000F08680102B40F085800423E069B0F535
:10282800004F00F0AB80082B00F20C81DFE813F0BA
:10283800E800FB00E6000A01FE000A010A010A019D
:102848000101302B70D10823E8E75A4BD3F89030B8
:1028580003F0C003802B69D005D8002B68D0402B2B
:1028680068D10423DAE7C02B66D10823D6E7514B99
:10287800D3F8903003F44073B3F5007F5ED006D8E8
:10288800002B5DD0B3F5807F5CD10423C6E7B3F598
:10289800407F59D10823C1E7464BD3F8903003F461
:1028A8004063B3F5006F51D006D8002B50D0B3F574
:1028B800806F4FD10423B1E7B3F5406F4CD10823A3
:1028C800ACE73C4BD3F8903003F44053B3F5005FCA
:1028D80044D006D8002B43D0B3F5805F42D10423FF
:1028E8009CE7B3F5405F3FD1082397E7314BD3F816
:1028F800903003F44043B3F5004F37D005D8BBB34D
:10290800B3F5804F36D1042388E7B3F5404F33D170
:10291800082383E7022381E702237FE702237DE779
:1029280000237BE7102379E7102377E7022375E775
:10293800002373E7102371E710236FE702236DE785
:1029480000236BE7102369E7102367E7022365E795
:10295800012363E7102361E710235FE702235DE7A4
:1029680000235BE7102359E7102357E7022355E7B5
:10297800002353E7102351E710234FE7082B5BD8B8
:10298800DFE803F01A343A5A375A5A5A1E0000BF81
:10299800F369FFEF00100140004400400048004088
:1029A800004C0040005000400014014000780040F6
:1029B800007C004000380240FFF7C2FB00283DD0F1
:1029C8006268530803EB4003B3FBF2F3A3F1100171
:1029D8004FF6EF72914233D89AB222F00F02C3F346
:1029E800420313432268D360002030E0FFF7B8FBAE
:1029F800E4E7FFF77BFAE1E71748E1E7164802E06A
:102A0800FFF79EFB00B3636800EB5300B0FBF3F0E5
:102A1800A0F110024FF6EF739A4217D8236880B2DC
:102A2800D860002013E0FFF79BFBEBE7FFF75EFAA7
:102A3800E8E74FF40040E6E7012008E0002006E060
:102A4800012004E0012002E0002000E00120002332
:102A5800A366E36610BD00BF0024F400436A13F0C8
:102A6800010F06D00268536823F40033816A0B43D0
:102A78005360436A13F0020F06D00268536823F4C8
:102A88008033C16A0B435360436A13F0040F06D0C6
:102A98000268536823F48023016B0B435360436A35
:102AA80013F0080F06D00268536823F40043416B03
:102AB8000B435360436A13F0100F06D00268936803
:102AC80023F48053816B0B439360436A13F0200F08
:102AD80006D00268936823F40053C16B0B439360DC
:102AE800436A13F0400F0AD00268536823F4801336
:102AF800016C0B435360036CB3F5801F0BD0436A22
:102B080013F0800F06D00268536823F40023816C09
:102B18000B43536070470268536823F4C003416C49
:102B28000B435360EBE72DE9F84305460F4616467D
:102B38009946DDF820802B68DC6937EA04040CBF6D
:102B480001240024B44255D1B8F1FF3FF3D0FEF779
:102B580099F8A0EB090040452ED8B8F1000F2BD00A
:102B68002B681A6812F0040FE5D0DA6912F4006FC6
:102B7800E1D04FF400621A622A6852E8003F23F459
:102B8800D07342E800310029F6D12A6802F108031F
:102B980053E8003F23F00103083242E800310029DE
:102BA800F3D12023EB67C5F88030C5F884300023C3
:102BB80085F8783003201EE02A6852E8003F23F4A5
:102BC800D07342E800310029F6D12A6802F10803DF
:102BD80053E8003F23F00103083242E8003100299E
:102BE800F3D12023EB67C5F88030002385F87830CF
:102BF800032000E00020BDE8F88310B582B0044649
:102C08000023C0F88430FEF73DF823681B6813F0F2
:102C1800080F0AD12023E367C4F88030002020661B
:102C2800606684F8780002B010BD6FF07E430093B0
:102C3800034600224FF400112046FFF774FF0028D6
:102C4800E8D00320EFE768B310B50446C36F03B3B9
:102C58002423E3672268136823F0010313602046E6
:102C6800FFF764FD012813D0636ABBB92268536873
:102C780023F4904353602268936823F02A039360F7
:102C88002268136843F0010313602046FFF7B5FF7D
:102C980010BD80F87830FDF703FFD9E72046FFF72D
:102CA800DDFEE3E70120704782B000230193019B1A
:102CB80001330193019A0F4B9A4215D80369002BEF
:102CC800F5DA00230193036943F001030361019BD3
:102CD80001330193019A074B9A4208D8036913F00C
:102CE800010FF4D1002000E0032002B07047032058
:102CF800FBE700BF400D030084B010B5044603A8ED
:102D080080E80E00089B012B1DD1A36B23F48033B0
:102D1800A363E268164B1340E360E36823F44013AF
:102D2800E3600F9B012B09D02046FFF7BDFF069BF0
:102D3800012B14D0BDE8104004B07047E36843F499
:102D48008013E360F0E7E36843F04003E360204664
:102D5800FFF7AAFFA36B43F48033A363E7E7A368F5
:102D680043F00603A360A36843F02003A360E1E7F0
:102D7800BFFFBDFF836823F0010383600020704715
:102D880082B000230193019B01330193019A0F4BF9
:102D98009A4215D80369002BF5DA002301938901BB
:102DA80041F020010161019B01330193019A074B16
:102DB8009A4208D8036913F0200FF4D1002000E0EC
:102DC800032002B070470320FBE700BF400D03005B
:102DD80082B000230193019B01330193019A0E4BAA
:102DE8009A4213D80369002BF5DA002301931023C4
:102DF8000361019B01330193019A074B9A4208D85A
:102E0800036913F0100FF4D1002000E0032002B092
:102E180070470320FBE700BF400D0300D0F80038DF
:102E28001943C0F8001800207047000084B02DE94D
:102E3800F041044607A880E80E00002306E003F1ED
:102E4800400204EB82020021516001330E2BF6D9B7
:102E5800119F27BBD4F8043843F00203C4F80438A0
:102E6800A36B23F40013A363236843F04003236098
:102E7800236843F0800323600023C4F8003E04F570
:102E88000065D4F80038C4F800380C9B012B10D129
:102E9800099B4BB900212046FFF7C0FF0DE0A36B4B
:102EA80043F40013A363E7E701212046FFF7B6FFC9
:102EB80003E003212046FFF7B1FF10212046FFF76A
:102EC8005FFF804608B14FF001082046FFF780FFFA
:102ED80008B14FF0010800232B616B61EB610AE038
:102EE800C3B94FF00060C2F8000900220A614FF62A
:102EF8007F328A6001330799994210D904EB431253
:102F080002F51061D2F800090028E9DB0020C2F8B8
:102F18000009EAE74FF09040C2F80009E5E700230E
:102F28000AE0C3B14FF0904CC2F800CB0022026116
:102F38004FF67F3282600133994211D904EB431274
:102F480002F53060D2F8006B002EEADB4FF0000C7F
:102F5800C2F800CBEAE74FF0006CC2F800CBE5E717
:102F68002B6923F480732B610023A3616FF08043E6
:102F780063610A9B1BB9A36943F01003A361A269AB
:102F88000A4B1343A3610D9B1BB1A36943F00803CC
:102F9800A361012F04D04046BDE8F04104B070475A
:102FA800A269034B1343A361F5E700BF00383C80D7
:102FB80004000040D0F8003E23F00303C0F8003EB0
:102FC800D0F8043843F00203C0F8043800207047F2
:102FD800406900F00100704738B50546C36823F022
:102FE800C043C360012913D019BBC36843F08043B1
:102FF800C36000240120FDF74BFE01342846FFF78B
:10300800E7FF08B1312CF5D9322C14D0002038BD97
:10301800C36843F00053C36000240120FDF738FE65
:1030280001342846FFF7D4FF0128EDD0312CF4D91C
:10303800EAE70120EBE70120E9E70000DFF834D0F8
:103048000D480E490E4A002302E0D458C4500433F8
:10305800C4188C42F9D30B4A0B4C002301E01360CF
:103068000432A242FBD3FDF7C5FD00F0E7F8FDF7F7
:1030780045FB704700000520000000205C00002090
:10308800583600089C010020E4090020FEE70000F3
:10309800024B0146186800F02DB800BF0C00002054
:1030A800024B0146186800F0EFB800BF0C00002082
:1030B80070B50F4E0C463168054611B900F0AEF8F0
:1030C80030602146284600F0A9F8431C03D14FF090
:1030D800FF34204670BDC41C24F00304A042F8D07D
:1030E800211A284600F09AF80130F2D1EFE700BF24
:1030F800980800202DE9F843CD1C25F00305083574
:103108000C2D38BF0C25002D064601DBA94204D939
:103118000C2333600020BDE8F883DFF8D48000F08A
:1031280069F8D8F800301C4644BB29463046FFF7FA
:10313800BFFF431C044658D1D8F800402746002F4B
:1031480043D1002C4BD023683946304604EB0309A1
:1031580000F064F8814542D121686D1A294630464D
:10316800FFF7A6FF01303AD023682B442360D8F834
:1031780000305A6862BBC8F800700FE02268521B22
:1031880020D40B2A17D96119A342256018BF5960AA
:10319800636808BFC8F8001062514B60304600F001
:1031A8002FF804F10B00231D20F00700C21A1CBFE2
:1031B8001B1AA350AFE76268A3420CBFC8F80020EF
:1031C8005A60EBE723466468AEE73C467F68B6E79B
:1031D8001A465B68A342FBD100235360DEE70C2349
:1031E8003360304600F00CF894E70560D6E700BF7E
:1031F8009C080020014800F045B800BFDC09002009
:10320800014800F040B800BFDC0900200244034632
:10321800934200D1704703F8011BF9E738B5064D12
:103228000023044608462B6000F078F8431C02D1BE
:103238002B6803B1236038BDD809002070B50D4D47
:103248000D4C641BA4100026A64209D10B4D0C4C52
:1032580000F0D0F9641BA4100026A64205D170BD69
:1032680055F8043B98470136EEE755F8043B984774
:103278000136F2E75036000850360008503600088C
:10328800543600087047704738B50546002941D0C4
:1032980051F8043C0C1F002BB8BFE418FFF7AAFF35
:1032A8001D4A136833B9636014602846BDE8384086
:1032B800FFF7A6BFA34208D9206821188B4201BF97
:1032C80019685B6809182160EDE71A465B680BB15D
:1032D800A342FAD911685018A0420BD120680144C2
:1032E800501883421160E0D118685B685360084445
:1032F8001060DAE702D90C232B60D6E72068211882
:103308008B4204BF19685B68636004BF09182160B9
:103318005460CAE738BD00BF9C080020044A05492C
:103328001368002B08BF0B461844106018467047F6
:10333800E0090020E80900202DE9F047089D0C4627
:10334800002B4ED194468C458646B2FA82F262D959
:103358004AB1C2F12003914020FA03F30CFA02FCAF
:10336800194300FA02FE4FEA1C471FFA8CF6B1FB1C
:10337800F7F44FEA1E4307FB141143EA014304FB29
:1033880006F199420AD91CEB030304F1FF3080F0DF
:103398001281994240F20F81023C6344591A1FFA84
:1033A8008EF3B1FBF7F007FB101143EA014300FB72
:1033B80006F69E420AD91CEB030300F1FF3180F0A8
:1033C800FC809E4240F2F980634402389B1B40EA2D
:1033D800044000211DB1D3400022C5E90032BDE8F8
:1033E800F0878B4205D90DB1C5E9000100210846D7
:1033F800F5E7B3FA83F1002946D1A34202D39042FC
:10340800C0F0F080861A64EB03030120002DE6D09B
:10341800C5E90063E3E7002A40F09080A1EB0C04C3
:103428004FEA1C481FFA8CF70121B4FBF8F64FEA63
:103438001E4308FB164443EA044307FB06F0984280
:1034480008D91CEB030306F1FF3402D2984200F2BC
:10345800CD8026461C1A1FFA8EF3B4FBF8F008FB41
:10346800104443EA044300FB07F79F4208D91CEBCA
:10347800030300F1FF3402D29F4200F2B0802046DD
:10348800DB1B40EA0640A5E7C1F120068B4022FA83
:1034980006F71F4320FA06FC04FA01F343EA0C037B
:1034A800F44000FA01F8380C4FEA1349B4FBF0FE77
:1034B8001FFA87FC00FB1E4449EA04440EFB0CF982
:1034C800A14502FA01F20AD93C190EF1FF3A80F03F
:1034D8008480A14540F28180AEF1020E3C44A4EB09
:1034E80009041FFA83F9B4FBF0F300FB134449EA1B
:1034F800044403FB0CFCA44507D93C1903F1FF3035
:1035080067D2A44565D9023B3C4443EA0E40A0FB80
:103518000293A4EB0C049C42CE469C4651D34ED059
:1035280055B1B8EB0E0364EB0C0404FA06F6CB4075
:103538001E43CC40C5E90064002150E7C2F12003D6
:1035480020FA03F10CFA02FC24FA03F394400C432A
:103558004FEA1C4800FA02FE1FFA8CF7B3FBF8F09A
:1035680008FB1031230C43EA014300FB07F19942A1
:1035780008D91CEB030300F1FF362CD299422AD953
:10358800023863445B1AA4B2B3FBF8F108FB1133A9
:1035980044EA034401FB07F3A34208D91CEB0404E3
:1035A80001F1FF3613D2A34211D902396444E41A57
:1035B80041EA004139E70446F0E6084606E7C8450F
:1035C800AED2B9EB020E63EB070C0138A8E731461F
:1035D800EDE7034699E73046D4E7D6467FE76344EC
:1035E80002384DE70646234608460FE7023E634485
:1035F80030E700BFF8B500BFF8BC08BC9E4670476E
:0C360800F8B500BFF8BC08BC9E46704737
:1036140000AED580A83FD300408D142000A1C8DAA5
:103624001281CFD9F1DB40A4A6AF00000000000056
:103634000102030400000000000000000102030472
:043644000607080964
:08364800F8FCFF7F0100000007
:04365000210200084B
:04365400FD0100086C
:103658000024F40001000000100000001000002009
:1036680000000000A00800200809002070090020C0
:103678000000000000000000000000000000000042
:103688000000000000000000000000000000000032
:103698000000000000000000000000000000000022
:0C36A80000000000000000000000000016
:1036B4000000000000000000000000000000000006
:1036C40000000000000000000000000000000000F6
:1036D40000000000000000000000000000000000E6
:1036E40000000000000000000000000000000000D6
:1036F40000000000000000000000000000000000C6
:1037040000000000000000000000000000000000B5
:1037140000000000000000000000000000000000A5
:103724000000000000000000000000000000000095
:103734000000000000000000000000000000000085
:103744000000000000000000000000000000000075
:103754000000000000000000000000000000000065
:103764000000000000000000000000000000000055
:103774000000000000000000000000000000000045
:103784000000000000000000000000000000000035
:103794000000000000000000000000000000000025
:1037A4000000000000000000000000000000000015
:1037B4000000000000000000000000000000000005
:1037C40000000000000000000000000000000000F5
:1037D40000000000000000000000000000000000E5
:1037E40000000000000000000000000000000000D5
:04000005080030457A
:00000001FF
